:100000000C9466000C948E000C948E000C94DD0110
:100010000C94DD010C94DD010C948E000C948E0088
:100020000C948E000C948E000C948E000C948E0018
:100030000C948E000C948E000C948E000C948E0008
:100040000C947E070C948E000C94490A0C947B0A45
:100050000C948E000C948E000C948E000C948E00E8
:100060000C948E000C948E00000000080002010029
:100070000003040700000000000000000102040863
:100080001020408001020408102001020408102002
:10009000040404040404040402020202020203032E
:1000A00003030303000000002300260029000000D2
:1000B0000000250028002B0000000000240027007D
:1000C0002A00E5006E07AB0AF800720711241FBE74
:1000D000CFEFD8E0DEBFCDBF13E0A0E0B1E0E2E2B9
:1000E000F1E202C005900D92AE3EB107D9F725E0CE
:1000F000AEEEB3E001C01D92A032B207E1F710E00E
:10010000C8ECD0E004C02297FE010E94F10DC23C71
:10011000D107C9F70E94EF0A0C9484100C940000D8
:100120008EEE93E00E94720B84EF93E00E94720BBC
:100130008AEF93E00C945702CF93DF93CDB7DEB7ED
:100140002C970FB6F894DEBF0FBECDBF26E040E877
:1001500055E260E070E08FE794E00E94E70940E834
:1001600055E260E070E08AEF93E00E94E0026AEFFF
:1001700073E08DE594E00E9486036EEE73E0CE019D
:1001800001960E94430C64EF73E0CE0107960E9433
:10019000430CAE014F5F5F4FBE01695F7F4F8DE53E
:1001A00094E00E949206CE0107960E94720BCE0147
:1001B00001960E94720B2C960FB6F894DEBF0FBE0C
:1001C000CDBFDF91CF910895089520E04BE06AE024
:1001D0008AEF93E00E94B00266E071E084EF93E062
:1001E0000E94E00B64E171E08EEE93E00C94E00B72
:1001F0000C94900020915B0430915C04281739071F
:10020000B9F49091190480911A04981789F0E0913B
:100210001904F0E0E55EFB4F80812091190430E085
:100220002F5F3F4F2F7333272093190490E00895D9
:100230008FEF9FEF08951F93CF93DF93DC015C96C0
:100240008D919C915D97009749F481E090E0139621
:100250009C938E93129780E090E03BC05196ED9175
:10026000FC91529750962C915097322F30951FB792
:100270005E964C915E9741FB772770F941FD609542
:10028000F8944081772311F0422B01C0432340832F
:10029000EC012197F1F748E0508160FF02C0522B3A
:1002A00001C053235083EC012197F1F7669541502B
:1002B00099F78081772311F0832301C0822B8083FB
:1002C0001FBF5C968D919C915D970197F1F781E03E
:1002D00090E0DF91CF911F910895089520915B04E4
:1002E00030915C042817390771F4909119048091BA
:1002F0001A04981741F0E0911904F0E0E55EFB4F15
:10030000808190E008958FEF9FEF089520915B0426
:1003100030915C042817390771F480911A042091F8
:10032000190490E0805C9F4F821B910960E470E0AB
:100330000E94860D089580E090E00895E0915B04AE
:10034000F0915C04E817F90769F4A389B4899C91DA
:100350008589809589238C9310925C0410925B04AC
:1003600081E0089580E00895CF93DF93EC018A8DBA
:100370009B8D892BF1F080915B0490915C048C172C
:100380009D07B9F0009711F00E949E018E8D8E7F1F
:100390008E8F10921A0410921904D0935C04C093AB
:1003A0005B04EB89FC8980819D89892B808381E0B6
:1003B00001C080E0DF91CF9108951F920F920FB698
:1003C0000F9211242F933F934F935F936F937F93DB
:1003D0008F939F93AF93BF93EF93FF93E0915B0451
:1003E000F0915C04309709F451C0868DA685B785DD
:1003F000958581FF04C08C91892329F447C08C9195
:10040000892309F043C0A389B4899C91858980958B
:1004100089238C93868997890197F1F7208D318DF7
:10042000A685B785758558E040E0C9010197F1F7C9
:10043000842F90E095958795482F6C91672309F05C
:100440004068515091F7868D81FD409580911A0446
:1004500090E001968F73992720911904281749F08D
:10046000A0911A04B0E0A55EBB4F4C9380931A0490
:1004700003C0868D8160868F828D938D0197F1F701
:10048000A389B4898C919589892B8C93FF91EF91E5
:10049000BF91AF919F918F917F916F915F914F919C
:1004A0003F912F910F900FBE0F901F90189522E251
:1004B00031E0FC01318320830C949E011F93CF9384
:1004C000DF93EC01162F6E8D6695617081E06827D1
:1004D000812F0E94CE0861E0812F0E949508812F14
:1004E00090E0FC01E458FF4FE491E88BFC01E057F9
:1004F000FF4FE491F0E0EE0FFF1FE255FF4F8591B3
:1005000094919A8B898BDF91CF911F9108951F93BE
:10051000CF93DF93EC01162F60E0812F0E949508A6
:100520008E8D81FD04C061E0812F0E94CE081C8762
:10053000812F90E0FC01E458FF4FE491ED87FC012E
:10054000E057FF4FE491F0E0EE0FFF1FEC55FF4F37
:10055000859194919F878E87DF91CF911F91089508
:10056000FF920F931F93CF93DF93EC01F62E522F40
:100570001B821A8208EE13E020E030E00C831D831A
:100580002E833F8382E291E0998388831F8A1E8AAB
:10059000198E188E1B8E1A8E1D8E1C8E8E8D8E7F40
:1005A00050FB81F98E8F642FCE010E945E026F2D69
:1005B000CE01DF91CF911F910F91FF900C94870294
:1005C000CF93DF93EC019A01AB011B8E1A8E198E2B
:1005D000188E1F8A1E8A60E079E08DE390E00E9409
:1005E000BC0DC9012430310520F0B90163507109F7
:1005F00002C061E070E07D8F6C8FEC85E63108F021
:1006000068C0B901769567956431710518F063513A
:10061000710902C061E070E07F8B6E8B069718F065
:10062000C901059702C081E090E0998F888FC901C8
:10063000880F991F820F931F96958795969587959A
:100640008D30910510F00C9702C081E090E09B8FF7
:100650008A8F20916800E83050F091E0EE3008F485
:1006600090E081E001C0880F9A95EAF701C084E02C
:10067000822B809368002C85283038F02E3040F093
:10068000263148F48CE690E008C08DE690E005C085
:100690008BE690E002C080E090E09C8B8B8B283052
:1006A00030F481E001C0880F2A95EAF70DC0822F4F
:1006B00090E02E3010F4089701C00E9791E001C031
:1006C000990F8A95EAF7892F8D8B8C8D9D8D0197D7
:1006D000F1F7CE01DF91CF910C94B401CF93DF936A
:1006E000EC016BE673E00E94E00B6BE673E0CE0179
:1006F00006960E94E00B6BE673E0CE010C960E941A
:10070000E00B81E08E8BDF91CF910895709375049B
:100710006093740408954F925F926F927F92AF92AC
:10072000BF92CF92DF92EF92FF920F931F93CF93DE
:10073000DF93EC015B017A01280139016BE673E07C
:100740000E94E00BB70180917404909175040E949F
:100750004E0B0E94C8076B017C01C40CD51CE61C23
:10076000F71C0E94C8076C157D058E059F05E8F4EF
:100770008091740490917504DC01ED91FC910480EA
:10078000F581E02D0995892B61F380917404909196
:100790007504DC01ED91FC910680F781E02D09954F
:1007A000682FCE010E94E00CE3CFF50186898823F3
:1007B00029F0BE018FE794E00E943C0BCE01DF914F
:1007C000CF911F910F91FF90EF90DF90CF90BF904E
:1007D000AF907F906F905F904F900895EF92FF924F
:1007E0000F931F93CF93DF93CDB7DEB72C970FB640
:1007F000F894DEBF0FBECDBF7C016EE271E0CE018A
:1008000001960E94E00B00ED17E020E030E0AE0121
:100810004F5F5F4FB701CE0107960E948B03CE0159
:1008200001960E94720B6AE871E0CE0101960E9467
:10083000E00BBE016F5F7F4FCE0107960E943C0D1B
:100840008C01CE0101960E94720B60ED77E080E092
:1008500090E00E94F707CE0107960E94720B0F3FAF
:100860001F4F59F281E02C960FB6F894DEBF0FBEF1
:10087000CDBFDF91CF911F910F91FF90EF90089521
:100880004F925F926F927F92AF92BF92CF92DF9220
:10089000EF92FF920F931F93CF93DF93CDB7DEB705
:1008A00062970FB6F894DEBF0FBECDBF6C015B013F
:1008B0007A01280139016BE673E0CE010D960E94A2
:1008C000E00BB501CE0107960E94430C9301820113
:1008D000AE01495F5F4FB601CE0101960E948B03C6
:1008E000BE016F5F7F4FCE010D960E944C0CCE0172
:1008F00001960E94720BCE0107960E94720BB701FF
:10090000CE010D960E943C0D7C01CE010D960E94F9
:10091000720B81E0EF20E09409F480E062960FB65C
:10092000F894DEBF0FBECDBFDF91CF911F910F9125
:10093000FF90EF90DF90CF90BF90AF907F906F903F
:100940005F904F9008958091740490917504DC013C
:10095000ED91FC910480F581E02D0995181619069A
:1009600064F48091740490917504DC01ED91FC9124
:100970000680F781E02D0995E6CF0895EF92FF926A
:100980000F931F93CF93DF93CDB7DEB72C970FB69E
:10099000F894DEBF0FBECDBF7C0166E671E0CE01EC
:1009A00001960E94E00B6CE671E0CE0107960E9472
:1009B000E00B00ED17E020E030E0AE014F5F5F4F4D
:1009C000BE01695F7F4FC7010E944004F82ECE012F
:1009D00007960E94720BCE0101960E94720B8F2D1A
:1009E0002C960FB6F894DEBF0FBECDBFDF91CF912E
:1009F0001F910F91FF90EF900895CF92DF92EF92A9
:100A0000FF920F931F93CF93DF93CDB7DEB7689715
:100A10000FB6F894DEBF0FBECDBF7C018B016A011B
:100A20006BE673E0CE0143960E94E00BC7010E9483
:100A3000A30463E771E0CE010D960E94E00BB801BC
:100A4000CE010D960E94C90C6EE771E0CE010D96A5
:100A50000E94D00CB601CE010D960E94C90C60E830
:100A600071E0CE010D960E94D00CBE01635F7F4FF6
:100A7000CE0107960E94430C08E813E120E030E025
:100A8000AE01495F5F4FB701CE0101960E948B0313
:100A9000BE016F5F7F4FCE0143960E944C0CCE018A
:100AA00001960E94720BCE0107960E94720B6AE8B3
:100AB00071E0CE0101960E94E00BBE016F5F7F4F97
:100AC000CE0143960E943C0D8C01CE0101960E94FE
:100AD000720BCE010D960E94720BCE0143960E94BE
:100AE000720B81E00F3F1F4F09F480E068960FB64C
:100AF000F894DEBF0FBECDBFDF91CF911F910F9154
:100B0000FF90EF90DF90CF900895AF92BF92CF9279
:100B1000DF92EF92FF920F931F93CF93DF93CDB7A6
:100B2000DEB76E970FB6F894DEBF0FBECDBF7C0167
:100B30005B010E94A3046AE871E0CE0149960E941D
:100B4000E00B62E871E0CE0143960E94E00B66E89C
:100B500071E0CE010D960E94E00B6DE871E0CE01D0
:100B600001960E94E00B08EB1BE020E030E0AE01B4
:100B70004F5F5F4FB701CE0107960E948B03CE01F6
:100B800001960E94720BBE01675E7F4FCE010796F1
:100B90000E943C0D0196C9F1BE016D5E7F4FCE01F2
:100BA00007960E943C0D6C01EE24D7FCE094FE2CCD
:100BB000BE01635F7F4FCE0107960E943C0D2FEF71
:100BC000C216D206E206F20601F18F3F2FEF92071E
:100BD000E1F02F89388DB701A601420F531F611D27
:100BE000711D9C01BE01695F7F4FCE0101960E947D
:100BF000400DBE016F5F7F4FC5010E944C0CCE01BE
:100C000001960E94720B11E006C06BE673E0C5010D
:100C10000E94580C10E0CE0107960E94720BCE0184
:100C20000D960E94720BCE0143960E94720BCE016C
:100C300049960E94720B812F6E960FB6F894DEBF14
:100C40000FBECDBFDF91CF911F910F91FF90EF901D
:100C5000DF90CF90BF90AF900895EF92FF920F93E7
:100C60001F93CF93DF93CDB7DEB762970FB6F8949B
:100C7000DEBF0FBECDBF7C012AE0CE0107960E94E9
:100C8000700C6EEF71E0CE0101960E94E00BBE0188
:100C9000695F7F4FCE0101960E94F30CBC01CE012B
:100CA0000D960E94430CCE0101960E94720BCE015C
:100CB00007960E94720BBE01635F7F4FCE010196C3
:100CC0000E94430C08EE13E020E030E0AE014F5FDD
:100CD0005F4FB701CE0107960E948B03CE010196AC
:100CE0000E94720BF7018689882339F0BE01695F83
:100CF0007F4F8FE794E00E944E0BCE0107960E9433
:100D0000720BCE010D960E94720B62960FB6F8948C
:100D1000DEBF0FBECDBFDF91CF911F910F91FF902E
:100D2000EF900895CF92DF92EF92FF920F931F936F
:100D3000CF93DF93CDB7DEB72C970FB6F894DEBF15
:100D40000FBECDBF8C016A010E942C0C780186E099
:100D5000E80EF11CB601C7010E942C0C69E072E09C
:100D60008FE794E00E94600BC8010E94EE03F80137
:100D7000D688882309F499C0DD2031F068E172E05B
:100D80008FE794E00E94600BC8010E94BE0441E01E
:100D900050E060E070E0C8010E942D06B701CE016E
:100DA00001960E94430CB801CE0107960E94430CA5
:100DB000AE014F5F5F4FBE01695F7F4FC8010E9468
:100DC000FD04D82ECE0107960E94720BCE0101962B
:100DD0000E94720BF8018689D11021C08823C1F0CE
:100DE0006AE272E0CE0101960E94E00BB801CE01EA
:100DF00001960E94F30C60E572E00E94060DBC01B2
:100E00008FE794E00E944E0BCE0101960E94720B78
:100E100060ED77E080E090E00E94F707BFCF882385
:100E2000A1F06EE572E0CE0101960E94E00BB801E0
:100E3000CE0101960E94F30CBC018FE794E00E9462
:100E40004E0BCE0101960E94720B68E873E180E0C0
:100E500090E00E94F7077801FCE0EF0EF11CB7016B
:100E6000C8010E948505F80186898823A1F069E7F9
:100E700072E0CE0101960E94E00BB701CE0101960F
:100E80000E94F30CBC018FE794E00E944E0BCE0150
:100E900001960E94720B41E050E060E070E0F801C2
:100EA000428B538B648B758B09C0DD2039F062E86F
:100EB00072E08FE794E00E94600BD12C8D2D2C9670
:100EC0000FB6F894DEBF0FBECDBFDF91CF911F915B
:100ED0000F91FF90EF90DF90CF9008958DE594E013
:100EE0000C946E0389E694E00E94720B83E694E012
:100EF0000E94720B8DE594E00C94720B1F920F927E
:100F00000FB60F9211242F933F938F939F93AF931C
:100F1000BF938091770490917804A0917904B09167
:100F20007A043091760423E0230F2D3720F40196C4
:100F3000A11DB11D05C026E8230F0296A11DB11DFC
:100F4000209376048093770490937804A093790497
:100F5000B0937A0480917B0490917C04A0917D04ED
:100F6000B0917E040196A11DB11D80937B049093E6
:100F70007C04A0937D04B0937E04BF91AF919F91B8
:100F80008F913F912F910F900FBE0F901F9018954A
:100F90002FB7F89460917704709178048091790468
:100FA00090917A042FBF08953FB7F89480917B0405
:100FB00090917C04A0917D04B0917E0426B5A89BFD
:100FC00005C02F3F19F00196A11DB11D3FBF662737
:100FD000782F892F9A2F620F711D811D911D42E07C
:100FE000660F771F881F991F4A95D1F708958F9232
:100FF0009F92AF92BF92CF92DF92EF92FF926B01DE
:101000007C010E94D4074B015C01C114D104E104AE
:10101000F104F1F00E94850D0E94D4076819790946
:101020008A099B09683E73408105910570F321E0B0
:10103000C21AD108E108F10888EE880E83E0981EF4
:10104000A11CB11CC114D104E104F10429F7DDCFC6
:10105000FF90EF90DF90CF90BF90AF909F908F90D8
:101060000895789484B5826084BD84B5816084BD20
:1010700085B5826085BD85B5816085BDEEE6F0E011
:10108000808181608083E1E8F0E01082808182606D
:101090008083808181608083E0E8F0E080818160EE
:1010A0008083E1EBF0E0808184608083E0EBF0E01E
:1010B000808181608083EAE7F0E0808184608083C2
:1010C000808182608083808181608083808180686C
:1010D00080831092C1000895833081F028F481301C
:1010E00099F08230A1F008958730A9F08830B9F0E6
:1010F0008430D1F4809180008F7D03C08091800086
:101100008F7780938000089584B58F7702C084B56F
:101110008F7D84BD08958091B0008F7703C080914A
:10112000B0008F7D8093B0000895CF93DF9390E05F
:10113000FC01E458FF4F2491FC01E057FF4F8491DC
:10114000882349F190E0880F991FFC01E854FF4F74
:10115000A591B49182559F4FFC01C591D4919FB741
:10116000611108C0F8948C91209582238C9388811A
:1011700082230AC0623051F4F8948C91322F30955A
:1011800083238C938881822B888304C0F8948C916C
:10119000822B8C939FBFDF91CF9108950F931F9364
:1011A000CF93DF931F92CDB7DEB7282F30E0F90140
:1011B000E859FF4F8491F901E458FF4F1491F90168
:1011C000E057FF4F04910023C9F0882321F0698381
:1011D0000E946C086981E02FF0E0EE0FFF1FE255DE
:1011E000FF4FA591B4919FB7F8948C91611103C002
:1011F0001095812301C0812B8C939FBF0F90DF91AD
:10120000CF911F910F910895FC01818D228D90E067
:10121000805C9F4F821B91098F7399270895FC0171
:10122000918D828D981731F0828DE80FF11D858D9B
:1012300090E008958FEF9FEF0895FC01918D828DCE
:10124000981761F0828DDF01A80FB11D5D968C911A
:10125000928D9F5F9F73928F90E008958FEF9FEF25
:10126000089581EA9AE0892B49F080E090E0892B8B
:1012700029F00E94A10A81110C9400000895FC013C
:10128000848DDF01A80FB11DA35ABF4F2C91848D0F
:1012900090E001968F739927848FA689B7892C9344
:1012A000A089B1898C9180648C93938D848D9813DF
:1012B00006C00288F389E02D80818F7D80830895A8
:1012C000CF93DF93EC01888D8823C9F0EA89FB89ED
:1012D000808185FD05C0A889B9898C9186FD0FC0E4
:1012E0000FB607FCF5CF808185FFF2CFA889B989B9
:1012F0008C9185FFEDCFCE010E943F09E7CFDF91B2
:10130000CF910895CF92DF92FF920F931F93CF93C7
:10131000DF931F92CDB7DEB76C0181E0D6015896FE
:101320008C9358975B969C915B975C968C915C979D
:10133000981307C05096ED91FC915197808185FDDF
:101340002EC0F601038D10E00F5F1F4F0F731127A2
:10135000F02EF601848DF81211C00FB607FCF9CFFC
:10136000D6015096ED91FC915197808185FFF1CF88
:10137000C60169830E943F096981EBCF838DE80F25
:10138000F11DE35AFF4F6083D6015B960C935B9788
:101390005296ED91FC915397808180620CC0D601EA
:1013A0005696ED91FC91579760835096ED91FC9184
:1013B000519780818064808381E090E00F90DF917D
:1013C000CF911F910F91FF90DF90CF900895BF9222
:1013D000CF92DF92EF92FF92CF93DF93EC016A01FD
:1013E0007B01B22EE889F98982E08083411581EE84
:1013F000580761057105A1F060E079E08DE390E0A8
:10140000A70196010E949A0D215031094109510905
:101410005695479537952795211580E1380798F01F
:10142000E889F989108260E874E88EE190E0A7010C
:1014300096010E949A0D2150310941095109569592
:10144000479537952795EC85FD853083EE85FF859B
:101450002083188EEC89FD89B082EA89FB8980811E
:1014600080618083EA89FB89808188608083EA8942
:10147000FB89808180688083EA89FB8980818F7DF8
:101480008083DF91CF91FF90EF90DF90CF90BF905E
:1014900008951F920F920FB60F9211242F938F93DE
:1014A0009F93EF93FF93E0918F04F09190048081DC
:1014B000E0919504F091960482FD12C09081809194
:1014C00098048F5F8F7320919904821751F0E091F7
:1014D0009804F0E0E158FB4F958F8093980401C089
:1014E0008081FF91EF919F918F912F910F900FBE6F
:1014F0000F901F9018951F920F920FB60F92112404
:101500002F933F934F935F936F937F938F939F930B
:10151000AF93BF93EF93FF938FE794E00E943F094F
:10152000FF91EF91BF91AF919F918F917F916F91BB
:101530005F914F913F912F910F900FBE0F901F9091
:1015400018958FE794E00E94040921E0892B09F4A3
:1015500020E0822F0895109282041092810488EE78
:1015600093E0A0E0B0E08093830490938404A09380
:101570008504B093860485ED93E090938004809376
:101580007F0485EC90E090938C0480938B0484EC32
:1015900090E090938E0480938D0480EC90E0909383
:1015A000900480938F0481EC90E090939204809358
:1015B000910482EC90E0909394048093930486ECE1
:1015C00090E0909396048093950410929804109262
:1015D000990410929A0410929B04089508950E9411
:1015E00031080E94EE0A0E949C00C1E3D9E00E94EB
:1015F000E4002097E1F30E943109F9CFCF92DF9206
:10160000EF92FF920F931F93CF93DF937C016A01B8
:10161000EB0100E010E00C151D0571F06991D70198
:10162000ED91FC910190F081E02DC7010995892B86
:1016300019F00F5F1F4FEFCFC801DF91CF911F91BE
:101640000F91FF90EF90DF90CF9008956115710595
:1016500081F0DB010D900020E9F7AD014150510907
:10166000461B570BDC01ED91FC910280F381E02DCC
:10167000099480E090E00895DC01ED91FC91DB019C
:1016800014964D915C9115976D917C910280F38138
:10169000E02D099469E673E00C94260B0F931F93D9
:1016A000CF93DF93EC010E943C0B8C01CE010E9492
:1016B0004A0B800F911FDF91CF911F910F910895D9
:1016C0000F931F93CF93DF93EC010E94260B8C01A5
:1016D000CE010E944A0B800F911FDF91CF911F9185
:1016E0000F910895FC01808191810C948D0ECF9310
:1016F000DF93EC0188819981009711F00E948D0E93
:10170000198218821D821C821B821A82DF91CF915E
:1017100008950F931F93CF93DF93EC018B016F5FBD
:101720007F4F888199810E941C0F009731F0998327
:1017300088831B830A8381E001C080E0DF91CF9121
:101740001F910F910895CF93DF93EC0188819981C8
:10175000892B29F08A819B818617970760F4CE0137
:101760000E94890B882341F08C819D81892B19F47B
:10177000E881F981108281E0DF91CF910895EF92A5
:10178000FF920F931F93CF93DF93EC017B018A01AC
:10179000BA010E94A30B811104C0CE010E94770BF5
:1017A00007C01D830C83B701888199810E94EF0FC8
:1017B000CE01DF91CF911F910F91FF90EF9008958F
:1017C000FC0111821082138212821582148261152B
:1017D000710559F0FB0101900020E9F7AF0141507C
:1017E0005109461B570B0C94BF0B08950F931F9381
:1017F000CF93DF938C01EB01FC01808191810097F5
:1018000099F0428153812C813D814217530750F05A
:10181000688179810E94EF0F8C819D81F801958309
:10182000848313C00E948D0E88819981F801918371
:1018300080838A819B81938382838C819D81958320
:101840008483198218821B821A821D821C82DF9176
:10185000CF911F910F910895CF93DF93EC01FB017E
:101860008617970761F0608171816115710529F014
:10187000448155810E94BF0B02C00E94770BCE01AC
:10188000DF91CF910895FC011182108213821282A0
:10189000158214820C942C0CCF93DF93EC018617E5
:1018A000970711F00E94F60BCE01DF91CF910895BA
:1018B000CF93DF93EC016115710561F0FB0101909D
:1018C0000020E9F7AF0141505109461B570B0E9418
:1018D000BF0B02C00E94770BCE01DF91CF9108951C
:1018E0000F931F93CF93DF93CDB7DEB7A1970FB6BA
:1018F000F894DEBF0FBECDBF8C01CB01BA01F80159
:1019000011821082138212821582148230E0AE019D
:101910004F5F5F4F0E941010BE016F5F7F4FC80185
:101920000E94580CA1960FB6F894DEBF0FBECDBF33
:10193000DF91CF911F910F910895EF92FF920F9336
:101940001F93CF93DF93EC017B010C811D81611507
:10195000710511F480E016C04115510591F0040F96
:10196000151FB8010E94A30B8823A1F32881398198
:101970008C819D81B701820F931F0E94EF0F1D8301
:101980000C8381E0DF91CF911F910F91FF90EF9039
:101990000895FB0144815581608171810C949D0CF7
:1019A0006115710559F0FB0101900020E9F7AF01C5
:1019B00041505109461B570B0C949D0C80E0089533
:1019C000CF93DF9300D0CDB7DEB769831A8241E0B1
:1019D00050E0BE016F5F7F4F0E949D0C0F900F90F3
:1019E000DF91CF910895CF93DF93EC01FB01448108
:1019F0005581608171810E949D0C811103C0CE01CF
:101A00000E94770BCE01DF91CF910895CF93DF93A2
:101A1000EC016115710569F0FB0101900020E9F707
:101A2000AF0141505109461B570B0E949D0C81117B
:101A300003C0CE010E94770BCE01DF91CF910895B4
:101A4000CF93DF93FC01848195814817590778F47F
:101A5000C081D181FB0160817181CE01840F951F0E
:101A60000E94F60F009719F08C1B9D0B02C08FEFA0
:101A70009FEFDF91CF91089540E050E00C94200D4E
:101A8000BF92CF92DF92EF92FF920F931F93CF936B
:101A9000DF936C017B01EA0189012417350720F4EB
:101AA0008D2FE901042F182F6BE673E0C6010E9409
:101AB000E00BD70114968D919C911597C817D90703
:101AC000C8F48017910708F48C01D701ED91FC91BF
:101AD0001197E00FF11FB08010826D917C916C0F17
:101AE0007D1FC6010E94580CD701ED91FC91E00FBB
:101AF000F11FB082C601DF91CF911F910F91FF902E
:101B0000EF90DF90CF90BF900895089597FB072E38
:101B100016F4009407D077FD09D00E94DB0D07FC76
:101B200005D03EF4909581959F4F089570956195ED
:101B30007F4F0895A1E21A2EAA1BBB1BFD010DC009
:101B4000AA1FBB1FEE1FFF1FA217B307E407F5076D
:101B500020F0A21BB30BE40BF50B661F771F881F49
:101B6000991F1A9469F760957095809590959B01DF
:101B7000AC01BD01CF010895052E97FB1EF4009422
:101B80000E94D30D57FD07D00E949A0D07FC03D089
:101B90004EF40C94D30D50954095309521953F4FC0
:101BA0004F4F5F4F089590958095709561957F4F49
:101BB0008F4F9F4F0895AA1BBB1B51E107C0AA1F5F
:101BC000BB1FA617B70710F0A61BB70B881F991FDE
:101BD0005A95A9F780959095BC01CD010895EE0F17
:101BE000FF1F0590F491E02D0994CF93DF9382308D
:101BF000910510F482E090E0E0911E05F0911F0540
:101C000020E030E0A0E0B0E0309739F14081518130
:101C100048175907B8F04817590771F48281938122
:101C2000109729F013969C938E9312972CC0909343
:101C30001F0580931E0527C02115310531F042177D
:101C4000530718F0A901DB0101C0EF019A01BD01A2
:101C5000DF010280F381E02DD7CF21153105F9F0A6
:101C6000281B390B2430310580F48A819B81611552
:101C7000710521F0FB019383828304C090931F05BB
:101C800080931E05FE01329644C0FE01E20FF31F51
:101C90008193919322503109398328833AC020914E
:101CA0001C0530911D05232B41F420910201309138
:101CB000030130931D0520931C05209100013091F4
:101CC00001012115310541F42DB73EB740910401C2
:101CD00050910501241B350BE0911C05F0911D0569
:101CE000E217F307A0F42E1B3F0B2817390778F0F3
:101CF000AC014E5F5F4F2417350748F04E0F5F1F52
:101D000050931D0540931C058193919302C0E0E020
:101D1000F0E0CF01DF91CF910895CF93DF9300974B
:101D200009F487C0FC01329713821282C0911E050C
:101D3000D0911F05209781F420813181280F391F10
:101D400080911C0590911D058217930779F5F093FA
:101D50001D05E0931C056DC0DE0120E030E0AE17EC
:101D6000BF0750F412964D915C9113979D01411558
:101D7000510509F1DA01F3CFB383A2834081518188
:101D8000840F951F8A179B0771F48D919C91119771
:101D9000840F951F02969183808312968D919C915A
:101DA0001397938382832115310529F4F0931F053E
:101DB000E0931E053EC0D9011396FC93EE93129753
:101DC0004D915D91A40FB51FEA17FB0779F480814F
:101DD0009181840F951F0296D90111969C938E9341
:101DE0008281938113969C938E931297E0E0F0E0AA
:101DF0008A819B81009719F0FE01EC01F9CFCE0199
:101E0000029628813981820F931F20911C05309101
:101E10001D052817390769F4309729F410921F051A
:101E200010921E0502C013821282D0931D05C0932A
:101E30001C05DF91CF910895A0E0B0E0E2E2FFE061
:101E40000C945110EC01CB01209719F40E94F50D70
:101E5000B8C0FE01E60FF71F9E0122503109E217BC
:101E6000F30708F4ACC0D9010D911C911197061726
:101E70001707B8F00530110508F49FC0A8014450B9
:101E800051094617570708F498C002501109061B5C
:101E9000170B019311936D937C93CF010E948D0ECC
:101EA0008CC05B01A01AB10A4E01800E911EA09158
:101EB0001E05B0911F05612C712C60E070E0109739
:101EC00009F449C0A815B905C9F5ED90FC90119722
:101ED000670142E0C40ED11CCA14DB0478F147014B
:101EE0008A189B08640142E0C40ED11C1296BC9073
:101EF00012971396AC91B5E0CB16D10440F0B282A4
:101F0000A38391828082D9018D939C9309C00E5F37
:101F10001F4F0E0D1F1DF90111830083EB2DFA2FAA
:101F20006115710531F0DB011396FC93EE93129766
:101F300044C0F0931F05E0931E053FC06D917C9156
:101F400011976616770608F43B01BD0112960D90B5
:101F5000BC91A02DB4CF60911C0570911D05681532
:101F60007905E9F468167906D0F4409100015091A2
:101F700001014115510541F44DB75EB7609104016F
:101F800070910501461B570BE417F507C0F4F09359
:101F90001D05E0931C05F901918380830EC00E940A
:101FA000F50D7C01009759F0A801BE010E94E60FD3
:101FB000CE010E948D0EC70104C0CE0102C080E098
:101FC00090E0CDB7DEB7EEE00C946D10FB01DC01C4
:101FD00002C001900D9241505040D8F70895FB0186
:101FE000DC0101900D920020E1F70895FB01519171
:101FF0005523A9F0BF01DC014D9145174111E1F7CF
:1020000059F4CD010190002049F04D914015411146
:10201000C9F3FB014111EFCF81E090E001970895F2
:102020002532310520F4223010F00C941B10FA01F7
:102030001082CA010895BB27FA01A62F6217710505
:1020400081059105330B30FB66F0AA27660F771FD9
:10205000881F991FAA1FA21710F0A21B6395385062
:10206000A9F7A05DAA3308F0A95DA19336F7B111D5
:10207000B1931082CA010C943D10DC01FC01672F62
:1020800071917723E1F7329704C07C916D9370834F
:102090006291AE17BF07C8F308952F923F924F92F7
:1020A0005F926F927F928F929F92AF92BF92CF92E8
:1020B000DF92EF92FF920F931F93CF93DF93CDB7F1
:1020C000DEB7CA1BDB0B0FB6F894DEBF0FBECDBF69
:1020D00009942A88398848885F846E847D848C843A
:1020E0009B84AA84B984C884DF80EE80FD800C8143
:1020F0001B81AA81B981CE0FD11D0FB6F894DEBF26
:102100000FBECDBFED01089510E0C8ECD0E004C0D3
:10211000FE010E94F10D2296CC3CD107C9F7F8943C
:02212000FFCFEF
:10212200000020058000436F666665652043686194
:1021320070656C0031333663686170656C00000055
:1021420000001B01FE0A8601FA006E016D01415476
:10215200002A2A54494D454F5554204F4343555266
:102162005245442E2054696D656F757420002077A6
:10217200617320696E73756666696369656E740062
:1021820073616975200072656164790041542B5254
:1021920053540041542B43574A41503D2200222CB4
:1021A20022000D0D0A000D0A0D0A4F4B0041542B5F
:1021B20043494653520041542B4349504D55583DD3
:1021C200004C696E6B206973206275696C6465648A
:1021D2000041542B43495053544152543D22002252
:1021E2002C00414C524541445920434F4E4E4543E9
:1021F20054004552524F52002A2A2A0041542B437E
:102202004950434C4F53450041542B434950534589
:102212004E443D003E0053454E44204F4B00415436
:102222002B43574D4F44453D00436F6E6E656374BB
:1022320020576966693A20004553503832363620B5
:1022420049732052656164792E004572726F722063
:10225200747279696E6720746F206A6F696E206983
:102262006E2061636365737320706F696E74200002
:102272002074727920616761696E2E2E2E00436F81
:102282006E6E656374656420696E20616363657355
:1022920073706F696E743A200049502F4D41433A72
:1022A20020004572726F72206F6E20636F6E6E65D2
:1022B200637420776974682045737038323636004B
:1022C20053656E6465642074637020646174610098
:1022D2006572726F7220696E2073656E642074631A
:1022E200702064617461004E6F7420636F6E6E655E
:1022F200637465642E20557365206F70656E546338
:1023020070536F636B657428686F73742C20706FE1
:10231200727429206265666F726500436F6E6E6526
:102322006374696F6E20636C6F7365642073756389
:102332006365737366756C6C7900436F6E6E65636B
:1023420074696F6E20636C6F73656420776974685B
:10235200206572726F72005443500047455420004A
:1023620020485454502F312E310D0A486F73743A5D
:1023720020003A000D0A436F6E6E656374696F6EDA
:102382003A20636C6F73650D0A0D0A00504F535467
:10239200200020485454502F312E300D0A00416342
:1023A200636570743A202A002F002A0D0A00436FD9
:1023B2006E74656E742D4C656E6774683A200043C6
:1023C2006F6E74656E742D547970653A2061707009
:1023D2006C69636174696F6E2F782D7777772D66DC
:1023E2006F726D2D75726C656E636F6465640D0A34
:1023F20000000000008209FE0A04091D090F09609D
:0E240200096E616E00696E66006F76660000FE
:107E0000112484B714BE81FFF0D085E080938100F7
:107E100082E08093C00088E18093C10086E0809377
:107E2000C20080E18093C4008EE0C9D0259A86E02C
:107E300020E33CEF91E0309385002093840096BBD3
:107E4000B09BFECF1D9AA8958150A9F7CC24DD24C4
:107E500088248394B5E0AB2EA1E19A2EF3E0BF2EE7
:107E6000A2D0813461F49FD0082FAFD0023811F036
:107E7000013811F484E001C083E08DD089C08234E0
:107E800011F484E103C0853419F485E0A6D080C0E4
:107E9000853579F488D0E82EFF2485D0082F10E0AE
:107EA000102F00270E291F29000F111F8ED06801E7
:107EB0006FC0863521F484E090D080E0DECF843638
:107EC00009F040C070D06FD0082F6DD080E0C81688
:107ED00080E7D80618F4F601B7BEE895C0E0D1E017
:107EE00062D089930C17E1F7F0E0CF16F0E7DF06D8
:107EF00018F0F601B7BEE89568D007B600FCFDCFD4
:107F0000A601A0E0B1E02C9130E011968C91119780
:107F100090E0982F8827822B932B1296FA010C0160
:107F200087BEE89511244E5F5F4FF1E0A038BF0790
:107F300051F7F601A7BEE89507B600FCFDCF97BE46
:107F4000E89526C08437B1F42ED02DD0F82E2BD052
:107F50003CD0F601EF2C8F010F5F1F4F84911BD097
:107F6000EA94F801C1F70894C11CD11CFA94CF0C13
:107F7000D11C0EC0853739F428D08EE10CD085E9AC
:107F80000AD08FE07ACF813511F488E018D01DD067
:107F900080E101D065CF982F8091C00085FFFCCF94
:107FA0009093C60008958091C00087FFFCCF809118
:107FB000C00084FD01C0A8958091C6000895E0E648
:107FC000F0E098E1908380830895EDDF803219F02E
:107FD00088E0F5DFFFCF84E1DECF1F93182FE3DFCA
:107FE0001150E9F7F2DF1F91089580E0E8DFEE27F6
:047FF000FF270994CA
:027FFE00040479
:0400000300007E007B
:00000001FF