:100000000C945E000C9486000C9486000C94860080
:100010000C9486000C9486000C9486000C94860048
:100020000C9486000C9486000C9486000C94860038
:100030000C9486000C9486000C9486000C94860028
:100040000C948F060C9486000C9486000C94860009
:100050000C9486000C9486000C9486000C94860008
:100060000C94A6020C948600000000080002010017
:100070000003040700000000000000000102040863
:100080001020408001020408102001020408102002
:10009000040404040404040402020202020203032E
:1000A0000303030300000000250028002B000000CC
:1000B0000000240027002A000501040211241FBEAD
:1000C000CFEFD8E0DEBFCDBF11E0A0E0B1E0E2E5C8
:1000D000F3E102C005900D92AE37B107D9F722E0E7
:1000E000AEE7B1E001C01D92AA37B207E1F710E018
:1000F000CCEBD0E004C02297FE010E949E09C83BD1
:10010000D107C9F70E9482080C94A7090C9400003B
:1001100041E060E084E991E00E945D046091AF01FC
:100120007091B0016F5F7F4F7093B0016093AF012A
:100130004AE050E084E991E00C94710940E060E00D
:1001400084E991E00E945D04E091AD01F091AE017F
:10015000EE0FFF1FE050FF4F6081718184E991E055
:100160000E94CF088091AD019091AE01843091053D
:1001700028F01092AE011092AD01E0CF019690935D
:10018000AE018093AD010895CF93DF9389E891E0AC
:100190000E9462068EE791E00E94620661E08DE0B7
:1001A0000E944908C0E0D0E08EE791E00E9462061C
:1001B000BE01809108010E94880764E170E080E040
:1001C00090E00E9408072A96C43081E0D80761F7C2
:1001D00060E08DE00E944908CFEFD0E08EE791E02B
:1001E0000E946206BE01809108010E94880764E1B6
:1001F00070E080E090E00E9408072A97CB3F8FEFE5
:10020000D80761F7DF91CF9108958F92AF92CF9287
:10021000EF920F931F921F9283E08F9397E0892EA6
:1002200026E0A22E35E0C32E44E0E42E00E021E0DB
:1002300042E06FE384E991E00E94AB0528E830E0FA
:100240004CEB52E060E070E089E891E00E945406D7
:100250000F900F900F902EE930E048EB5BE060E0EC
:1002600070E08EE791E00F91EF90CF90AF908F907C
:100270000C94540620E042E060E184E991E00E94A1
:1002800039060C949E008091E10190E02091E201FA
:10029000821B910908952091E2018091E1012817C4
:1002A00050F4E22FF0E0ED51FE4F808190E02F5F9F
:1002B0002093E20108958FEF9FEF0895E091E2010E
:1002C0008091E101E81730F4F0E0ED51FE4F8081BC
:1002D00090E008958FEF9FEF08950895CF92DF92F9
:1002E000EF92FF920F931F93CF93DF937C01CB018B
:1002F0008A012091BD01222389F0EB016B01C40E1C
:10030000D51ECC15DD0569F06991D701ED91FC9101
:100310000190F081E02DC7010995F3CF642F0E9471
:100320007D02C801DF91CF911F910F91FF90EF9057
:10033000DF90CF900895CF93DF931F92CDB7DEB7B4
:1003400069832091BD012223D1F02091BE0120328A
:1003500040F021E030E0FC013383228380E090E034
:1003600015C08091BF01E82FF0E0E054FE4F998165
:1003700090838F5F8093BF018093BE0105C061E0D1
:10038000CE0101960E947D0281E090E00F90DF9106
:10039000CF910895FC011382128248EE53E060E091
:1003A00070E0448355836683778382E591E091838F
:1003B000808308951092E2011092E1011092BF0132
:1003C0001092BE010C94080281E08093BD016093FD
:1003D000E0011092BF011092BE0108950F93062F05
:1003E00021E04091BE0160EC71E08091E0010E944B
:1003F00026021092BF011092BE011092BD010F9112
:10040000089561E00C94EE0181EB91E00C94CA0137
:100410001092700281E080936E0210926D0261E092
:1004200082E10E94490861E083E10E944908E9EB0A
:10043000F0E080818E7F808380818D7F808388E45F
:100440008093B80085E48093BC0008950F934132F7
:1004500008F04AC0909170029111FCCF92E0909305
:10046000700200936E029FEF909303021092480275
:1004700040934702FB0169E472E0DB019A2F961B6F
:10048000941718F491919D93F9CF10926F02909167
:100490006F02880F892B80936F0280916D028130EB
:1004A00061F410926D0280916F028093BB00809185
:1004B000BC0083FDF8CF85EC01C085EE8093BC00C5
:1004C000222321F0809170028230E1F380910302B7
:1004D0008F3F61F080910302803251F080910302DE
:1004E000803341F483E007C081E005C080E003C0B1
:1004F00082E001C084E00F910895613298F4209168
:100500007002243089F460932502FC0187E292E0B6
:10051000DC012A2F281B261718F421912D93F9CFDF
:1005200080E0089581E0089582E0089585ED80934C
:10053000BC008091BC0084FDFCCF10927002089535
:1005400085EC8093BC001092700208951F920F9268
:100550000FB60F9211242F933F934F935F936F9396
:100560007F938F939F93AF93BF93EF93FF9380916C
:10057000B900887F803609F49EC078F5883209F486
:100580005DC090F4803109F456C038F4882309F432
:10059000F5C0883009F44FC0F5C0883109F44EC069
:1005A000803209F45FC0EEC0803409F46AC058F4A8
:1005B000803309F457C0883309F0E4C08093030204
:1005C0000E94A002DFC0803509F44FC0883509F4CD
:1005D0005DC0883409F0D6C0D3C0883909F4C4C0DE
:1005E000A8F4883709F467C038F4883609F463C082
:1005F000803709F460C0C6C0883809F4B5C08039B6
:1006000009F45FC0803809F0BDC05BC0803B09F4CD
:1006100083C038F4803A09F466C0883A09F47CC093
:10062000B1C0803C09F4A4C0883C09F4A1C0883B57
:1006300009F487C0A7C080916F0210C09091480252
:1006400080914702981770F5E091480281E08E0F83
:1006500080934802F0E0E75BFD4F80818093BB0010
:1006600085EC83C0809303028BC0E091480281E057
:100670008E0F809348028091BB00F0E0E75BFD4F56
:10068000808390914802809147026BC0E0914802BC
:1006900081E08E0F809348028091BB00F0E0E75B21
:1006A000FD4F808380916E0281116AC081E080934A
:1006B0006D0284EA5EC083E08093700210920402AF
:1006C000CFCF80910402803208F04EC0E091040246
:1006D00081E08E0F809304028091BB00F0E0EB5F1D
:1006E000FD4F8083BDCF0E94A00280910402803222
:1006F00030F4E0910402F0E0EB5FFD4F1082609176
:10070000040270E0E0916902F0916A0285E092E0F3
:1007100009951092040236C084E080937002109212
:10072000260210922502E0916B02F0916C0209956D
:1007300080912502811105C081E0809325021092ED
:100740002702E091260281E08E0F80932602F0E0DE
:10075000E95DFD4F80818093BB00909126028091DE
:100760002502981708F47CCF85E88093BC000AC066
:1007700085EC8093BC001092700204C010920302BA
:100780000E949602FF91EF91BF91AF919F918F913F
:100790007F916F915F914F913F912F910F900FBE7D
:1007A0000F901F901895FC0112828FEF81831082A9
:1007B00013820895FC018381882331F0611103C005
:1007C0008FEF818308951182089581EB91E00E945B
:1007D000E40181EB91E00E94010291E0811190E03F
:1007E000892F0895CF93DF93EC016A8381EB91E029
:1007F0000E94DA016A81CE010E94E5038B8388237F
:1008000029F081EB91E00E944B0188838B8190E07D
:10081000DF91CF910895CF93DF93EC018B818823F3
:10082000A9F089818095862388836A8181EB91E094
:100830000E94E401688181EB91E00E949B0181EBC1
:1008400091E00E940102282F30E002C020E030E059
:1008500081E090E0232B11F080E090E0DF91CF91D8
:10086000089508950895DC01ED91FC910284F385CB
:10087000E02D41E0099581E090E00895FC011382AC
:10088000128222E631E0318320830895DC01ED916C
:10089000FC910084F185E02D6FEF0994DC01ED916E
:1008A000FC910284F385E02D40E0099461E00E9410
:1008B0004E0480ED97E00C944207CF93DF93CDB7C1
:1008C000DEB728970FB6F894DEBF0FBECDBF1D82EE
:1008D00020E42E8334E13F8334E5388719822A836C
:1008E00020E12B8320E52C83FC012781421710F0A7
:1008F0004FEF420FFC01308550E0FE01E40FF51F81
:10090000303121F4243011F4218101C02581260FDA
:100910002068622F28960FB6F894DEBF0FBECDBFB9
:10092000DF91CF910C944E04FC016581262F246049
:1009300025836C600C944E04CF93DF93EC0142301E
:1009400018F08C8188608C834F836887222329F07C
:10095000413019F48C8184608C8364E670E080E01F
:1009600090E00E9408076C8164FD31C0E881F98144
:100970000284F385E02D42E063E0CE01099584E92D
:1009800091E10E944207E881F9810284F385E02D1C
:1009900042E063E0CE01099586E990E00E944207BB
:1009A000E881F9810284F385E02D42E063E0CE0125
:1009B000099586E990E00E944207E881F981028466
:1009C000F385E02D42E062E0CE01099516C0606239
:1009D000CE010E944E0484E991E10E9442076C819D
:1009E0006062CE010E944E0486E990E00E944207B8
:1009F0006C816062CE010E944E0486E990E00E9404
:100A000042076C816062CE010E944E048CE390E04C
:100A10000E94420784E08D83CE010E949404CE019F
:100A20000E94560482E08E8366E0CE010E944E044E
:100A3000CE01DF91CF910C94460421E001C0220F3A
:100A40006A95EAF7DC011C962C931C971A965C9326
:100A50004E931997ED91FC910084F185E02D60E0B3
:100A60000994FC012485222399F0818592850097C1
:100A700019F4611105C006C0019721F4611102C08B
:100A8000258701C015866585CF010E960C940B0451
:100A900008950F931F93CF93DF93EC018C01025FB6
:100AA0001F4F6B85C8010E94F203019761F461E05A
:100AB000C8010E94DA031C8260E0C8010E940B0496
:100AC00081E090E002C080E090E0DF91CF911F9143
:100AD0000F9108958F92AF92CF92EF920F93CF9391
:100AE000DF93CDB7DEB7FC016387148615861286C7
:100AF000118681E0982F01C0990F4A95EAF7928BF1
:100B0000982F01C0990F2A95EAF7938B982F01C06F
:100B1000990F0A95EAF7948B982F01C0990FEA94E0
:100B2000EAF7958B982F01C0990FCA94EAF7968B34
:100B3000982F01C0990FAA94EAF7978B01C0880FEC
:100B40008A94EAF7808FDF91CF910F91EF90CF9049
:100B5000AF908F9008954F925F926F927F928F9295
:100B6000AF92CF92EF920F931F93CF93DF9300D06A
:100B70001F92CDB7DEB73C011A894B885C882B8366
:100B80004A8369830E943E0482E791E0F3019183E6
:100B90008083C3010E960E94D3032B814A81698111
:100BA000C3010E946A05A201612FC3010F900F903B
:100BB0000F90DF91CF911F910F91EF90CF90AF9059
:100BC0008F907F906F905F904F900C941D05FF92D7
:100BD0000F931F93CF93DF93EC01F62E8C01025FEE
:100BE0001F4F6A896F29C8010E940B046A896095AA
:100BF0006F21C801DF91CF911F910F91FF900C944D
:100C00000B0420E030E050E060FF05C0FC01E20F83
:100C1000F31F7589572B66952F5F3F4F24303105A1
:100C200099F7413011F4FC014489FC016585652B7D
:100C3000642B0C94E7050F931F93CF93DF93EC0184
:100C4000142F062F0F70423011F440E00AC070E0FC
:100C500084E0759567958A95E1F7CE010E940106BB
:100C6000412F602FCE01DF91CF911F910F910C94F6
:100C700001060F931F93CF93DF9300D01F92CDB740
:100C8000DEB78C012B834A8369830E9449052B813F
:100C90004A816981C8010F900F900F90DF91CF9129
:100CA0001F910F910C949C04FC0181E080831182C0
:100CB000128213821482458356836783708732873A
:100CC000218708950F931F93CF93DF93EC018881C1
:100CD000882301F10E94D90609811A812B813C8168
:100CE000601B710B820B930B0D811E812F81388548
:100CF000601771078207930768F00E94D90669831D
:100D00007A838B839C83E985FA85DF91CF911F914C
:100D10000F910994DF91CF911F910F9108951F9228
:100D20000F920FB60F9211242F933F938F939F939F
:100D3000AF93BF938091720290917302A09174025D
:100D4000B09175023091710223E0230F2D3720F40A
:100D50000196A11DB11D05C026E8230F0296A11D15
:100D6000B11D209371028093720290937302A0933D
:100D70007402B09375028091760290917702A091EF
:100D80007802B09179020196A11DB11D809376027F
:100D900090937702A0937802B0937902BF91AF91BC
:100DA0009F918F913F912F910F900FBE0F901F90A9
:100DB00018952FB7F8946091720270917302809128
:100DC0007402909175022FBF08953FB7F8948091F7
:100DD000760290917702A0917802B091790226B5BF
:100DE000A89B05C02F3F19F00196A11DB11D3FBF63
:100DF0006627782F892F9A2F620F711D811D911DF3
:100E000042E0660F771F881F991F4A95D1F7089512
:100E10008F929F92AF92BF92CF92DF92EF92FF920A
:100E20006B017C010E94E5064B015C01C114D104F9
:100E3000E104F104F1F00E9479090E94E5066819C5
:100E400079098A099B09683E73408105910570F311
:100E500021E0C21AD108E108F10888EE880E83E08B
:100E6000981EA11CB11CC114D104E104F10429F79E
:100E7000DDCFFF90EF90DF90CF90BF90AF909F902D
:100E80008F9008958230910538F0880F991F880F50
:100E9000991F05970197F1F70895789484B58260BA
:100EA00084BD84B5816084BD85B5826085BD85B50E
:100EB000816085BDEEE6F0E0808181608083E1E8BD
:100EC000F0E01082808182608083808181608083F5
:100ED000E0E8F0E0808181608083E1EBF0E08081F8
:100EE00084608083E0EBF0E0808181608083EAE7CA
:100EF000F0E0808184608083808182608083808153
:100F0000816080838081806880831092C100089511
:100F10001F93CF93DF93182FEB0161E00E9410081D
:100F2000209711F460E004C0CF3FD10539F461E0AF
:100F3000812FDF91CF911F910C944908E12FF0E0B0
:100F4000E859FF4FE491E330F9F048F4E130B9F0AB
:100F5000E230A1F584B5806284BDC8BD34C0E730FD
:100F6000E9F0E83019F1E43049F5809180008062C1
:100F700080938000D0938B00C0938A0024C084B5F6
:100F8000806884BDC7BD1FC0809180008068809349
:100F90008000D0938900C093880015C08091B00074
:100FA00080688093B000C093B3000DC08091B00002
:100FB00080628093B000C093B40005C0C038D105F2
:100FC0000CF0B5CFAFCFDF91CF911F910895833053
:100FD00081F028F4813099F08230A1F008958730B3
:100FE000A9F08830B9F08430D1F4809180008F7DF1
:100FF00003C0809180008F7780938000089584B52E
:101000008F7702C084B58F7D84BD08958091B00034
:101010008F7703C08091B0008F7D8093B0000895DA
:10102000CF93DF9390E0FC01E458FF4F2491FC0143
:10103000E057FF4F8491882349F190E0880F991F72
:10104000FC01E255FF4FA591B4918C559F4FFC01D7
:10105000C591D4919FB7611108C0F8948C912095E7
:1010600082238C93888182230AC0623051F4F894E1
:101070008C91322F309583238C938881822B8883A7
:1010800004C0F8948C91822B8C939FBFDF91CF91F9
:1010900008950F931F93CF93DF931F92CDB7DEB7C1
:1010A000282F30E0F901E859FF4F8491F901E45805
:1010B000FF4F1491F901E057FF4F04910023C9F04D
:1010C000882321F069830E94E7076981E02FF0E01F
:1010D000EE0FFF1FEC55FF4FA591B4919FB7F89409
:1010E0008C91611103C01095812301C0812B8C93D9
:1010F0009FBF0F90DF91CF911F910F9108950E9494
:10110000A20908950E944D070E9481080E943A0199
:10111000C0E0D0E00E94C4002097E1F30E940000EC
:10112000F9CFCF92DF92EF92FF920F931F93CF935D
:10113000DF937C016A01EB0100E010E00C151D0556
:1011400071F06991D701ED91FC910190F081E02D52
:10115000C7010995892B19F00F5F1F4FEFCFC80109
:10116000DF91CF911F910F91FF90EF90DF90CF9083
:1011700008956115710581F0DB010D900020E9F7FC
:10118000AD0141505109461B570BDC01ED91FC911B
:101190000280F381E02D099480E090E008950C94A2
:1011A000B908DC01ED91FC910190F081E02D0994EA
:1011B0008F929F92AF92BF92DF92EF92FF920F9326
:1011C0001F93CF93DF93CDB7DEB7A1970FB6F894F7
:1011D000DEBF0FBECDBF7C01F42FD52ECB0119A2EF
:1011E000223008F42AE08E010F5D1F4F822E912CD1
:1011F000A12CB12C6F2F7D2DA50194010E947A099D
:10120000F22FD32ECA01015011096A3014F4E0E321
:1012100001C0E7E3E60FD801EC93232B242B252B09
:1012200049F7B801C7010E94B908A1960FB6F89412
:10123000DEBF0FBECDBFDF91CF911F910F91FF9009
:10124000EF90DF90BF90AF909F908F900895CF92D6
:10125000DF92EF92FF920F931F93CF93DF93EC01F6
:101260006A017B012115310579F4E881F98101904A
:10127000F081E02D642FDF91CF911F910F91FF90AE
:10128000EF90DF90CF9009942A303105E9F477FF91
:101290001AC06DE20E94D1088C0144275527BA017B
:1012A0004C195D096E097F092AE0CE010E94D80819
:1012B000800F911FDF91CF911F910F91FF90EF90C1
:1012C000DF90CF9008952AE0B701A601CE01DF910B
:1012D000CF911F910F91FF90EF90DF90CF900C94E2
:1012E000D8089A01AB01662757FD6095762F0C94BC
:1012F00027090895A1E21A2EAA1BBB1BFD010DC0F0
:10130000AA1FBB1FEE1FFF1FA217B307E407F507B5
:1013100020F0A21BB30BE40BF50B661F771F881F91
:10132000991F1A9469F760957095809590959B0127
:10133000AC01BD01CF010895EE0FFF1F0590F491A0
:10134000E02D099481E090E0F8940C94A709F894BA
:02135000FFCFCD
:101352000A011B012C013D010900436865636B20F2
:101362006974206F75742E2E2E20004920686176D4
:10137200652033207468726561647300676F696EFB
:1013820067206174206F6E63652E2E2E0042697491
:101392006368657321203A44202020202000000049
:1013A20000009B016E0143014B015E016D010000D3
:1013B2000000330491089C04310432047F080000C9
:0E13C20000003304910839061D0531051B0695
:107E0000112484B714BE81FFF0D085E080938100F7
:107E100082E08093C00088E18093C10086E0809377
:107E2000C20080E18093C4008EE0C9D0259A86E02C
:107E300020E33CEF91E0309385002093840096BBD3
:107E4000B09BFECF1D9AA8958150A9F7CC24DD24C4
:107E500088248394B5E0AB2EA1E19A2EF3E0BF2EE7
:107E6000A2D0813461F49FD0082FAFD0023811F036
:107E7000013811F484E001C083E08DD089C08234E0
:107E800011F484E103C0853419F485E0A6D080C0E4
:107E9000853579F488D0E82EFF2485D0082F10E0AE
:107EA000102F00270E291F29000F111F8ED06801E7
:107EB0006FC0863521F484E090D080E0DECF843638
:107EC00009F040C070D06FD0082F6DD080E0C81688
:107ED00080E7D80618F4F601B7BEE895C0E0D1E017
:107EE00062D089930C17E1F7F0E0CF16F0E7DF06D8
:107EF00018F0F601B7BEE89568D007B600FCFDCFD4
:107F0000A601A0E0B1E02C9130E011968C91119780
:107F100090E0982F8827822B932B1296FA010C0160
:107F200087BEE89511244E5F5F4FF1E0A038BF0790
:107F300051F7F601A7BEE89507B600FCFDCF97BE46
:107F4000E89526C08437B1F42ED02DD0F82E2BD052
:107F50003CD0F601EF2C8F010F5F1F4F84911BD097
:107F6000EA94F801C1F70894C11CD11CFA94CF0C13
:107F7000D11C0EC0853739F428D08EE10CD085E9AC
:107F80000AD08FE07ACF813511F488E018D01DD067
:107F900080E101D065CF982F8091C00085FFFCCF94
:107FA0009093C60008958091C00087FFFCCF809118
:107FB000C00084FD01C0A8958091C6000895E0E648
:107FC000F0E098E1908380830895EDDF803219F02E
:107FD00088E0F5DFFFCF84E1DECF1F93182FE3DFCA
:107FE0001150E9F7F2DF1F91089580E0E8DFEE27F6
:047FF000FF270994CA
:027FFE00040479
:0400000300007E007B
:00000001FF