:1000000015C1000043C1000041C100003FC1000014
:100010003DC100003BC1000039C1000037C10000F4
:1000200035C1000033C1000031C100002FC1000004
:100030002DC100002BC1000029C1000027C1000014
:1000400025C1000023C1000021C100001FC1000024
:100050001DC100001BC1000019C1000024C3000025
:1000600015C100007BC60000AFC600000FC1000034
:100070000DC100000BC1000009C1000007C1000054
:1000800005C1000003C1000001C10000FFC0000065
:10009000FDC00000FBC00000F9C00000F7C0000078
:1000A000F5C00000F3C00000F1C00000EFC0000088
:1000B000EDC00000EBC00000E9C00000E7C0000098
:1000C000E5C00000E3C00000E1C00000DFC00000A8
:1000D000DDC00000DBC00000D9C00000D7C00000B8
:1000E000D5C000009604990488048C049204D004BE
:1000F0009D04A104A704AB04AF04B504B904BD0476
:10010000D004C304C704CB0400000A0B02090C0D81
:100110000E080703040100000000000000000000BA
:1001200000000000000000000000000000000000CF
:10013000000000001211100000000000000000008C
:1001400000000000000000000000000000000102AC
:1001500010202008081020401020408002010201D9
:100160000804020101020408102040808040201091
:1001700008040201800402018040201008040201EA
:100180000804020101020408102040800102040852
:10019000102040800505050507050808080802022B
:1001A00002020A0A08080404040401010101010111
:1001B00001010303030303030303040707070C0CF4
:1001C0000C0C0C0C0C0C02020202060606060606BB
:1001D00006060B0B0B0B0B0B0B0B00002000230078
:1001E000260029002C002F0032000001000003012E
:1001F0000601090100002200250028002B002E0026
:100200003100340002010000050108010B0100006B
:100210002100240027002A002D00300033000101B6
:100220000000040107010A011C03160711241FBE68
:10023000CFEFD1E2DEBFCDBF00E00CBF12E0A0E007
:10024000B2E0ECE1F7E100E00BBF02C007900D92D5
:10025000A237B107D9F723E0A2E7B2E001C01D92AF
:10026000AC33B207E1F712E0CCE2D2E000E006C026
:1002700022970109FE010BBF0E94880BC832D107EB
:1002800080E00807A9F716D60C948C0BB9CECF9353
:10029000DF9326E040E855E260E070E08FE992E00D
:1002A000FDD461E089E07DD360E089E0B3D361E013
:1002B00088E077D361E088E0ADD360E080911802F8
:1002C00070D361E0809114026CD3C6E1D2E061E0AA
:1002D000888167D360E088819DD364E670E080E028
:1002E00090E04ED280911C0290911D0220911A0242
:1002F00030911B02820F931F90931D0280931C026A
:10030000DF91CF9108954F925F926F927F928F927B
:100310009F92AF92BF92CF92DF92EF92FF920F9394
:100320001F93CF93DF9380E090E0A8EEB1E4809339
:10033000040290930502A0930602B0930702C4E161
:10034000D2E061E0888166D308E112E0F8018081A3
:10035000B0D2BC01882777FD8095982F0E94450A6E
:1003600060937A0270937B0280937C0290937D026B
:10037000F80180819ED2BC01882777FD8095982F57
:100380000E94450A60937A0270937B0280937C02FC
:1003900090937D0260E088813DD380900002909030
:1003A0000102A0900202B090030220917A023091E3
:1003B0007B0240917C0250917D02C501B4010E94F4
:1003C000F90A20E030E040E85AE30E94F90A6B01A4
:1003D0007C01609376027093770280937802909309
:1003E000790260911C0270911D02882777FD80952B
:1003F000982F0E94450A9B01AC01C701B6010E94DB
:10040000F90A2B013C01A7019601C501B40139D7B6
:100410009B01AC01C301B2019DD76B017C016091CE
:100420001A0270911B02882777FD8095982F0E94F1
:10043000450A9B01AC01C701B60123D76093720244
:100440007093730280937402909375022091080256
:100450003091090240910A0250910B020E94F90A60
:100460009B01AC0160E070E08AE794E473D76B0114
:100470007C0160938402709385028093860290933E
:10048000870220E030E048EC51E460910402709172
:1004900005028091060290910702F3D620910C028A
:1004A00030910D0240910E0250910F020E94F90A04
:1004B00020E030E040E85FE3E5D69B01AC01C701F6
:1004C000B60148D76B017C01609380027093810272
:1004D000809382029093830220E030E04AE754E464
:1004E000609110027091110280911202909113029A
:1004F0000E94F90A9B01AC01C701B6010E94F90AEA
:1005000091D770937F0260937E02DF91CF911F910C
:100510000F91FF90EF90DF90CF90BF90AF909F90A2
:100520008F907F906F905F904F9008956FE172E091
:100530008FE992E007D54091720250917302609169
:1005400074027091750222E030E08FE992E087D664
:1005500064E272E08FE992E0F5D44091800250911C
:100560008102609182027091830222E030E08FE983
:1005700092E075D66AE272E08FE992E0E3D460918E
:100580007E0270917F024AE050E08FE992E089D5C7
:1005900064E372E08FE992E0D5D440910402509177
:1005A0000502609106027091070222E030E08FE9B7
:1005B00092E055D66BE372E08FE992E0CED460E42E
:1005C00072E08FE992E0BED44091760250917702BA
:1005D000609178027091790222E030E08FE992E038
:1005E0003FD66FE172E08FE992E0ACD440917202A5
:1005F00050917302609174027091750222E030E0B4
:100600008FE992E02DD6409184025091850260914D
:1006100086027091870222E030E08FE992E01FD6D7
:1006200068E472E08FE992E098C46DDE7FDF68E8ED
:1006300073E180E090E0A4C06AE088E892E012C034
:10064000FC0113861586148627E030E0DF01A20F37
:10065000B31F13961C922115310519F02150310951
:10066000F5CF08951F93CF93DF93EC01162F60E031
:10067000812F97D1612F70E0FB01E25BFE4FE49187
:10068000E883FB01EC56FE4FE491F0E0EE0FFF1F14
:10069000E652FE4F859194919A838983CE01DF9132
:1006A000CF911F91CDCF1F920F920FB60F921124B1
:1006B0002F933F938F939F93AF93BF938091970214
:1006C00090919802A0919902B0919A02309196026D
:1006D00023E0230F2D3720F40196A11DB11D05C085
:1006E00026E8230F0296A11DB11D20939602809348
:1006F000970290939802A0939902B0939A028091E6
:100700009B0290919C02A0919D02B0919E02019645
:10071000A11DB11D80939B0290939C02A0939D020A
:10072000B0939E02BF91AF919F918F913F912F9176
:100730000F900FBE0F901F9018953FB7F8948091BF
:100740009B0290919C02A0919D02B0919E0226B5C1
:10075000A89B05C02F3F19F00196A11DB11D3FBFF9
:100760006627782F892F9A2F620F711D811D911D89
:1007700042E0660F771F881F991F4A95D1F70895A9
:100780008F929F92AF92BF92CF92DF92EF92FF92A1
:100790006B017C01D2DF4B015C01C114D104E10487
:1007A000F104E1F06DD5C9DF681979098A099B095F
:1007B000683E73408105910580F321E0C21AD1089B
:1007C000E108F10888EE880E83E0981EA11CB11C98
:1007D000C114D104E104F10431F7DFCFFF90EF90B1
:1007E000DF90CF90BF90AF909F908F9008957894B6
:1007F00084B5826084BD84B5816084BD85B5826026
:1008000085BD85B5816085BDEEE6F0E080818160C3
:100810008083E1E8F0E010828081826080838081C3
:1008200081608083E0E8F0E0808181608083E1EB9B
:10083000F0E0808184608083E0EBF0E08081816083
:100840008083E1E9F0E08081826080838081816043
:100850008083E0E9F0E0808181608083E1EAF0E07C
:10086000808182608083808181608083E0EAF0E023
:10087000808181608083E1E2F1E080818260808319
:10088000808181608083E0E2F1E08081816080830B
:10089000EAE7F0E0808184608083808182608083E9
:1008A0008081816080838081806880831092C10014
:1008B0000895863308F0865320917B00982F987016
:1008C000277F922B90937B00877020911E0290E4EB
:1008D000299F90011124822B80937C0080917A00C3
:1008E000806480937A0080917A0086FDFCCF8091AD
:1008F00078002091790090E0922B089590E0FC011F
:100900003197E231F10508F04BC0EE58FF4FFAC6BF
:10091000809180008F7703C0809180008F7D8093CD
:100920008000089580918000877FF9CF84B58F770C
:1009300002C084B58F7D84BD08958091B0008F770B
:1009400003C08091B0008F7D8093B00008958091A6
:1009500090008F7707C0809190008F7D03C08091B9
:100960009000877F8093900008958091A0008F77FA
:1009700007C08091A0008F7D03C08091A000877F79
:100980008093A0000895809120018F7707C0809107
:1009900020018F7D03C080912001877F80932001FB
:1009A0000895CF93DF9390E0FC01E25BFE4F24912A
:1009B000FC01EC56FE4F8491882349F190E0880FAA
:1009C000991FFC01E25FFD4FA591B4918C509E4FA1
:1009D000FC01C591D4919FB7611108C0F8948C9126
:1009E000209582238C93888182230AC0623051F43F
:1009F000F8948C91322F309583238C938881822BAD
:100A0000888304C0F8948C91822B8C939FBFDF91D4
:100A1000CF9108950F931F93CF93DF931F92CDB77C
:100A2000DEB7282F30E0F901E85FFE4F8491F9012D
:100A3000E25BFE4F1491F901EC56FE4F0491002346
:100A4000C1F0882319F0698359DF6981E02FF0E054
:100A5000EE0FFF1FEC50FE4FA591B4919FB7F89495
:100A60008C91611103C01095812301C0812B8C935F
:100A70009FBF0F90DF91CF911F910F910895FC01BF
:100A8000818D228D90E0805C9F4F821B91098F7336
:100A900099270895FC01918D828D981731F0828DF0
:100AA000E80FF11D858D90E008958FEF9FEF089579
:100AB000FC01918D828D981761F0828DDF01A80F66
:100AC000B11D5D968C91928D9F5F9F73928F90E088
:100AD00008958FEF9FEF08958DE097E0892B39F00F
:100AE00080E090E0892B19F098D1811125C080E039
:100AF00090E0892B41F080E090E0892B21F00E946A
:100B0000000081111CC080E090E0892B41F080E062
:100B100090E0892B21F00E940000811113C080E039
:100B200090E0892BA1F080E090E0892B81F00E9479
:100B3000000081110AC008950E940000D8CF0E94D1
:100B40000000E1CF0E940000EACF0C94000008955D
:100B5000FC01848DDF01A80FB11DA35ABF4F2C915A
:100B6000848D90E001968F739927848FA689B78929
:100B70002C93A089B1898C9180648C93938D848D02
:100B8000981306C00288F389E02D80818F7D8083D1
:100B90000895CF93DF93EC01888D8823C1F0EA8913
:100BA000FB89808185FD05C0A889B9898C9186FD66
:100BB0000EC00FB607FCF5CF808185FFF2CFA88964
:100BC000B9898C9185FFEDCFCE01C2DFE8CFDF91EF
:100BD000CF910895CF92DF92FF920F931F93CF93FF
:100BE000DF931F92CDB7DEB76C0181E0D601589636
:100BF0008C9358975B969C915B975C968C915C97D5
:100C0000981307C05096ED91FC915197808185FD16
:100C10002DC0F601038D10E00F5F1F4F0F731127DA
:100C2000F02EF601848DF81210C00FB607FCF9CF34
:100C3000D6015096ED91FC915197808185FFF1CFBF
:100C4000C601698385DF6981ECCF838DE80FF11DD3
:100C5000E35AFF4F6083D6015B960C935B975296E5
:100C6000ED91FC915397808180620CC0D60156961D
:100C7000ED91FC91579760835096ED91FC915197BF
:100C800080818064808381E090E00F90DF91CF913C
:100C90001F910F91FF90DF90CF900895BF92CF9258
:100CA000DF92EF92FF92CF93DF93EC016A017B0119
:100CB000B22EE889F98982E08083411581EE5807D8
:100CC0006105710599F060E079E08DE390E0A7019E
:100CD0009601F6D42150310941095109569547959D
:100CE00037952795211580E1380790F0E889F98933
:100CF000108260E874E88EE190E0A7019601E0D4EC
:100D00002150310941095109569547953795279545
:100D1000EC85FD853083EE85FF852083188EEC8978
:100D2000FD89B082EA89FB89808180618083EA89BC
:100D3000FB89808188608083EA89FB898081806863
:100D40008083EA89FB8980818F7D8083DF91CF91C9
:100D5000FF90EF90DF90CF90BF9008951F920F9279
:100D60000FB60F9211240BB60F922F938F939F9370
:100D7000EF93FF93E091AF02F091B0028081E09198
:100D8000B502F091B60282FD12C090818091B80246
:100D90008F5F8F732091B902821751F0E091B802F2
:100DA000F0E0E156FD4F958F8093B80201C080813D
:100DB000FF91EF919F918F912F910F900BBE0F900C
:100DC0000FBE0F901F9018951F920F920FB60F92A3
:100DD00011240BB60F922F933F934F935F936F9312
:100DE0007F938F939F93AF93BF93EF93FF938FE97D
:100DF00092E0AEDEFF91EF91BF91AF919F918F9105
:100E00007F916F915F914F913F912F910F900BBE0A
:100E10000F900FBE0F901F9018958FE992E02FDE74
:100E200021E0892B09F420E0822F08951092A2027C
:100E30001092A10288EE93E0A0E0B0E08093A302BC
:100E40009093A402A093A502B093A60284E592E039
:100E50009093A00280939F0285EC90E09093AC0267
:100E60008093AB0284EC90E09093AE028093AD024D
:100E700080EC90E09093B0028093AF0281EC90E020
:100E80009093B2028093B10282EC90E09093B4020E
:100E90008093B30286EC90E09093B6028093B50203
:100EA0001092B8021092B9021092BA021092BB02CC
:100EB000089508959CDCFDDFEAD9CCE6D5E0B5DBEA
:100EC0002097E9F309DEFBCFCF92DF92EF92FF92FA
:100ED0000F931F93CF93DF937C016A01EB0100E036
:100EE00010E00C151D0571F06991D701ED91FC9191
:100EF0000190F081E02DC7011995892B19F00F5F42
:100F00001F4FEFCFC801DF91CF911F910F91FF903D
:100F1000EF90DF90CF9008956115710581F0DB01AE
:100F20000D900020E9F7AD0141505109461B570BC8
:100F3000DC01ED91FC910280F381E02D199480E0B9
:100F400090E00895E9CFDC01ED91FC910190F081F2
:100F5000E02D199460E672E0DFCF0F931F93CF93DB
:100F6000DF93EC01D9DF8C01CE01F4DF800F911FFC
:100F7000DF91CF911F910F9108958F929F92AF9221
:100F8000BF92DF92EF92FF920F931F93CF93DF9365
:100F9000CDB7DEB7A1970FB6F894DEBF0FBECDBFB9
:100FA0007C01F42FD52ECB0119A2223008F42AE0BF
:100FB0008E010F5D1F4F822E912CA12CB12C6F2F13
:100FC0007D2DA50194017CD3F22FD32ECA010150AF
:100FD00011096A3014F4E0E301C0E7E3E60FD80139
:100FE000EC93232B242B252B51F7B801C70194DF59
:100FF000A1960FB6F894DEBF0FBECDBFDF91CF91A3
:101000001F910F91FF90EF90DF90BF90AF909F9056
:101010008F900895CF92DF92EF92FF920F931F93DC
:10102000CF93DF93EC016A017B012115310579F43F
:10103000E881F9810190F081E02D642FDF91CF915B
:101040001F910F91FF90EF90DF90CF9019942A306D
:101050003105D9F477FF18C06DE275DF8C014427A4
:101060005527BA014C195D096E097F092AE0CE01A6
:1010700084DF800F911FDF91CF911F910F91FF901F
:10108000EF90DF90CF9008952AE0B701A601CE013E
:10109000DF91CF911F910F91FF90EF90DF90CF9054
:1010A0006CCF9A01AB01662757FD6095762FB2CFC2
:1010B0004F925F926F927F928F929F92AF92BF9268
:1010C000CF92DF92EF92FF920F931F93CF93DF9314
:1010D000EC016A017B01B22E9A01AB01C701B60196
:1010E000EBD2882319F063E672E024C026013701B1
:1010F000E89477F82FEF3FEF4FE75FE7C301B201C6
:10110000DBD281110CC02FEF3FEF4FE75FE7C30148
:10111000B2011CD118161CF467E672E00BC02FEF69
:101120003FEF4FE75FE4C701B6015FD21816A4F4A2
:101130006BE672E0CE01DF91CF911F910F91FF908E
:10114000EF90DF90CF90BF90AF909F908F907F9067
:101150006F905F904F90E0CE2FEF3FEF4FE75FEC47
:10116000C701B601F3D087FDE3CF20E030E0A9014D
:10117000C701B601EBD087FF09C06DE2CE01E3DE07
:101180008C01F7FAF094F7F8F09402C000E010E058
:10119000A12C60E070E080E09FE3AB1439F020E028
:1011A00030E040E251E4D6D0A394F7CF9B01AC01EC
:1011B000C701B60167D06B017C0139D12B013C011D
:1011C00062D19B01AC01C701B6015BD06B017C0110
:1011D0002AE0B301A201CE01D0DE080F191FBB2007
:1011E00031F06FE672E0CE0197DE080F191F7B2CFD
:1011F000772019F120E030E040E251E4C701B60168
:10120000F8D16B017C010ED14B01AA2497FCA0946C
:10121000BA2C2AE030E0B501A401CE01FBDE080FB4
:10122000191FC501B40131D19B01AC01C701B60141
:1012300028D06B017C017A94DBCFC801DF91CF917C
:101240001F910F91FF90EF90DF90CF90BF90AF90E4
:101250009F908F907F906F905F904F90089528CFD0
:101260000F931F93CF93DF93EC0122DF8C01CE010C
:1012700071DE800F911FDF91CF911F910F91089523
:1012800008955058BB27AA270ED075C166D130F0FB
:101290006BD120F031F49F3F11F41EF45BC10EF4CA
:1012A000E095E7FB51C1E92F77D180F3BA176207C8
:1012B00073078407950718F071F49EF58FC10EF43B
:1012C000E0950B2EBA2FA02D0B01B90190010C0156
:1012D000CA01A0011124FF27591B99F0593F50F46E
:1012E000503E68F11A16F040A22F232F342F4427C6
:1012F000585FF3CF469537952795A795F0405395BE
:10130000C9F77EF41F16BA0B620B730B840BBAF08D
:101310009150A1F0FF0FBB1F661F771F881FC2F7F8
:101320000EC0BA0F621F731F841F48F4879577950C
:101330006795B795F7959E3F08F0B3CF9395880FC3
:1013400008F09927EE0F979587950895D9D008F45E
:1013500081E008950CD00FC107D140F0FED030F0ED
:1013600021F45F3F19F0F0C0511139C1F3C014D11D
:1013700098F39923C9F35523B1F3951B550BBB275C
:10138000AA2762177307840738F09F5F5F4F220F09
:10139000331F441FAA1FA9F333D00E2E3AF0E0E802
:1013A00030D091505040E695001CCAF729D0FE2F4E
:1013B00027D0660F771F881FBB1F261737074807E0
:1013C000AB07B0E809F0BB0B802DBF01FF27935896
:1013D0005F4F2AF09E3F510568F0B6C000C15F3FE5
:1013E000ECF3983EDCF3869577956795B795F7957E
:1013F0009F5FC9F7880F911D9695879597F9089576
:10140000E1E0660F771F881FBB1F62177307840711
:10141000BA0720F0621B730B840BBA0BEE1F88F720
:10142000E095089504D06894B111D9C00895BCD056
:1014300088F09F5790F0B92F9927B751A0F0D1F0BD
:10144000660F771F881F991F1AF0BA95C9F712C047
:10145000B13081F0C3D0B1E00895C0C0672F782FBC
:101460008827B85F39F0B93FCCF3869577956795B3
:10147000B395D9F73EF490958095709561957F4F1F
:101480008F4F9F4F0895E89409C097FB3EF49095C5
:101490008095709561957F4F8F4F9F4F9923A9F04D
:1014A000F92F96E9BB279395F695879577956795DC
:1014B000B795F111F8CFFAF4BB0F11F460FF1BC020
:1014C0006F5F7F4F8F4F9F4F16C0882311F096E9B3
:1014D00011C0772321F09EE8872F762F05C0662361
:1014E00071F096E8862F70E060E02AF09A95660F1A
:1014F000771F881FDAF7880F9695879597F90895D3
:10150000990F0008550FAA0BE0E8FEEF1616170614
:10151000E807F907C0F012161306E407F50798F07C
:10152000621B730B840B950B39F40A2661F0232B95
:10153000242B252B21F408950A2609F4A140A69511
:101540008FEF811D811D089597F99F6780E870E0F6
:1015500060E008959FEF80EC089500240A94161629
:10156000170618060906089500240A941216130691
:10157000140605060895092E0394000C11F488231F
:1015800052F0BB0F40F4BF2B11F460FF04C06F5F3B
:101590007F4F8F4F9F4F089557FD9058440F551F11
:1015A00059F05F3F71F04795880F97FB991F61F0E5
:1015B0009F3F79F087950895121613061406551F5C
:1015C000F2CF4695F1DF08C0161617061806991FC8
:1015D000F1CF86957105610508940895E894BB27BD
:1015E00066277727CB0197F908958ADF08F48FEFF4
:1015F00008950BD0C0CFB1DF28F0B6DF18F09523E7
:1016000009F0A2CFA7CF1124EACFC6DFA0F3959FA0
:10161000D1F3950F50E0551F629FF001729FBB27D9
:10162000F00DB11D639FAA27F00DB11DAA1F649F85
:101630006627B00DA11D661F829F2227B00DA11D38
:10164000621F739FB00DA11D621F839FA00D611DBE
:10165000221F749F3327A00D611D231F849F600DDF
:10166000211D822F762F6A2F11249F5750408AF018
:10167000E1F088234AF0EE0FFF1FBB1F661F771FA4
:10168000881F91505040A9F79E3F510570F05CCFE4
:10169000A6CF5F3FECF3983EDCF386957795679590
:1016A000B795F795E7959F5FC1F7FE2B880F911DC2
:1016B0009695879597F9089523DF880B990B0895E0
:1016C000A1E21A2EAA1BBB1BFD010DC0AA1FBB1F46
:1016D000EE1FFF1FA217B307E407F50720F0A21BB8
:1016E000B30BE40BF50B661F771F881F991F1A9425
:1016F00069F760957095809590959B01AC01BD014F
:10170000CF010895EE0FFF1F0590F491E02D19947D
:0C1710000790F691E02D1994F894FFCF9B
:10171C000000A040000020410AD7233DE3A59B3CDC
:10172C003333333F3A00370036001900F4010152CD
:10173C00633A20002045433A20002053696D656EC2
:10174C00732020002070706D202000202A43200080
:10175C005664726F703A20005369656D656E730044
:10176C0000000000EA0564073F0558054A05C90555
:10177C000D0A006E616E00696E66006F7666002E53
:02178C0000005B
:00000001FF
