:100000000C9459000C9481000C9481000C94810094
:100010000C9481000C9481000C9481000C9481005C
:100020000C9481000C9481000C9481000C9481004C
:100030000C9481000C9481000C9481000C9481003C
:100040000C947F030C9481000C9405060C943706E5
:100050000C9481000C9481000C9481000C9481001C
:100060000C9452020C948100000000080002010070
:100070000003040700000000000000000102040863
:100080001020408001020408102001020408102002
:10009000040404040404040402020202020203032E
:1000A0000303030300000000250028002B00B0011B
:1000B000670611241FBECFEFD8E0DEBFCDBF11E031
:1000C000A0E0B1E0ECE3FFE002C005900D92AA379A
:1000D000B107D9F722E0AAE7B1E001C01D92A03E26
:1000E000B207E1F710E0C2EBD0E004C02297FE01B6
:1000F0000E949807CE3AD107C9F70E94AB060C942C
:100100009C070C940000CF93DF9326E040E052EC74
:1001100061E070E083E492E00E94A30583E492E052
:100120000E94FA0660E071E083E492E00E94FE061D
:100130008AE791E00E948601C8E0D0E06C2F8AE750
:1001400091E00E9490018AE791E00E94AD01811147
:1001500027C06AE171E083E492E00E94F8064AE079
:1001600050E06C2F83E492E00E946C076AE271E039
:1001700083E492E00E94F80640E150E06C2F83E4B3
:1001800092E00E946C076FE271E083E492E00E94CB
:10019000FE06DF5F61E070E080E090E00E94EC032B
:1001A000CF5FC83759F661E371E083E492E00E94C3
:1001B000FE0667E371E083E492E00E94F8064AE0FD
:1001C00050E06D2F83E492E00E946C076EE371E0D3
:1001D00083E492E0DF91CF910C94FE060895809124
:1001E000AA0190E02091AB01821B91090895209112
:1001F000AB018091AA01281750F4E22FF0E0E455FA
:10020000FE4F808190E02F5F2093AB0108958FEF28
:100210009FEF0895E091AB018091AA01E81730F4B7
:10022000F0E0E455FE4F808190E008958FEF9FEF5E
:1002300008950895CF92DF92EF92FF920F931F934C
:10024000CF93DF937C01CB018A0120918601222389
:1002500089F0EB016B01C40ED51ECC15DD0569F0EC
:100260006991D701ED91FC910190F081E02DC701DA
:100270000995F3CF642F0E942902C801DF91CF9125
:100280001F910F91FF90EF90DF90CF900895CF9343
:10029000DF931F92CDB7DEB76983209186012223B9
:1002A000D1F020918701203240F021E030E0FC01C4
:1002B0003383228380E090E015C080918801E82F8D
:1002C000F0E0E757FE4F998190838F5F809388011C
:1002D0008093870105C061E0CE0101960E9429024A
:1002E00081E090E00F90DF91CF910895FC0113829F
:1002F000128248EE53E060E070E0448355836683E9
:1003000077838EE491E09183808308951092AB010E
:100310001092AA0110928801109287010C94B401E6
:1003200081E0809386016093A90110928801109268
:10033000870108950F93062F21E04091870169E816
:1003400071E08091A9010E94D2011092880110925F
:100350008701109286010F91089561E00C949A0133
:100360008AE791E00C9476011092390281E0809343
:1003700037021092360261E082E10E948A0461E055
:1003800083E10E948A04E9EBF0E080818E7F808324
:1003900080818D7F808388E48093B80085E480939A
:1003A000BC0008950F93413208F04AC09091390281
:1003B0009111FCCF92E090933902009337029FEFA6
:1003C0009093CC011092110240931002FB0162E164
:1003D00072E0DB019A2F961B941718F491919D936C
:1003E000F9CF1092380290913802880F892B8093B0
:1003F000380280913602813061F410923602809189
:1004000038028093BB008091BC0083FDF8CF85EC5F
:1004100001C085EE8093BC00222321F08091390237
:100420008230E1F38091CC018F3F61F08091CC016B
:10043000803251F08091CC01803341F483E007C0D9
:1004400081E005C080E003C082E001C084E00F913C
:100450000895613298F420913902243089F4609330
:10046000EE01FC0180EF91E0DC012A2F281B26170A
:1004700018F421912D93F9CF80E0089581E008953B
:1004800082E0089585ED8093BC008091BC0084FDDE
:10049000FCCF10923902089585EC8093BC00109235
:1004A000390208951F920F920FB60F9211242F93C5
:1004B0003F934F935F936F937F938F939F93AF93EC
:1004C000BF93EF93FF938091B900887F803609F442
:1004D0009EC078F5883209F45DC090F4803109F44B
:1004E00056C038F4882309F4F5C0883009F44FC0A9
:1004F000F5C0883109F44EC0803209F45FC0EEC007
:10050000803409F46AC058F4803309F457C0883342
:1005100009F0E4C08093CC010E944C02DFC080351A
:1005200009F44FC0883509F45DC0883409F0D6C09D
:10053000D3C0883909F4C4C0A8F4883709F467C067
:1005400038F4883609F463C0803709F460C0C6C047
:10055000883809F4B5C0803909F45FC0803809F0E3
:10056000BDC05BC0803B09F483C038F4803A09F415
:1005700066C0883A09F47CC0B1C0803C09F4A4C0CC
:10058000883C09F4A1C0883B09F487C0A7C08091CA
:10059000380210C09091110280911002981770F5E6
:1005A000E091110281E08E0F80931102F0E0EE5E87
:1005B000FD4F80818093BB0085EC83C08093CC018C
:1005C0008BC0E091110281E08E0F80931102809127
:1005D000BB00F0E0EE5EFD4F8083909111028091B0
:1005E00010026BC0E091110281E08E0F8093110226
:1005F0008091BB00F0E0EE5EFD4F8083809137027A
:1006000081116AC081E08093360284EA5EC083E093
:10061000809339021092CD01CFCF8091CD018032ED
:1006200008F04EC0E091CD0181E08E0F8093CD01A6
:100630008091BB00F0E0E253FE4F8083BDCF0E946B
:100640004C028091CD01803230F4E091CD01F0E098
:10065000E253FE4F10826091CD0170E0E0913202D2
:10066000F09133028EEC91E009951092CD0136C0E5
:1006700084E0809339021092EF011092EE01E09134
:100680003402F091350209958091EE01811105C087
:1006900081E08093EE011092F001E091EF0181E0A2
:1006A0008E0F8093EF01F0E0E051FE4F8081809348
:1006B000BB009091EF018091EE01981708F47CCF78
:1006C00085E88093BC000AC085EC8093BC00109242
:1006D000390204C01092CC010E944202FF91EF91B6
:1006E000BF91AF919F918F917F916F915F914F914A
:1006F0003F912F910F900FBE0F901F9018951F9252
:100700000F920FB60F9211242F933F938F939F93C5
:10071000AF93BF9380913B0290913C02A0913D0228
:10072000B0913E0230913A0223E0230F2D3720F49E
:100730000196A11DB11D05C026E8230F0296A11D3B
:10074000B11D20933A0280933B0290933C02A09308
:100750003D02B0933E0280913F0290914002A091F1
:100760004102B09142020196A11DB11D80933F024A
:1007700090934002A0934102B0934202BF91AF9187
:100780009F918F913F912F910F900FBE0F901F90CF
:1007900018953FB7F89480913F0290914002A09144
:1007A0004102B091420226B5A89B05C02F3F19F027
:1007B0000196A11DB11D3FBF6627782F892F9A2F63
:1007C000620F711D811D911D42E0660F771F881F0A
:1007D000991F4A95D1F708958F929F92AF92BF9239
:1007E000CF92DF92EF92FF926B017C010E94C903CE
:1007F0004B015C01C114D104E104F104F1F00E9449
:1008000073070E94C903681979098A099B09683E20
:1008100073408105910570F321E0C21AD108E10807
:10082000F10888EE880E83E0981EA11CB11CC1144B
:10083000D104E104F10429F7DDCFFF90EF90DF90C0
:10084000CF90BF90AF909F908F900895789484B58B
:10085000826084BD84B5816084BD85B5826085BDBC
:1008600085B5816085BDEEE6F0E0808181608083A2
:10087000E1E8F0E010828081826080838081816085
:100880008083E0E8F0E0808181608083E1EBF0E04C
:10089000808184608083E0EBF0E0808181608083F0
:1008A000EAE7F0E0808184608083808182608083D9
:1008B0008081816080838081806880831092C10004
:1008C0000895833081F028F4813099F08230A1F0CE
:1008D00008958730A9F08830B9F08430D1F4809140
:1008E00080008F7D03C0809180008F77809380008F
:1008F000089584B58F7702C084B58F7D84BD089537
:100900008091B0008F7703C08091B0008F7D80937D
:10091000B00008950F931F93CF93DF931F92CDB72D
:10092000DEB7282F30E0F901E859FF4F8491F90133
:10093000E458FF4F1491F901E057FF4F0491002351
:10094000C9F0882321F069830E9461046981E02F46
:10095000F0E0EE0FFF1FEC55FF4FA591B4919FB74C
:10096000F8948C91611103C01095812301C0812BF3
:100970008C939FBF0F90DF91CF911F910F9108959E
:10098000FC01818D228D90E0805C9F4F821B91093C
:100990008F7399270895FC01918D828D981731F0FE
:1009A000828DE80FF11D858D90E008958FEF9FEF08
:1009B0000895FC01918D828D981761F0828DDF0181
:1009C000A80FB11D5D968C91928D9F5F9F73928F42
:1009D00090E008958FEF9FEF08958DE596E0892BC5
:1009E00049F080E090E0892B29F00E945D0681119A
:1009F0000C9400000895FC01848DDF01A80FB11D47
:100A0000A35ABF4F2C91848D90E001968F73992744
:100A1000848FA689B7892C93A089B1898C91806431
:100A20008C93938D848D981306C00288F389E02DF2
:100A300080818F7D80830895CF93DF93EC01888D33
:100A40008823C9F0EA89FB89808185FD05C0A889D2
:100A5000B9898C9186FD0FC00FB607FCF5CF808158
:100A600085FFF2CFA889B9898C9185FFEDCFCE01A2
:100A70000E94FB04E7CFDF91CF910895CF92DF92E0
:100A8000FF920F931F93CF93DF931F92CDB7DEB7E3
:100A90006C0181E0D60158968C9358975B969C9197
:100AA0005B975C968C915C97981307C05096ED917C
:100AB000FC915197808185FD2EC0F601038D10E0D9
:100AC0000F5F1F4F0F731127F02EF601848DF81260
:100AD00011C00FB607FCF9CFD6015096ED91FC91ED
:100AE0005197808185FFF1CFC60169830E94FB0485
:100AF0006981EBCF838DE80FF11DE35AFF4F6083CF
:100B0000D6015B960C935B975296ED91FC915397AF
:100B1000808180620CC0D6015696ED91FC9157976A
:100B200060835096ED91FC91519780818064808321
:100B300081E090E00F90DF91CF911F910F91FF9096
:100B4000DF90CF900895BF92CF92DF92EF92FF9205
:100B5000CF93DF93EC016A017B01B22EE889F9891A
:100B600082E08083411581EE580761057105A1F08F
:100B700060E079E08DE390E0A70196010E947407A0
:100B800021503109410951095695479537952795C7
:100B9000211580E1380798F0E889F989108260E82A
:100BA00074E88EE190E0A70196010E94740721503D
:100BB0003109410951095695479537952795EC8597
:100BC000FD853083EE85FF852083188EEC89FD89B5
:100BD000B082EA89FB89808180618083EA89FB8910
:100BE000808188608083EA89FB8980818068808336
:100BF000EA89FB8980818F7D8083DF91CF91FF908F
:100C0000EF90DF90CF90BF9008951F920F920FB694
:100C10000F9211242F938F939F93EF93FF93E09163
:100C20005302F09154028081E0915902F0915A02EE
:100C300082FD12C0908180915C028F5F8F73209142
:100C40005D02821751F0E0915C02F0E0ED5BFD4F38
:100C5000958F80935C0201C08081FF91EF919F91FD
:100C60008F912F910F900FBE0F901F9018951F928C
:100C70000F920FB60F9211242F933F934F935F93D0
:100C80006F937F938F939F93AF93BF93EF93FF9354
:100C900083E492E00E94FB04FF91EF91BF91AF913A
:100CA0009F918F917F916F915F914F913F912F9184
:100CB0000F900FBE0F901F90189583E492E00E9452
:100CC000C00421E0892B09F420E0822F08951092BE
:100CD00046021092450288EE93E0A0E0B0E08093D7
:100CE000470290934802A0934902B0934A028EE5CE
:100CF00091E0909344028093430285EC90E09093BE
:100D0000500280934F0284EC90E0909352028093C3
:100D1000510280EC90E0909354028093530281EC56
:100D200090E0909356028093550282EC90E090936D
:100D300058028093570286EC90E090935A02809379
:100D4000590210925C0210925D0210925E021092A3
:100D50005F02089508950E9426040E94AA060E9438
:100D60008300CDEED4E00E94EE002097E1F30E94D4
:100D7000ED04F9CFCF92DF92EF92FF920F931F9382
:100D8000CF93DF937C016A01EB0100E010E00C15CA
:100D90001D0571F06991D701ED91FC910190F081F1
:100DA000E02DC7010995892B19F00F5F1F4FEFCF79
:100DB000C801DF91CF911F910F91FF90EF90DF90CD
:100DC000CF9008956115710581F0DB010D90002031
:100DD000E9F7AD0141505109461B570BDC01ED917C
:100DE000FC910280F381E02D099480E090E0089569
:100DF0000C94E2066AE671E00C94E2060F931F93EE
:100E0000CF93DF93EC010E94E2068C01CE010E9499
:100E1000FA06800F911FDF91CF911F910F910895D6
:100E20008F929F92AF92BF92DF92EF92FF920F93B9
:100E30001F93CF93DF93CDB7DEB7A1970FB6F8948A
:100E4000DEBF0FBECDBF7C01F42FD52ECB0119A282
:100E5000223008F42AE08E010F5D1F4F822E912C64
:100E6000A12CB12C6F2F7D2DA50194010E94740738
:100E7000F22FD32ECA01015011096A3014F4E0E3B5
:100E800001C0E7E3E60FD801EC93232B242B252B9D
:100E900049F7B801C7010E94E206A1960FB6F8947F
:100EA000DEBF0FBECDBFDF91CF911F910F91FF909D
:100EB000EF90DF90BF90AF909F908F900895211595
:100EC000310541F4DC01ED91FC910190F081E02DC0
:100ED000642F09940C9410079A01462F50E060E0AB
:100EE00070E00C945F070895A1E21A2EAA1BBB1BA9
:100EF000FD010DC0AA1FBB1FEE1FFF1FA217B307E6
:100F0000E407F50720F0A21BB30BE40BF50B661FFB
:100F1000771F881F991F1A9469F7609570958095BF
:100F200090959B01AC01BD01CF010895EE0FFF1F0D
:0C0F30000590F491E02D0994F894FFCF97
:100F3C00493243207363616E6E65722E2053636178
:100F4C006E6E696E67202E2E2E00466F756E6420B5
:100F5C00616464726573733A20002028307800292C
:100F6C0000446F6E652E00466F756E642000206421
:100F7C0065766963652873292E000000000047011F
:100F8C001A01EF00F7000A011901000000003E05EC
:100F9C00BA06C004D904CB041C050D0A006E616EA0
:0A0FAC0000696E66006F76660000B3
:00000001FF
