:100000000C9457020C947F020C947F020C94CE0740
:100010000C94CE070C94CE070C947F020C947F02B4
:100020000C947F020C947F020C947F020C947F024C
:100030000C947F020C947F020C947F020C947F023C
:100040000C94E3160C947F020C94401A0C94721AD0
:100050000C947F020C947F020C947F020C947F021C
:100060000C94BE050C947F02436F6E666967205343
:10007000657276657200446F6E65205374617274A8
:100080002041707000436F6E6E656374205769661F
:10009000690057696669205265616479005769662D
:1000A00069205265616479005374617274696E6786
:1000B0002077696669005374617274696E6720778E
:1000C0006966690046726F6D20536872696D704988
:1000D0006F540048656C6C6F2C20776F726C6421D4
:1000E000004E6869657420446F3A00442E413A001E
:1000F0002070483A003031353831353232005450B2
:100100002D4C494E4B5F3931443600383000313385
:10011000392E35392E3130352E3232380053656E56
:1001200064206661696C65640053656E6420436F8A
:100130006D706C65746564004445425547204845C0
:100140005245202870726F6D7074293A2000426504
:10015000666F72652053656E6400436F6E6E6563F3
:1001600074656420546F2053657276657200436F26
:100170006E6E65637420546F2053657276657200ED
:10018000436865636B20697320526561647900433D
:100190006F6E74656E742D547970653A206170705D
:1001A0006C69636174696F6E2F782D7777772D6630
:1001B0006F726D2D75726C656E636F6465640D0A88
:1001C00000436F6E74656E742D4C656E6774683A8B
:1001D0002000486F73743A200020485454502F3147
:1001E0002E3100504F535420000D0A005354414DFE
:1001F00041432C220053544149502C22000A002232
:10020000002C3300222C2200222C002C00434C4FC7
:1002100053454400434F4E4E454354004950442CEF
:100220000041542B43575341503D220041542B432E
:1002300049504D55583D310041542B434946535286
:100240000041542B43574D4F44453D330041542BFF
:1002500043574D4F44453D310041542B43574A418C
:10026000503D2200554450005443500041542B430C
:100270004950434C4F53453D310041542B43495065
:1002800053544152543D312C220041542B43495088
:100290005345525645523D300041542B434950532B
:1002A00045525645523D312C0041542B4349505341
:1002B000454E443D00302E302E302E3000726561A8
:1002C000647900414C52454159004C696E6B65643C
:1002D0000062757379003E006C696E6B2069732053
:1002E0006275696C646564006C696E6B206973206B
:1002F0006E6F740053454E44204F4B006E6F206369
:1003000068616E6765004552524F52004641494C44
:10031000004154004F4B0008456E642053656E64E5
:1003200020526573756C742000426567696E2053B6
:10033000656E6420526573756C742000446F2041B3
:100340006D3A20004E6869657420646F3A200000A1
:100350000000080002010000030407000000000084
:10036000000000010204081020408001020408106F
:1003700020010204081020040404040404040402FC
:10038000020202020203030303030300000000232E
:10039000002600290000000000250028002B000096
:1003A000000000240027002A0000407A10F35A00C1
:1003B000A0724E18090010A5D4E80000E87648178E
:1003C0000000E40B54020000CA9A3B000000E1F573
:1003D00005000080969800000040420F000000A039
:1003E0008601000000102700000000E80300000064
:1003F000006400000000000A00000000000100008E
:100400000000002C76D888DC674F0823DFC1DFAE00
:1004100059E1B1B796E5E3E453C63AE651997696C9
:10042000E8E6C28426EB898C9B62ED407C6FFCEF92
:10043000BC9C9F40F2BAA56FA5F490055A2AF75CC0
:10044000936B6CF9676DC11BFCE0E40D47FEF52072
:10045000E6B500D0ED902E0300943577050080843A
:100460001E080000204E0A000000C80C333333334E
:100470000F986E12831141EF8D2114893BE65516BA
:10048000CFFEE6DB18D1844B381BF77C1D901DA4F2
:10049000BBE424203284725E228100C9F124ECA1E5
:1004A000E53D270047031C05EB13A21A7303112433
:1004B0001FBECFEFD8E0DEBFCDBF12E0A0E0B1E0BD
:1004C000E4E0FEE402C005900D92A636B107D9F72C
:1004D00026E0A6E6B2E001C01D92A433B207E1F720
:1004E00014E0CCEAD4E004C02297FE010E94DF2190
:1004F000C43AD107C9F70E94E61A0C94F5260C9469
:100500000000CF93DF93C4E2D1E0D0936702C093A1
:10051000660288E692E00E94751DD0937302C09334
:10052000720284E792E00E94751DD0938102C0930D
:10053000800282E892E00E94751D88E294E0DF91DB
:10054000CF910C94480861E086E692E00E94541531
:100550008823A1F060EF70E08EE595E00E94371BE4
:1005600040916E0250916F02609170027091710221
:1005700021E030E08EE595E00C94611D089560E087
:1005800082E792E00E9454158823D1F041E060E0B8
:100590008EE595E00E94F8096BEE70E08EE595E03F
:1005A0000E94371B40917A0250917B0260917C023D
:1005B00070917D0221E030E08EE595E00C94611DA4
:1005C000089560E080E892E00E945415882301F1CC
:1005D00040E060E08EE595E00E94F80961EE70E091
:1005E0008EE595E00E94371B409188025091890268
:1005F00060918A0270918B0221E030E08EE595E0F7
:100600000E94611D64EE71E08EE595E00C945A1B2A
:1006100008950E94E10283E595E00E94E50D0E94A5
:10062000BF0283E595E00E94E50D0C94A302CF92F2
:10063000DF92EF92FF920E942D176B017C0183E500
:1006400095E00E94E50D80918E0290918F02A0911D
:100650009002B0919102C81AD90AEA0AFB0A80E115
:10066000C81687E2D806E104F10460F00E9409038D
:100670000E942D1760938E0270938F0280939002D8
:1006800090939102FF90EF90DF90CF90089546E015
:1006900050E065E070E087E494E00E940A0C20E0FE
:1006A0004BE06AE088E294E00E94A10887EB92E0C8
:1006B0000E946B0E6BE071E080E892E00E94D3161E
:1006C00064E171E082E792E00E946C166AE171E0F9
:1006D00086E692E00E942D158AEE91E090936702E3
:1006E0008093660208950C94810220E042E060E16C
:1006F0008EE595E00E94EF0B8EE595E00E94D20911
:1007000081E08093770540E063E08EE595E00E940C
:10071000F80963ED70E08EE595E00E94371B68EE06
:1007200073E080E090E00E945C1741E062E08EE5BB
:1007300095E00E94F80964EC70E08EE595E00E9477
:10074000371B68EE73E080E090E00E945C178EE556
:1007500095E00E94EA098EE595E00C94F10940E8E5
:1007600055E260E070E088E294E00E94D10826E063
:1007700040E052EC61E070E083E995E00E94DE1910
:1007800060E0809117030E9422180E94750367E4BD
:1007900074E080E892E00E94DF1667E474E082E78C
:1007A00092E00E9478164EE150E06EE071E082E93E
:1007B00092E00E941D2447E050E06BE071E080EB86
:1007C00092E00E941D2468E670E083E995E00E94B3
:1007D000671B49E068E274E087EB92E00E946C0ED0
:1007E00061E087EB92E00E94AA0E62E972E087EB7B
:1007F00092E00E94441566EB70E083E995E00E9468
:10080000671B40E060E08EE595E00E94F80968EA29
:1008100070E08EE595E00E94371B87EB92E00E9426
:10082000A50E87EB92E00E94A00E811117C087EB06
:1008300092E00E9474106DE970E083E995E00E94F7
:10084000671B40E060E08EE595E00E94F80962E9F0
:1008500070E08EE595E00E94371BE3CF40E060E05A
:100860008EE595E00E94F80965E870E08EE595E078
:100870000E94371B45EF50E06EEF70E087EB92E08F
:100880000E942211882351F340E060E08EE595E05C
:100890000E94F80966E770E08EE595E00E94371B3C
:1008A0000E942D176093790570937A0580937B05DC
:1008B00090937C05089580917D0490E020917E04C2
:1008C000821B9109089520917E0480917D04281750
:1008D00050F4E22FF0E0E158FB4F808190E02F5F71
:1008E00020937E0408958FEF9FEF0895E0917E049A
:1008F00080917D04E81730F4F0E0E158FB4F8081EF
:1009000090E008958FEF9FEF08950895CF92DF92C2
:10091000EF92FF920F931F93CF93DF937C01CB0154
:100920008A0120915904222389F0EB016B01C40E46
:10093000D51ECC15DD0569F06991D701ED91FC91CB
:100940000190F081E02DC7010995F3CF642F0E943B
:100950009505C801DF91CF911F910F91FF90EF9006
:10096000DF90CF900895CF93DF931F92CDB7DEB77E
:100970006983209159042223D1F020915A04203216
:1009800040F021E030E0FC013383228380E090E0FE
:1009900015C080915B04E82FF0E0E45AFB4F998189
:1009A00090838F5F80935B0480935A0405C061E05D
:1009B000CE0101960E94950581E090E00F90DF91B5
:1009C000CF910895FC011382128248EE53E060E05B
:1009D00070E044835583668377838AE291E0918354
:1009E0008083089510927E0410927D0410925B041F
:1009F00010925A040C94200581E08093590460936E
:100A00007C0410925B0410925A0408950F93062FF1
:100A100021E040915A046CE574E080917C040E94CE
:100A20003E0510925B0410925A04109259040F91E3
:100A3000089561E00C9406058DE494E00C94E204C2
:100A400010920C0581E080930A051092090561E07F
:100A500082E10E945B1861E083E10E945B18E9EB90
:100A6000F0E080818E7F808380818D7F808388E429
:100A70008093B80085E48093BC0008950F934132C1
:100A800008F04AC090910C059111FCCF92E0909330
:100A90000C0500930A059FEF90939F041092E404C5
:100AA0004093E304FB0165EE74E0DB019A2F961B93
:100AB000941718F491919D93F9CF10920B05909192
:100AC0000B05880F892B80930B05809109058130D8
:100AD00061F41092090580910B058093BB00809111
:100AE000BC0083FDF8CF85EC01C085EE8093BC008F
:100AF000222321F080910C058230E1F380919F0444
:100B00008F3F61F080919F04803251F080919F046B
:100B1000803341F483E007C081E005C080E003C07A
:100B200082E001C084E00F910895613298F4209131
:100B30000C05243089F46093C104FC0183EC94E03B
:100B4000DC012A2F281B261718F421912D93F9CFA9
:100B500080E0089581E0089582E0089585ED809316
:100B6000BC008091BC0084FDFCCF10920C05089560
:100B700085EC8093BC0010920C0508951F920F9293
:100B80000FB60F9211242F933F934F935F936F9360
:100B90007F938F939F93AF93BF93EF93FF93809136
:100BA000B900887F803609F49EC078F5883209F450
:100BB0005DC090F4803109F456C038F4882309F4FC
:100BC000F5C0883009F44FC0F5C0883109F44EC033
:100BD000803209F45FC0EEC0803409F46AC058F472
:100BE000803309F457C0883309F0E4C080939F0430
:100BF0000E94B805DFC0803509F44FC0883509F47C
:100C00005DC0883409F0D6C0D3C0883909F4C4C0A7
:100C1000A8F4883709F467C038F4883609F463C04B
:100C2000803709F460C0C6C0883809F4B5C080397F
:100C300009F45FC0803809F0BDC05BC0803B09F497
:100C400083C038F4803A09F466C0883A09F47CC05D
:100C5000B1C0803C09F4A4C0883C09F4A1C0883B21
:100C600009F487C0A7C080910B0510C09091E404DF
:100C70008091E304981770F5E091E40481E08E0F11
:100C80008093E404F0E0EB51FB4F80818093BB0044
:100C900085EC83C080939F048BC0E091E40481E0E5
:100CA0008E0F8093E4048091BB00F0E0EB51FB4F8A
:100CB00080839091E4048091E3046BC0E091E404AC
:100CC00081E08E0F8093E4048091BB00F0E0EB5153
:100CD000FB4F808380910A0581116AC081E0809377
:100CE000090584EA5EC083E080930C051092A0049D
:100CF000CFCF8091A004803208F04EC0E091A004D4
:100D000081E08E0F8093A0048091BB00F0E0EF554E
:100D1000FB4F8083BDCF0E94B8058091A004803234
:100D200030F4E091A004F0E0EF55FB4F10826091A9
:100D3000A00470E0E0910505F091060581EA94E0D9
:100D400009951092A00436C084E080930C0510929F
:100D5000C2041092C104E0910705F09108050995BD
:100D60008091C104811105C081E08093C10410927B
:100D7000C304E091C20481E08E0F8093C204F0E0CE
:100D8000ED53FB4F80818093BB009091C204809112
:100D9000C104981708F47CCF85E88093BC000AC092
:100DA00085EC8093BC0010920C0504C010929F0447
:100DB0000E94AE05FF91EF91BF91AF919F918F91EE
:100DC0007F916F915F914F913F912F910F900FBE47
:100DD0000F901F90189520914F05309150052817BE
:100DE0003907B9F490910D0580910E05981789F097
:100DF000E0910D05F0E0E15FFA4F808120910D0553
:100E000030E02F5F3F4F2F73332720930D0590E085
:100E100008958FEF9FEF08951F93CF93DF93DC0129
:100E20005C968D919C915D97009749F481E090E0EC
:100E300013969C938E93129780E090E03BC051965E
:100E4000ED91FC91529750962C915097322F3095FE
:100E50001FB75E964C915E9741FB772770F941FD75
:100E60006095F8944081772311F0422B01C0432311
:100E70004083EC012197F1F748E0508160FF02C008
:100E8000522B01C053235083EC012197F1F7669553
:100E9000415099F78081772311F0832301C0822B81
:100EA00080831FBF5C968D919C915D970197F1F7B0
:100EB00081E090E0DF91CF911F91089508952091F6
:100EC0004F05309150052817390771F490910D05A1
:100ED00080910E05981741F0E0910D05F0E0E15F7B
:100EE000FA4F808190E008958FEF9FEF0895209151
:100EF0004F05309150052817390771F480910E0580
:100F000020910D0590E0805C9F4F821B910960E469
:100F100070E00E948821089580E090E00895E091BB
:100F20004F05F0915005E817F90769F4A389B489D2
:100F30009C918589809589238C93109250051092FD
:100F40004F0581E0089580E00895CF93DF93EC0191
:100F50008A8D9B8D892BF1F080914F0590915005E2
:100F60008C179D07B9F0009711F00E948F078E8DA6
:100F70008E7F8E8F10920E0510920D05D093500526
:100F8000C0934F05EB89FC8980819D89892B8083E3
:100F900081E001C080E0DF91CF9108951F920F9210
:100FA0000FB60F9211242F933F934F935F936F933C
:100FB0007F938F939F93AF93BF93EF93FF93E091B2
:100FC0004F05F0915005309709F451C0868DA685E4
:100FD000B785958581FF04C08C91892329F447C08A
:100FE0008C91892309F043C0A389B4899C91858998
:100FF000809589238C93868997890197F1F7208DB5
:10100000318DA685B785758558E040E0C901019707
:10101000F1F7842F90E095958795482F6C91672381
:1010200009F04068515091F7868D81FD409580917F
:101030000E0590E001968F73992720910D052817D2
:1010400049F0A0910E05B0E0A15FBA4F4C93809398
:101050000E0503C0868D8160868F828D938D0197EA
:10106000F1F7A389B4898C919589892B8C93FF9191
:10107000EF91BF91AF919F918F917F916F915F9110
:101080004F913F912F910F900FBE0F901F90189589
:101090002AE331E0FC01318320830C948F071F93F6
:1010A000CF93DF93EC01162F6E8D6695617081E012
:1010B0006827812F0E945B1861E0812F0E9422180F
:1010C000812F90E0FC01ED59FC4FE491E88BFC018D
:1010D000E958FC4FE491F0E0EE0FFF1FEB56FC4F98
:1010E000859194919A8B898BDF91CF911F9108956F
:1010F0001F93CF93DF93EC01162F60E0812F0E94A6
:1011000022188E8D81FD04C061E0812F0E945B1842
:101110001C87812F90E0FC01ED59FC4FE491ED8795
:10112000FC01E958FC4FE491F0E0EE0FFF1FE5579A
:10113000FC4F859194919F878E87DF91CF911F916E
:101140000895FF920F931F93CF93DF93EC01F62E38
:10115000522F1B821A8208EE13E020E030E00C834D
:101160001D832E833F838AE391E0998388831F8ABE
:101170001E8A198E188E1B8E1A8E1D8E1C8E8E8DB9
:101180008E7F50FB81F98E8F642FCE010E944F0815
:101190006F2DCE01DF91CF911F910F91FF900C9495
:1011A0007808CF93DF93EC019A01AB011B8E1A8E66
:1011B000198E188E1F8A1E8A60E079E08DE390E018
:1011C0000E94BE21C9012430310520F0B9016350CD
:1011D000710902C061E070E07D8F6C8FEC85E631B3
:1011E00008F068C0B901769567956431710518F00B
:1011F0006351710902C061E070E07F8B6E8B0697CE
:1012000018F0C901059702C081E090E0998F888F9E
:10121000C901880F991F820F931F96958795969500
:1012200087958D30910510F00C9702C081E090E019
:101230009B8F8A8F20916800E83050F091E0EE306B
:1012400008F490E081E001C0880F9A95EAF701C0A8
:1012500084E0822B809368002C85283038F02E3073
:1012600040F0263148F48CE690E008C08DE690E02E
:1012700005C08BE690E002C080E090E09C8B8B8BF9
:10128000283030F481E001C0880F2A95EAF70DC0BC
:10129000822F90E02E3010F4089701C00E9791E055
:1012A00001C0990F8A95EAF7892F8D8B8C8D9D8DC2
:1012B0000197F1F7CE01DF91CF910C94A507FC01C6
:1012C00012828FEF8183108213820895FC01838143
:1012D000882331F0611103C08FEF8183089511825B
:1012E00008958DE494E00E94FC048DE494E00E9453
:1012F000190591E0811190E0892F0895CF93DF9334
:10130000EC016A838DE494E00E94F2046A81CE01CC
:101310000E9471098B83882329F08DE494E00E9458
:10132000630488838B8190E0DF91CF910895CF9300
:10133000DF93EC018B818823A9F089818095862336
:1013400088836A818DE494E00E94FC0468818DE4C6
:1013500094E00E94B3048DE494E00E941905282FC4
:1013600030E002C020E030E081E090E0232B11F07B
:1013700080E090E0DF91CF91089508950895DC0119
:10138000ED91FC910284F385E02D41E0099581E027
:1013900090E00895FC01138212822AE431E0318347
:1013A00020830895DC01ED91FC910084F185E02D0E
:1013B0006FEF0994DC01ED91FC910084F185E02D43
:1013C00060E00994DC01ED91FC910284F385E02D4D
:1013D00040E0099461E00E94E20980ED97E00C94FE
:1013E000961762E00E94E20980ED97E00C94961750
:1013F000CF93DF93CDB7DEB728970FB6F894DEBF53
:101400000FBECDBF1D8220E42E8334E13F8334E53F
:10141000388719822A8320E12B8320E52C83FC0165
:101420002781421710F04FEF420FFC01308550E04A
:10143000FE01E40FF51F303121F4243011F4218135
:1014400001C02581260F2068622F28960FB6F894D8
:10145000DEBF0FBECDBFDF91CF910C94E209FC013E
:1014600065816B7F658368600C94E209CF93DF939D
:10147000EC010E94DA09CE01DF91CF910C942F0A82
:10148000FC016581262F246025836C600C94E209A1
:10149000CF93DF93EC010E94400ACE01DF91CF9100
:1014A0000C94D209CF93DF93EC01423018F08C8179
:1014B00088608C834F836887222329F0413019F498
:1014C0008C8184608C8364E670E080E090E00E9410
:1014D0005C176C8164FD31C0E881F9810284F38579
:1014E000E02D42E063E0CE01099584E991E10E949C
:1014F0009617E881F9810284F385E02D42E063E0EC
:10150000CE01099586E990E00E949617E881F9815D
:101510000284F385E02D42E063E0CE01099586E97F
:1015200090E00E949617E881F9810284F385E02D0E
:1015300042E062E0CE01099516C06062CE010E94D1
:10154000E20984E991E10E9496176C816062CE0104
:101550000E94E20986E990E00E9496176C81606221
:10156000CE010E94E20986E990E00E9496176C8104
:101570006062CE010E94E2098CE390E00E9496171F
:1015800084E08D83CE010E94400ACE010E94EA09C8
:1015900082E08E8366E0CE010E94E209CE01DF91F7
:1015A000CF910C94D20921E001C0220F6A95EAF78D
:1015B000DC011C962C931C971A965C934E931997FA
:1015C000ED91FC910084F185E02D60E00994FC012F
:1015D0002485222399F081859285009719F4611161
:1015E00005C006C0019721F4611102C0258701C022
:1015F00015866585CF010E960C94970908950F9373
:101600001F93CF93DF93EC018C01025F1F4F6B851B
:10161000C8010E947E09019761F461E0C8010E943F
:1016200066091C8260E0C8010E94970981E090E091
:1016300002C080E090E0DF91CF911F910F9108955B
:101640008F92AF92CF92EF920F93CF93DF93CDB75C
:10165000DEB7FC016387148615861286118681E049
:10166000982F01C0990F4A95EAF7928B982F01C0E5
:10167000990F2A95EAF7938B982F01C0990F0A9535
:10168000EAF7948B982F01C0990FEA94EAF7958BAB
:10169000982F01C0990FCA94EAF7968B982F01C032
:1016A000990FAA94EAF7978B01C0880F8A94EAF7FA
:1016B000808FDF91CF910F91EF90CF90AF908F906F
:1016C00008954F925F926F927F928F92AF92CF92D6
:1016D000EF920F931F93CF93DF9300D01F92CDB75C
:1016E000DEB73C011A894B885C882B834A83698367
:1016F0000E94CA098AE591E0F30191838083C301C6
:101700000E960E945F092B814A816981C3010E9464
:10171000200BA201612FC3010F900F900F90DF915A
:10172000CF911F910F91EF90CF90AF908F907F90BE
:101730006F905F904F900C94D30AFF920F931F937A
:10174000CF93DF93EC01F62E8C01025F1F4F6A8965
:101750006F29C8010E9497096A8960956F21C801A5
:10176000DF91CF911F910F91FF900C94970920E08A
:1017700030E050E060FF05C0FC01E20FF31F758907
:10178000572B66952F5F3F4F2430310599F7413035
:1017900011F4FC014489FC016585652B642B0C94D4
:1017A0009D0B0F931F93CF93DF93EC01142F062F04
:1017B0000F70423011F440E00AC070E084E075958B
:1017C00067958A95E1F7CE010E94B70B412F602FF4
:1017D000CE01DF91CF911F910F910C94B70B0F9316
:1017E0001F93CF93DF9300D01F92CDB7DEB78C014C
:1017F0002B834A8369830E94FF0A2B814A81698176
:10180000C8010F900F900F90DF91CF911F910F9112
:101810000C94520AFC0171836083538342830895C0
:10182000CF92DF92EF92FF920F931F93CF93DF93AC
:10183000C62ED42E790100E010E0C0E0D0E00E15F5
:101840001F05C4F461E08D2D0E945B186AE070E012
:1018500080E090E00E945C17CC0FDD1F8C2D0E9471
:101860009118C80FD91F60E08D2D0E945B180F5F83
:101870001F4FE5CFCE01DF91CF911F910F91FF90C8
:10188000EF90DF90CF9008951F93CF93DF93162FA3
:10189000C42FD22F61E0842F0E94221861E08D2F87
:1018A0000E94221861E08C2F0E945B1861E08D2F4E
:1018B0000E945B1860E08C2F0E945B1860E08D2F07
:1018C0000E945B1861E08D2F0E945B1861E08C2FF5
:1018D0000E945B1860E08D2F0E945B18212F41E071
:1018E0006D2F8C2F0E94BA1861E08D2F0E945B181B
:1018F00060E08C2F0E9422188C2F0E94911860E0CB
:101900008D2F0E945B188C2FDF91CF911F910C942B
:1019100091181F93CF93DF93162F60E0812F0E94C1
:101920002218C4E6D0E06AE070E080E090E00E9417
:101930005C17812F0E949118892B11F0219799F73C
:10194000DF91CF911F910895CF92DF92EF92FF9296
:101950000F931F93CF93DF938C01F62ED72EE42E97
:10196000C52E60E08F2D0E94221861E08E2D0E940E
:10197000221828E030E04E2D5C2D6F2D7D2DC80102
:101980000E94100CD82F80E0C82F61E08F2D0E949C
:10199000221861E08F2D0E945B1860E08F2D0E945D
:1019A0005B1861E08E2D0E945B1860E08E2D0E9416
:1019B0005B1860E08F2D0E94221828E030E04E2D49
:1019C0005C2D6F2D7D2DC8010E94100C8C2B9D2B42
:1019D000DF91CF911F910F91FF90EF90DF90CF900B
:1019E0000895CF93DF93D62FC42F61E08D2F0E94EF
:1019F000221861E08C2F0E94221861E08D2F0E9436
:101A00005B1861E08C2F0E945B1860E08C2FDF91E7
:101A1000CF910C945B180F931F93CF93DF93EC013E
:101A20002A813B814881598163E070E00E94440C27
:101A300068817981CE010E94890C4A815B8168812D
:101A40007981CE010E94A40C8C014A815B8168815E
:101A50007981CE010E94F10CB801882777FD80952D
:101A6000982F0E946120DF91CF911F910F910895CF
:101A70000E940B0D0E942E20882777FD8095982FBD
:101A80000E9461202AE037ED43E25CE30E941521C9
:101A900020E030E040E252E40E945D1F08954F9242
:101AA0005F926F927F928F929F92AF92BF92CF92EE
:101AB000DF92EF92FF92CF93DF93EC012A813B817B
:101AC0004881598165E070E00E94440C6881798109
:101AD000CE010E94890C4A815B8168817981CE01A7
:101AE0000E94A40C7C014A815B8168817981CE01CE
:101AF0000E94F10CB701882777FD8095982F0E94EE
:101B000061206B017C0124E533EE45E25DE30E9438
:101B1000152120E030E040E850E40E945D1F4B01B9
:101B20005C0122EA37EE4BE356EBC701B6010E9497
:101B30001521A70196010E9415219B01AC01C50149
:101B4000B4010E945E1F4B015C01CE010E94380D62
:101B500020E030E048EC51E40E945D1F2B013C0185
:101B60002CEA35EC47EA58E3C701B6010E9415217B
:101B70002AE037ED43E25CE30E945E1F9B01AC016B
:101B8000C301B2010E941521A50194010E945E1FAC
:101B9000DF91CF91FF90EF90DF90CF90BF90AF900B
:101BA0009F908F907F906F905F904F900895FC0171
:101BB00081E08083118212821382148245835683CE
:101BC000678370873287218708950F931F93CF9380
:101BD000DF93EC018881882301F10E942D17098190
:101BE0001A812B813C81601B710B820B930B0D8141
:101BF0001E812F813885601771078207930768F06F
:101C00000E942D1769837A838B839C83E985FA85EB
:101C1000DF91CF911F910F910994DF91CF911F9187
:101C20000F9108950F931F934423B1F08EE595E033
:101C30000E94480A8EE595E00E94D20981E08093D7
:101C400077050E942D176093790570937A0580932C
:101C50007B0590937C051DC0209177052223C9F058
:101C60000091790510917A0520917B0530917C05D2
:101C7000DC01CB01801B910BA20BB30B8838934185
:101C8000A105B10530F08EE595E00E94360A10926C
:101C900077051F910F9108951F93CF93DF931F92A4
:101CA000CDB7DEB788E00E94911811E0892B19F4B6
:101CB00010E040E003C040917805412749830E942D
:101CC0002D1749810E94120E109378050F90DF9115
:101CD000CF911F9108950895CF93DF93EC01842F46
:101CE0007093520560935105488361E00E94221869
:101CF00060E088810E945B188A81998188628E7F6A
:101D00008F7E8A8394729B7F9983FE01E659FF4FF1
:101D100080E38083319680818E7F8083319681E35A
:101D20008083319680818E7F8083319682E38083A9
:101D3000C159DF4F88818E7F8883DF91CF910895CD
:101D4000FC018181869581700895FC0122812062C9
:101D500022830895FC01218160FB23F921830895EA
:101D6000EF92FF920F931F93CF93DF93CDB7DEB720
:101D7000C456D1090FB6F894DEBF0FBECDBF7A01AD
:101D80008E010F5F1F4F84E6F80111928A95E9F7E3
:101D9000C8010E941624B801809151059091520506
:101DA0000E945A1BFDEFEF16F1E0FF0639F4809117
:101DB0005105909152050E94631B0EC0E114F1047D
:101DC00059F0B701C8010E941624B801809151054D
:101DD000909152050E945A1BCC59DF4F0FB6F894D0
:101DE000DEBF0FBECDBFDF91CF911F910F91FF904E
:101DF000EF900895CF92DF92EF92FF920F931F938F
:101E0000CF93DF93EC018A016FEA71E00E94E31D3A
:101E10000E942D176B017C01A801662757FD609574
:101E2000762FC40ED51EE61EF71E0E942D176C15C8
:101E30007D058E059F0500F5809151059091520515
:101E4000DC01ED91FC910480F581E02D09951816D7
:101E500019065CF78091510590915205DC01ED91D6
:101E6000FC910680F781E02D0995882329F3682FDE
:101E7000CE010E945D1EE0CFCE010E94FD1ECE016C
:101E8000DF91CF911F910F91FF90EF90DF90CF9056
:101E90000895EF92FF920F931F93CF93DF93CDB7E7
:101EA000DEB72C970FB6F894DEBF0FBECDBF8C0106
:101EB000FC01818180FD3AC083FF11C060E871E0C0
:101EC00083E995E00E94671B0AC060ED77E080E03F
:101ED00090E00E945C17CE0107960E94751D4DEFA1
:101EE00051E061E173E0C8010E94B00E40ED57E09F
:101EF000B801CE0107960E94FA0E66E671E0CE01A7
:101F000001960E94E31DBE016F5F7F4FCE010796D1
:101F10000E94F91E7C01CE0101960E94751DEF20E2
:101F2000E09499F2CE0107960E94751D81E02C96EF
:101F30000FB6F894DEBF0FBECDBFDF91CF911F91DA
:101F40000F91FF90EF9008951F93CF93DF93EC01D3
:101F50008091510590915205DC01ED91FC91068034
:101F6000F781E02D0995182F898183FF06C0612F25
:101F700083E995E00E945C1B04C082E390E00E942C
:101F80009617812FDF91CF911F9108954F925F9205
:101F90006F927F928F929F92AF92BF92CF92DF9279
:101FA000EF92FF920F931F93CF93DF93CDB7DEB7DE
:101FB000A0970FB6F894DEBF0FBECDBF6C015B01DA
:101FC000490180E18E010F5E1F4FD801E82F1D925D
:101FD000EA95E9F79E012F5F3F4F7901D9011D92E4
:101FE0008A95E9F74115510521F0BA01C8010E940F
:101FF00016248114910421F0B401C7010E94162413
:10200000F80101900020E9F731979E2E901AF70110
:1020100001900020E9F731978E2E8E180E942D171F
:102020002B013C01C501AA2797FDA095BA2F480EA8
:10203000591E6A1E7B1EA12CB12C809151059091D6
:102040005205DC01ED91FC910480F581E02D0995AC
:10205000892BF9F0C6010E94A40FF801EB0DF11DC8
:102060009081891302C0B39401C0B12CF701EA0D2D
:10207000F11D9081891302C0A39401C0A12C992065
:1020800011F0B914C9F08820C1F2A810D6CF82E0AF
:1020900014C083E595E00E94E50D6AE070E080E001
:1020A00090E00E945C170E942D1764157505860547
:1020B000970518F280E001C081E0A0960FB6F89471
:1020C000DEBF0FBECDBFDF91CF911F910F91FF906B
:1020D000EF90DF90CF90BF90AF909F908F907F90C8
:1020E0006F905F904F900895CF93DF93EC01FC01C8
:1020F000EF58FF4F1082E058FF4F108289819A817C
:102100009E7F9A838F7D8F778983E158F1091082B2
:10211000CE010E94490F8823C9F04DEF51E06CE2D7
:1021200072E0CE010E94B00E28ED32E044E153E0AF
:1021300068EB7BE0CE010E94C60F91E0811101C0E7
:1021400090E0898190FB81F9898301C090E0892F1B
:10215000DF91CF9108951F93CF93DF93EC014DEF63
:1021600051E068E372E00E94B00E26E033E045EBF8
:1021700052E06EE571E0CE010E94C60F182F20E0FC
:1021800030E044E153E06AE070E0CE010E94C60F07
:1021900069E671E083E995E00E945A1B4AE050E04D
:1021A000612F83E995E00E94491C81E0111180E0D4
:1021B000DF91CF911F910895CF93DF93EC0140E021
:1021C00050E069E572E00E94B00EBE01675E7F4F8D
:1021D00080915105909152050E945A1B40E050E0B9
:1021E00064E072E0CE010E94B00EBE01635D7F4FDD
:1021F00080915105909152050E945A1B898183FF5D
:1022000006C06FE671E083E995E00E94791B4DEF0F
:1022100051E06FEF71E0CE010E94B00E2CE033E090
:1022200044E153E068E97AE3CE010E94C60F8130B1
:1022300029F4CE01DF91CF910C94AB1080E0DF91B7
:10224000CF9108950F931F93CF93DF93EC018A01F1
:1022500044E150E049960E941D2444E150E0B80159
:10226000CE018D960E941D24898180648983CE01D0
:10227000DF91CF911F910F910C94DC10CF93DF93DE
:10228000EC014DEF51E06CE272E00E94B00E40E0D4
:1022900050E06AE772E0CE010E94B00E8A8140E011
:1022A00050E085FF03C068E672E002C064E672E0B9
:1022B000CE010E94B00E40E050E064E072E0CE013A
:1022C0000E94B00EBE016D5F7F4F809151059091CD
:1022D00052050E945A1B40E050E068E072E0CE01D7
:1022E0000E94B00EBE016D5E7F4F809151059091AE
:1022F00052050E94791B23EC32E04AEC52E060E187
:1023000077E2CE010E94C60F91E0811101C090E0FA
:10231000898190FB85F98983992319F0C059DF4F92
:102320001882892FDF91CF9108950F931F93CF9338
:10233000DF93EC018A0140E150E003960E943C24C7
:1023400046E050E0B801CE0143960E943C248981CA
:1023500080618983CE01DF91CF911F910F910C9401
:102360003E11CF93DF93EC0189818F7D8F7E89832E
:1023700040E050E06CE672E0CE010E94B00E20E03A
:1023800030E044E153E060ED77E0CE01DF91CF91A2
:102390000C94C60FCF93DF93EC0140E050E069E965
:1023A00072E00E94B00EBE016C597F4F80915105C2
:1023B000909152050E94791B2CEF32E044E153E0EA
:1023C00060ED77E0CE010E94C60F91E0811101C05F
:1023D00090E08A8190FB82F98A83892FDF91CF91E7
:1023E0000895CF93DF93EC014DEF51E061E472E08B
:1023F0000E94B00E2CEF32E044E153E060ED77E054
:10240000CE010E94C60F882309F449C040E050E085
:1024100061E272E0CE010E94B00EBE016F5B7F4FA1
:1024200080915105909152050E945A1B40E050E066
:1024300064E072E0CE010E94B00EBE016F5A7F4F81
:1024400080915105909152050E945A1B40E050E046
:1024500068E072E0CE010E94B00EBE016F597F4F5E
:1024600080915105909152050E945A1B4DEF51E009
:1024700061E072E0CE010E94B00E26E033E044E15C
:1024800053E068E873E1CE010E94C60F91E081300D
:1024900009F090E08A8190FB81F98A8301C090E085
:1024A000892FDF91CF910895CF93DF93EC010E94A4
:1024B0007410811102C080E024C0898187FD04C0AE
:1024C0008A8180FF0CC006C0CE010E94F1118111EB
:1024D000F7CFF1CFCE010E94CA11882361F3898121
:1024E00086FF05C0CE010E94DC10882321F389817C
:1024F00084FD02C081E005C0CE01DF91CF910C9434
:102500003E11DF91CF910895CF93DF93EC01FC0151
:10251000E059FF4F2081233010F5998194FF29C0A5
:1025200095FB882780F995FD25C02F5F2083898141
:1025300086FF1AC0CE010E94AB10811115C0CE01DA
:102540000E94DC10811110C060ED77E080E090E027
:102550000E945C17CE010E94AB10811105C0CE0114
:10256000DF91CF910C945412CE01DF91CF910C9456
:102570003E1181E0DF91CF9108956F927F929F92FB
:10258000AF92BF92CF92DF92EF92FF920F931F9381
:10259000CF93DF931F92CDB7DEB73C017B015A0189
:1025A00069010E948412F301818185FB992490F8CE
:1025B00085FFF3C0E059FF4F1082F301818183FF53
:1025C0000CC06AE571E083E995E00E94671B6EE448
:1025D00071E083E995E00E94671BD6010D90002011
:1025E000E9F71197AC19BD09F70101900020E9F74F
:1025F0009F01215031092E193F09F8010190002057
:10260000E9F73197E01BF10B8E2F40E05AE0882369
:1026100029F0652F0E947C214F5FF9CF2A0F235AA2
:102620002E0F240FF301828183FD2E5F40E050E0E6
:1026300069EA72E0C30129830E94B00E61E38091D0
:102640005105909152050E945C1B40E050E06BE008
:1026500072E0C3010E94B00E4AE050E02981622F6F
:1026600080915105909152050E94491C28EE32E05C
:1026700046ED52E068EE73E0C3010E94C60FB82E2B
:10268000F301818183FF0DC068E371E083E995E088
:102690000E94371B4AE050E06B2D83E995E00E94D1
:1026A000491CF1E0BF126AC040E050E063EE71E007
:1026B000C3010E94B00EB601809151059091520560
:1026C0000E945A1B40E050E069ED71E0C3010E9496
:1026D000B00E40E050E069EE71E0C3010E94B00E20
:1026E00040E050E062ED71E0C3010E94B00EB7011E
:1026F00080915105909152050E94791B40E050E075
:1027000061EC71E0C3010E94B00EF801019000205D
:10271000E9F7BF0161507109601B710B4AE050E09D
:1027200080915105909152050E94601C49EE51E044
:102730006FE871E0C3010E94B00EB80180915105AD
:10274000909152050E94791B21ED32E044EF52E056
:1027500068E873E1C3010E94C60F813079F4F30188
:10276000818183FB112710F983FF25C069E271E0A5
:1027700083E995E00E94671B912E1DC0F3018181C2
:1027800083FB992490F883FF16C06DE171E083E923
:1027900095E00E94671B912C0EC083FF06C06EE679
:1027A00071E083E995E00E94671BA501B701C301B1
:1027B0000E949511F8CE892D0F90DF91CF911F9136
:1027C0000F91FF90EF90DF90CF90BF90AF909F90D0
:1027D0007F906F9008958F92AF92CF92EF920F9368
:1027E0001F921F9283E08F9397E0892E26E0A22EFE
:1027F00035E0C32E44E0E42E00E021E042E06FE348
:102800008EE595E00E94610B0F900F900F902CE4E5
:102810003EE044E650E060E070E083E595E00F9133
:10282000EF90CF90AF908F900C94D70D8F929F9296
:10283000AF92BF92CF92DF92EF92FF92CF93DF934E
:10284000DC01AB011616170654F060EB71E083E96A
:1028500095E00E94791B60E070E0CB0174C06530A8
:102860007105FCF460E070E0CB0120E030E0CD9039
:10287000DD90EE24D7FCE094FE2C6C0D7D1D8E1DAA
:102880009F1D2F5F3F4F2417350789F7442737FDDA
:102890004095542F0E94BE21CA01B9010E946120B7
:1028A00052C0ED91FC91119712962D913C91139786
:1028B000E217F3072CF49E2F8F2FF901292F382FC1
:1028C000149660E070E0CB01C2E0D0E0CD90DD90E6
:1028D000C216D3065CF44901AA2497FCA094BA2C32
:1028E000680D791D8A1D9B1D960116C0EC15FD050E
:1028F0005CF44F01AA2497FCA094BA2C680D791DB2
:102900008A1D9B1DF60108C0EE24D7FCE094FE2C26
:102910006C0D7D1D8E1D9F1D2196C417D507B1F628
:102920000E9461206B017C01BE0162507109882701
:1029300077FD8095982F0E9461209B01AC01C70113
:10294000B6010E94C61FDF91CF91FF90EF90DF90FC
:10295000CF90BF90AF909F908F900895CF92DF92CD
:10296000EF92FF920F931F93CF93DF93CDB7DEB714
:10297000A8970FB6F894DEBF0FBECDBF8E010F5FD4
:102980001F4F7E0189E2E80EF11C680181E10E947F
:10299000DC17F801819391938F0164E170E080E08E
:1029A00090E00E945C170E151F0581F764E170E04E
:1029B000C6010E94161420E030E040EA50E40E9474
:1029C000152120E030E040E85AE30E941521609391
:1029D000810570938205809383059093840520E0A0
:1029E00030E040E650E40E94152120E030E0A901EB
:1029F0000E945E1F60937D0570937E0580937F0526
:102A0000909380056AED71E083E995E00E945A1B7E
:102A100040917D0550917E0560917F057091800504
:102A200022E030E083E995E00E94631D60917D051E
:102A300070917E0580917F0590918005A8960FB6D4
:102A4000F894DEBF0FBECDBFDF91CF911F910F91E4
:102A5000FF90EF90DF90CF9008950F931F93CF9347
:102A6000DF938B01EC0184E291E0899399936FEA03
:102A700071E0CE010E94E31DB801CE01DF91CF913C
:102A80001F910F910C94191E2091890521110BC0E3
:102A900090938805809387057093860560938505DC
:102AA00081E08093890508959F92AF92BF92CF9263
:102AB000DF92EF92FF920F931F93CF93DF9300D09B
:102AC00000D000D0CDB7DEB75C01962E8E010F5F2F
:102AD0001F4F8091300690913106009711F484E3E6
:102AE00096E0B801681B790B4AE050E083E995E075
:102AF0000E94241CD501ED91FC910190F081E02D04
:102B0000C50109956B017C01F5016087718782879A
:102B1000938720E030E04AE754EC0E94C21F8823EC
:102B200009F473C063E272E0C8010E94E31DB501BD
:102B30006E5F7F4FC8010E94A21E68E272E00E9491
:102B4000B51E62E172E00E94B51E6EE272E00E9464
:102B5000B51E61E072E00E94B51E64E372E00E945F
:102B6000B51EB701A6010E94CF1E7C0186E090E051
:102B70000E94F51A6C01B7010E94101EC8010E9444
:102B8000751D86E090E00E94F51A7C016CEE71E004
:102B90000E94E31D69E273E083E995E00E94671BF0
:102BA0006091850570918605D6010D911C91F70104
:102BB00020813181AB01425E5F4F8091870590910A
:102BC00088050E94BD12992031F08091870590916F
:102BD00088050E94B111C114D10431F0C6010E94D0
:102BE000751DC6010E94F71AE114F10431F0C70106
:102BF0000E94751DC7010E94F71A68E173E083E91E
:102C000095E00E94671B81E001C080E026960FB628
:102C1000F894DEBF0FBECDBFDF91CF911F910F9112
:102C2000FF90EF90DF90CF90BF90AF909F9008956E
:102C3000CF92DF92EF92FF920F931F93CF93DF9388
:102C4000EC0180E090E0A0E2B2EC88879987AA8747
:102C5000BB8708E210E0C12CD12C8AE7E82E84EC77
:102C6000F82E688579858A859B850E942E2077FFBE
:102C700016C00115110599F08C859D850E944F0D98
:102C8000015011090130110529F0688779878A8779
:102C90009B87E7CFC886D986EA86FB86E2CF6CE3BE
:102CA00073E083E995E00E94371B488559856A8562
:102CB0007B8522E030E083E995E00E94631D688512
:102CC00079858A859B85DF91CF911F910F91FF9028
:102CD000EF90DF90CF900895CF93DF93EC010E94A7
:102CE0002D1580E492E099838883DF91CF91089538
:102CF000FC01758764870895CF92DF92EF92FF926F
:102D00000F931F93CF93DF93EC0180E090E0A0E25C
:102D1000B2EC88879987AA87BB8708E210E0C12CAC
:102D2000D12C8AE7E82E84ECF82E688579858A858F
:102D30009B850E942E2069517C4F603C7340B0F40B
:102D40000115110599F08C859D850E94380D015063
:102D500011090130110529F0688779878A879B87D7
:102D6000E4CFC886D986EA86FB86DFCF64E473E0C9
:102D700083E995E00E94371B488559856A857B85E4
:102D800022E030E083E995E00E94631D6885798543
:102D90008A859B85DF91CF911F910F91FF90EF90D6
:102DA000DF90CF900895CF93DF93EC010E942D1513
:102DB00086E492E099838883DF91CF910895FC01A6
:102DC0007587648708951F920F920FB60F92112492
:102DD0002F933F938F939F93AF93BF9380918B05D6
:102DE00090918C05A0918D05B0918E0530918A054A
:102DF00023E0230F2D3720F40196A11DB11D05C03E
:102E000026E8230F0296A11DB11D20938A05809309
:102E10008B0590938C05A0938D05B0938E058091C2
:102E20008F0590919005A0919105B0919205019622
:102E3000A11DB11D80938F0590939005A0939105DE
:102E4000B0939205BF91AF919F918F913F912F9138
:102E50000F900FBE0F901F9018952FB7F8946091A8
:102E60008B0570918C0580918D0590918E052FBFFB
:102E700008953FB7F89480918F0590919005A091A7
:102E80009105B091920526B5A89B05C02F3F19F07A
:102E90000196A11DB11D3FBF6627782F892F9A2F5C
:102EA000620F711D811D911D42E0660F771F881F03
:102EB000991F4A95D1F708958F929F92AF92BF9232
:102EC000CF92DF92EF92FF926B017C010E94391743
:102ED0004B015C01C114D104E104F104F1F00E9442
:102EE0005C1F0E943917681979098A099B09683E95
:102EF00073408105910570F321E0C21AD108E10801
:102F0000F10888EE880E83E0981EA11CB11CC11444
:102F1000D104E104F10429F7DDCFFF90EF90DF90B9
:102F2000CF90BF90AF909F908F9008958230910581
:102F300038F0880F991F880F991F05970197F1F7AF
:102F40000895789484B5826084BD84B5816084BD21
:102F500085B5826085BD85B5816085BDEEE6F0E012
:102F6000808181608083E1E8F0E01082808182606E
:102F70008083808181608083E0E8F0E080818160EF
:102F80008083E1EBF0E0808184608083E0EBF0E01F
:102F9000808181608083EAE7F0E0808184608083C3
:102FA000808182608083808181608083808180686D
:102FB00080831092C10008958E3008F08E50877083
:102FC00020910A0190E4299F90011124822B809383
:102FD0007C0080917A00806480937A0080917A00EE
:102FE00086FDFCCF809178002091790090E0922BB3
:102FF0000895833081F028F4813099F08230A1F077
:1030000008958730A9F08830B9F08430D1F48091E8
:1030100080008F7D03C0809180008F778093800037
:10302000089584B58F7702C084B58F7D84BD0895DF
:103030008091B0008F7703C08091B0008F7D809326
:10304000B0000895CF93DF9390E0FC01ED59FC4F61
:103050002491FC01E958FC4F8491882349F190E0C8
:10306000880F991FFC01E156FC4FA591B4918B5636
:103070009C4FFC01C591D4919FB7611108C0F89491
:103080008C91209582238C93888182230AC06230A0
:1030900051F4F8948C91322F309583238C9388814E
:1030A000822B888304C0F8948C91822B8C939FBFD1
:1030B000DF91CF9108950F931F93CF93DF931F92CA
:1030C000CDB7DEB7282F30E0F901E15BFC4F8491EA
:1030D000F901ED59FC4F1491F901E958FC4F0491A5
:1030E0000023C9F0882321F069830E94F9176981C0
:1030F000E02FF0E0EE0FFF1FEB56FC4FA591B491CF
:103100009FB7F8948C91611103C01095812301C081
:10311000812B8C939FBF0F90DF91CF911F910F91C7
:103120000895CF93DF93282F30E0F901E15BFC4F46
:103130008491F901ED59FC4FD491F901E958FC4F04
:10314000C491CC2391F081110E94F917EC2FF0E08B
:10315000EE0FFF1FE557FC4FA591B4912C912D2345
:1031600081E090E021F480E002C080E090E0DF9117
:10317000CF910895BF92CF92DF92EF92FF920F937B
:103180001F93CF93DF93C82ED62EB42EC7E0D0E086
:10319000022F10E087E0E82EF12CB1100AC0F701F1
:1031A000EC1BFD0BB80102C075956795EA95E2F737
:1031B00007C0B8010C2E02C0759567950A94E2F716
:1031C000617077278C2D0E945B1861E08D2D0E9425
:1031D0005B1860E08D2D0E945B182197F0F6DF915F
:1031E000CF911F910F91FF90EF90DF90CF90BF9004
:1031F00008950E940924FC01818D228D90E0805C5D
:103200009F4F821B91098F7399270895FC01918D1F
:10321000828D981731F0828DE80FF11D858D90E039
:1032200008958FEF9FEF0895FC01918D828D98177F
:1032300061F0828DDF01A80FB11D5D968C91928D9A
:103240009F5F9F73928F90E008958FEF9FEF089597
:1032500088E99AE1892B49F080E090E0892B29F0F8
:103260000E94981A81110C9400000895FC01848D2D
:10327000DF01A80FB11DA35ABF4F2C91848D90E0A0
:1032800001968F739927848FA689B7892C93A0897B
:10329000B1898C9180648C93938D848D981306C032
:1032A0000288F389E02D80818F7D80830895CF93FC
:1032B000DF93EC01888D8823C9F0EA89FB8980813E
:1032C00085FD05C0A889B9898C9186FD0FC00FB610
:1032D00007FCF5CF808185FFF2CFA889B9898C9151
:1032E00085FFEDCFCE010E943619E7CFDF91CF9158
:1032F0000895CF92DF92FF920F931F93CF93DF93A6
:103300001F92CDB7DEB76C0181E0D60158968C9341
:1033100058975B969C915B975C968C915C97981301
:1033200007C05096ED91FC915197808185FD2EC08C
:10333000F601038D10E00F5F1F4F0F731127F02E62
:10334000F601848DF81211C00FB607FCF9CFD60133
:103350005096ED91FC915197808185FFF1CFC60188
:1033600069830E9436196981EBCF838DE80FF11DC7
:10337000E35AFF4F6083D6015B960C935B9752969E
:10338000ED91FC915397808180620CC0D6015696D6
:10339000ED91FC91579760835096ED91FC91519778
:1033A00080818064808381E090E00F90DF91CF91F5
:1033B0001F910F91FF90DF90CF900895BF92CF9211
:1033C000DF92EF92FF92CF93DF93EC016A017B01D2
:1033D000B22EE889F98982E08083411581EE580791
:1033E00061057105A1F060E079E08DE390E0A7014F
:1033F00096010E949C21215031094109510956959D
:10340000479537952795211580E1380798F0E88989
:10341000F989108260E874E88EE190E0A7019601D6
:103420000E949C2121503109410951095695479527
:1034300037952795EC85FD853083EE85FF852083C4
:10344000188EEC89FD89B082EA89FB8980818061D0
:103450008083EA89FB89808188608083EA89FB898F
:10346000808180688083EA89FB8980818F7D808369
:10347000DF91CF91FF90EF90DF90CF90BF900895B4
:103480001F920F920FB60F9211242F938F939F9339
:10349000EF93FF93E091A305F091A4058081E09163
:1034A000A905F091AA0582FD12C090818091AC051A
:1034B0008F5F8F732091AD05821751F0E091AC05BD
:1034C000F0E0ED56FA4F958F8093AC0501C08081F6
:1034D000FF91EF919F918F912F910F900FBE0F90C1
:1034E0001F9018951F920F920FB60F9211242F93D1
:1034F0003F934F935F936F937F938F939F93AF937C
:10350000BF93EF93FF9383E995E00E943619FF91F3
:10351000EF91BF91AF919F918F917F916F915F914B
:103520004F913F912F910F900FBE0F901F901895C4
:1035300083E995E00E94FB1821E0892B09F420E043
:10354000822F0895109296051092950588EE93E0CB
:10355000A0E0B0E08093970590939805A09399051B
:10356000B0939A058CE492E0909394058093930530
:1035700085EC90E09093A00580939F0584EC90E00B
:103580009093A2058093A10580EC90E09093A40510
:103590008093A30581EC90E09093A6058093A50508
:1035A00082EC90E09093A8058093A70586EC90E0CC
:1035B0009093AA058093A9051092AC051092AD05D1
:1035C0001092AE051092AF05089508950E94A117BC
:1035D0000E94E51A0E94AF03C8E2D9E10E941703D6
:1035E0002097E1F30E942819F9CF0C9418220C942B
:1035F000B022CF92DF92EF92FF920F931F93CF935F
:10360000DF937C016A01EB0100E010E00C151D0561
:1036100071F06991D701ED91FC910190F081E02D5D
:10362000C7010995892B19F00F5F1F4FEFCFC80114
:10363000DF91CF911F910F91FF90EF90DF90CF908E
:1036400008956115710581F0DB010D900020E9F707
:10365000AD0141505109461B570BDC01ED91FC9126
:103660000280F381E02D099480E090E00895EF92CC
:10367000FF920F931F93CF93DF938C017B01C0E0E8
:10368000D0E0F701EC0FFD1F6491662359F0F801BB
:10369000A081B181ED91FC91C8010995892B11F0B0
:1036A0002196EFCFCE01DF91CF911F910F91FF9027
:1036B000EF9008950C94211BDC01ED91FC91019099
:1036C000F081E02D09946DEA71E00C94211B0F93B9
:1036D0001F93CF93DF93EC010E94371B8C01CE0127
:1036E0000E94631B800F911FDF91CF911F910F915B
:1036F00008950F931F93CF93DF93EC010E94211B3A
:103700008C01CE010E94631B800F911FDF91CF912E
:103710001F910F9108958F929F92AF92BF92DF9267
:10372000EF92FF920F931F93CF93DF93CDB7DEB746
:10373000A1970FB6F894DEBF0FBECDBF7C01F42F6A
:10374000D52ECB0119A2223008F42AE08E010F5D9C
:103750001F4F822E912CA12CB12C6F2F7D2DA501F6
:1037600094010E949C21F22FD32ECA01015011090D
:103770006A3014F4E0E301C0E7E3E60FD801EC930C
:10378000232B242B252B49F7B801C7010E94211BAD
:10379000A1960FB6F894DEBF0FBECDBFDF91CF91DB
:1037A0001F910F91FF90EF90DF90BF90AF909F908F
:1037B0008F900895CF92DF92EF92FF920F931F9315
:1037C000CF93DF93EC016A017B012115310579F478
:1037D000E881F9810190F081E02D642FDF91CF9194
:1037E0001F910F91FF90EF90DF90CF9009942A30B6
:1037F0003105E9F477FF1AC06DE20E945C1B8C0171
:1038000044275527BA014C195D096E097F092AE042
:10381000CE010E948B1B800F911FDF91CF911F91D2
:103820000F91FF90EF90DF90CF9008952AE0B701BD
:10383000A601CE01DF91CF911F910F91FF90EF90E4
:10384000DF90CF900C948B1B0F931F93CF93DF933C
:10385000EC019A01AB01662757FD6095762F0E9417
:10386000DA1B8C01CE010E94631B800F911FDF9138
:10387000CF911F910F9108952115310541F4DC017D
:10388000ED91FC910190F081E02D642F09940C944E
:103890008B1B0F931F93CF93DF93EC019A01462F5D
:1038A00050E060E070E00E943C1C8C01CE010E9460
:1038B000631B800F911FDF91CF911F910F9108958E
:1038C0000F931F93CF93DF93EC019A01AB0160E05C
:1038D00070E00E943C1C8C01CE010E94631B800F93
:1038E000911FDF91CF911F910F9108954F925F9299
:1038F0006F927F928F929F92AF92BF92CF92DF9200
:10390000EF92FF920F931F93CF93DF93EC016A0125
:103910007B01B22E9A01AB01C701B6010E9478214A
:10392000882319F068E572E027C026013701E89482
:1039300077F82FEF3FEF4FE75FE7C301B2010E9437
:10394000782181110DC02FEF3FEF4FE75FE7C301F3
:10395000B2010E94C21F18161CF46CE572E00CC084
:103960002FEF3FEF4FE75FE4C701B6010E9411213F
:103970001816ACF460E672E0CE01DF91CF911F9192
:103980000F91FF90EF90DF90CF90BF90AF909F90FE
:103990008F907F906F905F904F900C94211B2FEF32
:1039A0003FEF4FE75FECC701B6010E94C21F87FDE2
:1039B000E1CF20E030E0A901C701B6010E94C21F9B
:1039C00087FF0AC06DE2CE010E945C1B8C01F7FAF2
:1039D000F094F7F8F09402C000E010E0A12C60E051
:1039E00070E080E09FE3AB1441F020E030E040E283
:1039F00051E40E94C61FA394F6CF9B01AC01C701FE
:103A0000B6010E945E1F6B017C010E9433202B01D6
:103A10003C010E945F209B01AC01C701B6010E94DE
:103A20005D1F6B017C012AE0B301A201CE010E945F
:103A30008B1B080F191FBB2039F064E672E0CE0122
:103A40000E94211B080F191F7B2C772041F120E0D9
:103A500030E040E251E4C701B6010E9415216B013C
:103A60007C010E942E204B01AA2497FCA094BA2C22
:103A70002AE030E0B501A401CE010E94DA1B080F54
:103A8000191FC501B4010E9461209B01AC01C7014F
:103A9000B6010E945D1F6B017C017A94D6CFC801EC
:103AA000DF91CF911F910F91FF90EF90DF90CF901A
:103AB000BF90AF909F908F907F906F905F904F904E
:103AC00008950C94761C0F931F93CF93DF93EC0112
:103AD0000E94761C8C01CE010E94631B800F911FF7
:103AE000DF91CF911F910F910895FC018081918109
:103AF0000C94B022CF93DF93EC01888199810097D9
:103B000011F00E94B022198218821D821C821B8231
:103B10001A82DF91CF9108950F931F93CF93DF9374
:103B2000EC018B016F5F7F4F888199810E943F2359
:103B3000009731F0998388831B830A8381E001C059
:103B400080E0DF91CF911F910F910895CF93DF9384
:103B5000EC0188819981892B29F08A819B818617C4
:103B6000970760F4CE010E948C1D882341F08C8160
:103B70009D81892B19F4E881F981108281E0DF9120
:103B8000CF910895EF92FF920F931F93CF93DF93FE
:103B9000EC017B018A01BA010E94A61D811104C0BB
:103BA000CE010E947A1D07C01D830C83B701888156
:103BB00099810E943524CE01DF91CF911F910F9101
:103BC000FF90EF900895FC011182108213821282FF
:103BD000158214826115710559F0FB0101900020D6
:103BE000E9F7AF0141505109461B570B0C94C21D18
:103BF0000895CF93DF93EC01FB018617970761F0DF
:103C0000608171816115710529F0448155810E949F
:103C1000C21D02C00E947A1DCE01DF91CF9108958E
:103C2000FC011182108213821282158214820C947C
:103C3000F91DCF93DF93EC016115710561F0FB0174
:103C400001900020E9F7AF0141505109461B570B85
:103C50000E94C21D02C00E947A1DCE01DF91CF9149
:103C60000895EF92FF920F931F93CF93DF93EC0190
:103C70007B010C811D816115710511F480E016C076
:103C80004115510591F0040F151FB8010E94A61DA2
:103C90008823A1F3288139818C819D81B701820F0E
:103CA000931F0E9435241D830C8381E0DF91CF9107
:103CB0001F910F91FF90EF900895CF93DF9300D065
:103CC000CDB7DEB769831A8241E050E0BE016F5F75
:103CD0007F4F0E94311E0F900F90DF91CF9108957A
:103CE000EF92FF920F931F93CF93DF93CDB7DEB781
:103CF00064970FB6F894DEBF0FBECDBF7C01CB0139
:103D0000BA018E010F5F1F4F22E044E00E94F721AD
:103D1000FC0101900020E9F7AF0141505109481B17
:103D2000590BBC01C7010E94311E64960FB6F8946E
:103D3000DEBF0FBECDBFDF91CF911F910F91FF90DE
:103D4000EF900895CF93DF93EC01FB0144815581FF
:103D5000608171810E94311E811103C0CE010E94D9
:103D60007A1DCE01DF91CF910895CF93DF93EC01BF
:103D70006115710569F0FB0101900020E9F7AF01C1
:103D800041505109461B570B0E94311E811103C03F
:103D9000CE010E947A1DCE01DF91CF910895CF937D
:103DA000DF93EC010E94701E811103C0CE010E94BE
:103DB0007A1DCE01DF91CF910895CF93DF93FC015F
:103DC000848195814817590778F4C081D181FB011E
:103DD00060817181CE01840F951F0E944B24009752
:103DE00019F08C1B9D0B02C08FEF9FEFDF91CF91DD
:103DF000089540E050E00C94DD1EAF92BF92CF9248
:103E0000DF92EF92FF920F931F93CF93DF937C018A
:103E1000DC01CD90DC901197C114D10409F441C0AC
:103E20001496CD91DC9115972097D9F15601850113
:103E3000BFEFAB1ABB0AF8018081992787FD9095E7
:103E40000E940E24892B99F72197CC0DDD1D8881C6
:103E5000992787FD90950E940E24892B91F4AE013D
:103E60004F5F5F4F401B510BD70115965C934E93EC
:103E70001497C016D10650F4B801C6010E942C2434
:103E800005C0C017D10758F32197E1CFD701ED91B5
:103E9000FC91119714968D919C911597E80FF91F3D
:103EA0001082DF91CF911F910F91FF90EF90DF90E3
:103EB000CF90BF90AF90089508955058BB27AA2780
:103EC0000ED075C166D130F06BD120F031F49F3F38
:103ED00011F41EF45BC10EF4E095E7FB51C1E92F2C
:103EE00077D180F3BA17620773078407950718F034
:103EF00071F49EF58FC10EF4E0950B2EBA2FA02D14
:103F00000B01B90190010C01CA01A0011124FF2786
:103F1000591B99F0593F50F4503E68F11A16F04081
:103F2000A22F232F342F4427585FF3CF4695379580
:103F30002795A795F0405395C9F77EF41F16BA0B45
:103F4000620B730B840BBAF09150A1F0FF0FBB1FF3
:103F5000661F771F881FC2F70EC0BA0F621F731F3C
:103F6000841F48F4879577956795B795F7959E3F99
:103F700008F0B3CF9395880F08F09927EE0F979527
:103F800087950895D9D008F481E008950CD00FC129
:103F900007D140F0FED030F021F45F3F19F0F0C0BF
:103FA000511139C1F3C014D198F39923C9F35523A2
:103FB000B1F3951B550BBB27AA276217730784071C
:103FC00038F09F5F5F4F220F331F441FAA1FA9F3D2
:103FD00033D00E2E3AF0E0E830D091505040E695C4
:103FE000001CCAF729D0FE2F27D0660F771F881F25
:103FF000BB1F261737074807AB07B0E809F0BB0B14
:10400000802DBF01FF2793585F4F2AF09E3F510537
:1040100068F0B6C000C15F3FECF3983EDCF38695D4
:1040200077956795B795F7959F5FC9F7880F911DAD
:104030009695879597F90895E1E0660F771F881F99
:10404000BB1F621773078407BA0720F0621B730B4C
:10405000840BBA0BEE1F88F7E095089504D068949E
:10406000B111D9C00895BCD088F09F5790F0B92FF6
:104070009927B751A0F0D1F0660F771F881F991FBD
:104080001AF0BA95C9F712C0B13081F0C3D0B1E0CF
:104090000895C0C0672F782F8827B85F39F0B93FDF
:1040A000CCF3869577956795B395D9F73EF49095BF
:1040B0008095709561957F4F8F4F9F4F0895E8943D
:1040C00009C097FB3EF490958095709561957F4F60
:1040D0008F4F9F4F9923A9F0F92F96E9BB2793950E
:1040E000F695879577956795B795F111F8CFFAF41E
:1040F000BB0F11F460FF1BC06F5F7F4F8F4F9F4F4F
:1041000016C0882311F096E911C0772321F09EE8AC
:10411000872F762F05C0662371F096E8862F70E012
:1041200060E02AF09A95660F771F881FDAF7880FEC
:104130009695879597F90895990F0008550FAA0B42
:10414000E0E8FEEF16161706E807F907C0F01216AA
:104150001306E407F50798F0621B730B840B950BAD
:1041600039F40A2661F0232B242B252B21F4089502
:104170000A2609F4A140A6958FEF811D811D08959F
:1041800097F99F6780E870E060E008959FEF80EC0A
:10419000089500240A9416161706180609060895AD
:1041A00000240A9412161306140605060895092E13
:1041B0000394000C11F4882352F0BB0F40F4BF2B82
:1041C00011F460FF04C06F5F7F4F8F4F9F4F0895C2
:1041D00057FD9058440F551F59F05F3F71F04795B8
:1041E000880F97FB991F61F09F3F79F0879508959D
:1041F000121613061406551FF2CF4695F1DF08C0BC
:10420000161617061806991FF1CF869571056105D8
:1042100008940895E894BB2766277727CB0197F980
:1042200008958ADF08F48FEF08950BD0C0CFB1DF77
:1042300028F0B6DF18F0952309F0A2CFA7CF1124FC
:10424000EACFC6DFA0F3959FD1F3950F50E0551F3D
:10425000629FF001729FBB27F00DB11D639FAA27DB
:10426000F00DB11DAA1F649F6627B00DA11D661F2A
:10427000829F2227B00DA11D621F739FB00DA11D4B
:10428000621F839FA00D611D221F749F3327A00D05
:10429000611D231F849F600D211D822F762F6A2FA1
:1042A00011249F5750408AF0E1F088234AF0EE0F26
:1042B000FF1FBB1F661F771F881F91505040A9F733
:1042C0009E3F510570F05CCFA6CF5F3FECF3983E68
:1042D000DCF3869577956795B795F795E7959F5F9A
:1042E000C1F7FE2B880F911D9695879597F9089534
:1042F00023DF880B990B0895991B79E004C0991F5F
:10430000961708F0961B881F7A95C9F7809508952F
:1043100097FB072E16F4009407D077FD09D00E9472
:10432000E32107FC05D03EF4909581959F4F0895B9
:10433000709561957F4F0895A1E21A2EAA1BBB1BB1
:10434000FD010DC0AA1FBB1FEE1FFF1FA217B30761
:10435000E407F50720F0A21BB30BE40BF50B661F77
:10436000771F881F991F1A9469F76095709580953B
:1043700090959B01AC01BD01CF010895052E97FBDF
:104380001EF400940E94D52157FD07D00E949C2165
:1043900007FC03D04EF40C94D521509540953095F0
:1043A00021953F4F4F4F5F4F0895909580957095A1
:1043B00061957F4F8F4F9F4F0895EE0FFF1F059020
:1043C000F491E02D0994AA1BBB1B51E107C0AA1F61
:1043D000BB1FA617B70710F0A61BB70B881F991FA6
:1043E0005A95A9F780959095BC01CD010895EF925B
:1043F0000F931F93CF93DF93E80147FF02C034E18F
:1044000001C034E0E42FFF27E7FDF095F7FF03C07C
:10441000F195E195F109E32E022F2E2FAE010E94B6
:104420006524CE01DF91CF911F910F91EF900895F8
:10443000CF93DF938230910510F482E090E0E09119
:104440003206F091330620E030E0A0E0B0E0309793
:1044500039F14081518148175907B8F04817590779
:1044600071F482819381109729F013969C938E9317
:1044700012972CC0909333068093320627C02115E3
:10448000310531F04217530718F0A901DB0101C0D3
:10449000EF019A01BD01DF010280F381E02DD7CF4A
:1044A00021153105F9F0281B390B2430310580F432
:1044B0008A819B816115710521F0FB0193838283C1
:1044C00004C09093330680933206FE01329644C0B6
:1044D000FE01E20FF31F819391932250310939833A
:1044E00028833AC02091300630913106232B41F4C5
:1044F0002091020130910301309331062093300660
:1045000020910001309101012115310541F42DB7B1
:104510003EB74091040150910501241B350BE091F9
:104520003006F0913106E217F307A0F42E1B3F0B83
:104530002817390778F0AC014E5F5F4F2417350715
:1045400048F04E0F5F1F5093310640933006819321
:10455000919302C0E0E0F0E0CF01DF91CF910895A8
:10456000CF93DF93009709F487C0FC013297138241
:104570001282C0913206D0913306209781F42081B7
:104580003181280F391F80913006909131068217B2
:10459000930779F5F0933106E09330066DC0DE01A4
:1045A00020E030E0AE17BF0750F412964D915C91B9
:1045B00013979D014115510509F1DA01F3CFB3833A
:1045C000A28340815181840F951F8A179B0771F444
:1045D0008D919C911197840F951F029691838083F2
:1045E00012968D919C9113979383828321153105A7
:1045F00029F4F0933306E09332063EC0D9011396B6
:10460000FC93EE9312974D915D91A40FB51FEA179D
:10461000FB0779F480819181840F951F0296D9015F
:1046200011969C938E938281938113969C938E9383
:104630001297E0E0F0E08A819B81009719F0FE017B
:10464000EC01F9CFCE01029628813981820F931FA8
:1046500020913006309131062817390769F43097D8
:1046600029F4109233061092320602C0138212828D
:10467000D0933106C0933006DF91CF910895A0E02A
:10468000B0E0E5E4F3E20C94C226EC01CB01209704
:1046900019F40E941822B8C0FE01E60FF71F9E0110
:1046A00022503109E217F30708F4ACC0D9010D918B
:1046B0001C91119706171707B8F00530110508F47B
:1046C0009FC0A801445051094617570708F498C0E5
:1046D00002501109061B170B019311936D937C93E4
:1046E000CF010E94B0228CC05B01A01AB10A4E011A
:1046F000800E911EA0913206B0913306612C712C70
:1047000060E070E0109709F449C0A815B905C9F533
:10471000ED90FC901197670142E0C40ED11CCA14C1
:10472000DB0478F147018A189B08640142E0C40E5B
:10473000D11C1296BC9012971396AC91B5E0CB1693
:10474000D10440F0B282A38391828082D9018D93FB
:104750009C9309C00E5F1F4F0E0D1F1DF9011183A1
:104760000083EB2DFA2F6115710531F0DB011396F3
:10477000FC93EE93129744C0F0933306E093320615
:104780003FC06D917C9111976616770608F43B0146
:10479000BD0112960D90BC91A02DB4CF6091300652
:1047A0007091310668157905E9F468167906D0F438
:1047B00040910001509101014115510541F44DB75F
:1047C0005EB76091040170910501461B570BE41719
:1047D000F507C0F4F0933106E0933006F9019183B8
:1047E00080830EC00E9418227C01009759F0A80116
:1047F000BE010E942C24CE010E94B022C70104C039
:10480000CE0102C080E090E0CDB7DEB7EEE00C94C0
:10481000DE2681E090E0F8940C94F5269111ABC26D
:10482000803219F089508550D0F70895FB01DC01E2
:1048300005900D920020E1F70895FB01DC01415045
:10484000504048F005900D920020C9F701C01D921C
:1048500041505040E0F70895FB01DC0102C0019097
:104860000D9241505040D8F70895FB01DC010190B2
:104870000D920020E1F70895FB01DC01415050400A
:1048800048F001900D920020C9F701C01D924150DF
:104890005040E0F70895FB0151915523A9F0BF0165
:1048A000DC014D9145174111E1F759F4CD0101901B
:1048B000002049F04D9140154111C9F3FB01411110
:1048C000EFCF81E090E0019708956F927F929F92E1
:1048D000AF92BF92CF92DF92EF92FF920F931F930E
:1048E000CF93DF93CDB7DEB729970FB6F894DEBF2D
:1048F0000FBECDBF6A01B22E102F0C3320F4FF245F
:10490000F394F00E02C04CE3F42E0F2D27E0AE011D
:104910004F5F5F4F0E94E3257981272F2970213057
:1049200031F0E1FC06C0E0FC06C060E005C06DE2CD
:1049300003C06BE201C060E2AE2DA07173FF36C010
:10494000662311F084E001C083E08B1510F4B81ADF
:1049500001C0B12CA1110BC0F6018B2D90E2882370
:1049600019F091938150FBCFCB0CD11CB12C662355
:1049700031F0F601608396012F5F3F4F6901C60158
:104980000396E2FE05C02EE4F601208331E404C064
:104990002EE6F601208331E631832283FC012B2DA4
:1049A00030E22223F1F131932150FBCF72FF40C05E
:1049B000662311F084E001C083E08B1510F4B81A6F
:1049C00001C0B12CA1110BC0F6018B2D90E2882300
:1049D00019F091938150FBCFCB0CD11CB12C6623E5
:1049E00031F0F601608396012F5F3F4F6901C601E8
:1049F0000396E2FE07C029E4F60120832EE421831A
:104A000026E406C029E6F60120832EE6218326E669
:104A10002283FC012B2D30E2222319F03193215007
:104A2000FBCFFC01EB0DF11D10828EEF9FEFB7C0A5
:104A3000B1E0611101C0B0E04B2F50E0181619062B
:104A400024F49C012F5F3F4F02C021E030E0240F8F
:104A5000351F112329F0412F50E04F5F5F4F02C0F7
:104A600040E050E0420F531F2B2D30E04217530718
:104A700014F4B41A01C0B12C2E2D287159F4F6018A
:104A80002B2D30E2222319F031932150FBCFCB0C98
:104A9000D11CB12CBB2331F0F601608396012F5F4E
:104AA0003F4F6901A1110BC0F6012B2D30E32223EA
:104AB00019F031932150FBCFCB0CD11CB12CF80E47
:104AC0000A81372F3071A32E74FF03C0013309F41C
:104AD000FA941F142CF42F2D293018F028E001C06F
:104AE00021E0682F392F97FF02C060E030E0462FA9
:104AF000532F612C712C3EE2932EBC01621B710975
:104B00009B01DC01A41BB50BE1E0F0E0EC0FFD1F05
:104B1000AE0FBF1FE12EF12CF194E194F1084F3F4D
:104B2000FFEF5F0731F4F6019082B6016F5F7F4FB0
:104B30006B01841795074CF02417350734F4BD0139
:104B4000660D771DFB01118101C010E34150510931
:104B5000FFEF6F1A7F0AB6016F5F7F4F4E155F053B
:104B600024F0F60110836B01DACF4817590739F4A6
:104B7000063320F4053319F4A11001C011E3F60146
:104B80001083FB018B2D90E2882319F091938150C3
:104B9000FBCFFB01EB0DF11D108280E090E0299628
:104BA0000FB6F894DEBF0FBECDBFDF91CF911F913E
:104BB0000F91FF90EF90DF90CF90BF90AF909F90BC
:104BC0007F906F900895283008F027E03327DA01AE
:104BD000990F311D87FD916000966105710539F4CB
:104BE00032602E5F3D9330E32A95E1F708959F3FB1
:104BF00030F080387105610509F03C5F3C5F3D9302
:104C0000913008F08068911DDF93CF931F930F932D
:104C1000FF92EF92192F987F9695E92F969596958A
:104C2000E90FFF27ED5FFB4F99273327EE24FF2481
:104C3000A701E70105900894079428F4360FE71EB2
:104C4000F81E491F511D660F771F881F991F069474
:104C5000A1F70590079428F4E70EF81E491F561F88
:104C6000C11D770F881F991F661F0694A1F7059035
:104C7000079428F4F80E491F561FC71FD11D880F2F
:104C8000991F661F771F0694A1F70590079420F4DB
:104C9000490F561FC71FD81F990F661F771F881F00
:104CA0000694A9F784911095177041F0D695C79591
:104CB00057954795F794E7941A95C1F7E9EAF3E019
:104CC00068941590159135916591959105907FE2C5
:104CD0007395E118F10A430B560BC90BD009C0F7C5
:104CE000E10CF11E431F561FC91FD01D7EF4703307
:104CF00011F48A95E6CFE894015030F0080F0AF4D9
:104D00000027021708F4202F2395022F7A3328F06A
:104D100079E37D932A95E9F710C07D932A9589F66A
:104D2000069497956795379517951794E118F10AAA
:104D3000430B560BC90BD00998F023957E917395C0
:104D40007A3308F070E37C932013B8F77E9170619A
:104D50007D9330F0839571E37D9370E32A95E1F7BD
:104D60001124EF90FF900F911F91CF91DF91992720
:104D700087FD909508959927882708952F923F924F
:104D80004F925F926F927F928F929F92AF92BF925B
:104D9000CF92DF92EF92FF920F931F93CF93DF9307
:104DA000CDB7DEB7CA1BDB0B0FB6F894DEBF0FBE64
:104DB000CDBF09942A88398848885F846E847D84B1
:104DC0008C849B84AA84B984C884DF80EE80FD80B3
:104DD0000C811B81AA81B981CE0FD11D0FB6F89429
:104DE000DEBF0FBECDBFED01089514E0CCEAD4E0E4
:104DF00004C0FE010E94DF212296CE3AD107C9F7F6
:044E0000F894FFCF54
:104E040000003406800001000000014E68696574EA
:104E140020446F00446F20416D00446F20704800AF
:104E240000000000F91800000000B30486045B04CD
:104E3400630476048504000000000C07F91A770760
:104E4400EB065F075E0700000000BF09F91A520A6B
:104E5400BD09BE09F91800000000BF09F91AEF0BDB
:104E6400D30AE70AD10B4F4B00434F44453A006342
:104E74006F6E6E656374546F4150205F203100473C
:104E8400455420003F0020485454502F312E310DFA
:104E94000A486F73743A20000D0A436F6E6E65639F
:104EA40074696F6E3A20636C6F73650D0A0D0A00A6
:104EB4004572726F72206E756D62657220666F72D4
:104EC4002074686520617272617920746F20617644
:104ED400726167696E67212F6E0070482053656E9A
:104EE400736F723A200000000000AE142F617069E5
:104EF4002F73656E736F722F726573756C74732F75
:104F040000434F4D35393062326234303862626664
:104F140063004B455935386634626132306165311E
:104F240033300073656E3D0026755F6B3D0026636C
:104F34005F6B3D002676616C75653D0000000000E6
:104F44001816000000007C16000000007919F91AF8
:104F5400FB181419061957196E616E00696E660004
:064F64006F7666002E00CE
:107E0000112484B714BE81FFF0D085E080938100F7
:107E100082E08093C00088E18093C10086E0809377
:107E2000C20080E18093C4008EE0C9D0259A86E02C
:107E300020E33CEF91E0309385002093840096BBD3
:107E4000B09BFECF1D9AA8958150A9F7CC24DD24C4
:107E500088248394B5E0AB2EA1E19A2EF3E0BF2EE7
:107E6000A2D0813461F49FD0082FAFD0023811F036
:107E7000013811F484E001C083E08DD089C08234E0
:107E800011F484E103C0853419F485E0A6D080C0E4
:107E9000853579F488D0E82EFF2485D0082F10E0AE
:107EA000102F00270E291F29000F111F8ED06801E7
:107EB0006FC0863521F484E090D080E0DECF843638
:107EC00009F040C070D06FD0082F6DD080E0C81688
:107ED00080E7D80618F4F601B7BEE895C0E0D1E017
:107EE00062D089930C17E1F7F0E0CF16F0E7DF06D8
:107EF00018F0F601B7BEE89568D007B600FCFDCFD4
:107F0000A601A0E0B1E02C9130E011968C91119780
:107F100090E0982F8827822B932B1296FA010C0160
:107F200087BEE89511244E5F5F4FF1E0A038BF0790
:107F300051F7F601A7BEE89507B600FCFDCF97BE46
:107F4000E89526C08437B1F42ED02DD0F82E2BD052
:107F50003CD0F601EF2C8F010F5F1F4F84911BD097
:107F6000EA94F801C1F70894C11CD11CFA94CF0C13
:107F7000D11C0EC0853739F428D08EE10CD085E9AC
:107F80000AD08FE07ACF813511F488E018D01DD067
:107F900080E101D065CF982F8091C00085FFFCCF94
:107FA0009093C60008958091C00087FFFCCF809118
:107FB000C00084FD01C0A8958091C6000895E0E648
:107FC000F0E098E1908380830895EDDF803219F02E
:107FD00088E0F5DFFFCF84E1DECF1F93182FE3DFCA
:107FE0001150E9F7F2DF1F91089580E0E8DFEE27F6
:047FF000FF270994CA
:027FFE00040479
:0400000300007E007B
:00000001FF