:100000000C945A000C9482000C9482000C94820090
:100010000C9482000C9482000C9482000C94820058
:100020000C9482000C9482000C9482000C94820048
:100030000C9482000C9482000C9482000C94820038
:100040000C945B060C9482000C94EE080C9420092E
:100050000C9482000C9482000C9482000C94820018
:100060000C94A5020C94820000000008000201001C
:100070000003040700000000000000000102040863
:100080001020408001020408102001020408102002
:10009000040404040404040402020202020203032E
:1000A0000303030300000000250028002B00840048
:1000B0000302500911241FBECFEFD8E0DEBFCDBF31
:1000C00011E0A0E0B1E0E6E2F4E102C005900D929B
:1000D000AE37B107D9F722E0AEE7B1E001C01D921B
:1000E000AD3FB207E1F710E0C4EBD0E004C02297C7
:1000F000FE010E94080ACE3AD107C9F70E9494096E
:100100000C94110A0C9400008F92AF92CF92EF9250
:100110000F931F921F9283E08F9387E0882E96E0C3
:10012000A92E25E0C22E34E0E32E00E021E042E0DB
:100130006FE38EE791E00E94B2050F900F900F9051
:100140000F91EF90CF90AF908F900895CF93DF9362
:1001500026E040E855E260E070E080E692E00E9430
:100160008C0820E042E060E18EE791E00E944006CA
:10017000C3E0D0E08EE791E00E9445046AEF70E0B2
:1001800080E090E00E94C8068EE791E00E944D0456
:100190006AEF70E080E090E00E94C806219751F776
:1001A0008EE791E00E94450440E060E08EE791E038
:1001B0000E94640460E071E08EE791E00E94E10932
:1001C00068EE73E080E090E00E94C80641E060E0E5
:1001D0008EE791E00E9464046EE071E08EE791E0AA
:1001E0000E94E10960E47FE180E090E00E94C8069F
:1001F0008EE791E00E945D0440E060E08EE791E0D0
:100200000E9464046FE171E08EE791E00E94E109D1
:1002100041E060E08EE791E00E9464046EE271E0EC
:100220008EE791E0DF91CF910C94E109CF93DF93BA
:1002300080E692E00E94A907892B09F164E670E04C
:1002400080E090E00E94C8068EE791E00E945D0485
:1002500080E692E00E94A9071816190684F4E0913E
:100260007E01F0917F01C081D18180E692E00E9401
:10027000C207682F8EE791E0FE010995E9CFDF9173
:10028000CF9108958091C70190E02091C801821B11
:10029000910908952091C8018091C701281750F451
:1002A000E22FF0E0E753FE4F808190E02F5F209334
:1002B000C80108958FEF9FEF0895E091C8018091E4
:1002C000C701E81730F4F0E0E753FE4F808190E07B
:1002D00008958FEF9FEF08950895CF92DF92EF92E8
:1002E000FF920F931F93CF93DF937C01CB018A0181
:1002F0002091A301222389F0EB016B01C40ED51ECE
:10030000CC15DD0569F06991D701ED91FC91019063
:10031000F081E02DC7010995F3CF642F0E947C0284
:10032000C801DF91CF911F910F91FF90EF90DF9067
:10033000CF900895CF93DF931F92CDB7DEB7698337
:100340002091A3012223D1F02091A401203240F07A
:1003500021E030E0FC013383228380E090E015C08F
:100360008091A501E82FF0E0EA55FE4F9981908336
:100370008F5F8093A5018093A40105C061E0CE0149
:1003800001960E947C0281E090E00F90DF91CF9176
:100390000895FC011382128248EE53E060E070E0A1
:1003A000448355836683778382E491E091838083DD
:1003B00008951092C8011092C7011092A5011092E1
:1003C000A4010C94070281E08093A3016093C6010D
:1003D0001092A5011092A40108950F93062F21E019
:1003E0004091A40166EA71E08091C6010E94250255
:1003F0001092A5011092A4011092A3010F910895EB
:1004000061E00C94ED0187E991E00C94C901109230
:10041000560281E0809354021092530261E082E11F
:100420000E94710761E083E10E947107E9EBF0E04F
:1004300080818E7F808380818D7F808388E480931C
:10044000B80085E48093BC0008950F93413208F012
:100450004AC0909156029111FCCF92E090935602BF
:10046000009354029FEF9093E90110922E02409363
:100470002D02FB016FE272E0DB019A2F961B9417AD
:1004800018F491919D93F9CF1092550290915502D5
:10049000880F892B8093550280915302813061F43B
:1004A00010925302809155028093BB008091BC0052
:1004B00083FDF8CF85EC01C085EE8093BC0022233C
:1004C00021F0809156028230E1F38091E9018F3F63
:1004D00061F08091E901803251F08091E90180332F
:1004E00041F483E007C081E005C080E003C082E002
:1004F00001C084E00F910895613298F42091560272
:10050000243089F460930B02FC018DE092E0DC0161
:100510002A2F281B261718F421912D93F9CF80E05C
:10052000089581E0089582E0089585ED8093BC00F0
:100530008091BC0084FDFCCF10925602089585EC9A
:100540008093BC001092560208951F920F920FB62E
:100550000F9211242F933F934F935F936F937F9349
:100560008F939F93AF93BF93EF93FF938091B900C5
:10057000887F803609F49EC078F5883209F45DC022
:1005800090F4803109F456C038F4882309F4F5C09A
:10059000883009F44FC0F5C0883109F44EC080326C
:1005A00009F45FC0EEC0803409F46AC058F48033A7
:1005B00009F457C0883309F0E4C08093E9010E9430
:1005C0009F02DFC0803509F44FC0883509F45DC053
:1005D000883409F0D6C0D3C0883909F4C4C0A8F45F
:1005E000883709F467C038F4883609F463C0803767
:1005F00009F460C0C6C0883809F4B5C0803909F470
:100600005FC0803809F0BDC05BC0803B09F483C087
:1006100038F4803A09F466C0883A09F47CC0B1C065
:10062000803C09F4A4C0883C09F4A1C0883B09F4CB
:1006300087C0A7C08091550210C090912E02809172
:100640002D02981770F5E0912E0281E08E0F8093B5
:100650002E02F0E0E15DFD4F80818093BB0085ECD0
:1006600083C08093E9018BC0E0912E0281E08E0F60
:1006700080932E028091BB00F0E0E15DFD4F80830E
:1006800090912E0280912D026BC0E0912E0281E0AC
:100690008E0F80932E028091BB00F0E0E15DFD4F54
:1006A00080838091540281116AC081E0809353025B
:1006B00084EA5EC083E0809356021092EA01CFCFB5
:1006C0008091EA01803208F04EC0E091EA0181E0B9
:1006D0008E0F8093EA018091BB00F0E0E551FE4F60
:1006E0008083BDCF0E949F028091EA01803230F466
:1006F000E091EA01F0E0E551FE4F10826091EA01DD
:1007000070E0E0914F02F09150028BEE91E009957C
:100710001092EA0136C084E08093560210920C02D7
:1007200010920B02E0915102F091520209958091D2
:100730000B02811105C081E080930B0210920D0223
:10074000E0910C0281E08E0F80930C02F0E0E35FF9
:10075000FD4F80818093BB0090910C0280910B0231
:10076000981708F47CCF85E88093BC000AC085EC1C
:100770008093BC001092560204C01092E9010E94BE
:100780009502FF91EF91BF91AF919F918F917F91D2
:100790006F915F914F913F912F910F900FBE0F90EE
:1007A0001F901895FC0112828FEF818310821382B3
:1007B0000895FC018381882331F0611103C08FEF1C
:1007C000818308951182089587E991E00E94E301F1
:1007D00087E991E00E94000291E0811190E0892F69
:1007E0000895CF93DF93EC016A8387E991E00E943B
:1007F000D9016A81CE010E94E4038B83882329F00A
:1008000087E991E00E944A0188838B8190E0DF9123
:10081000CF910895CF93DF93EC018B818823A9F0CA
:1008200089818095862388836A8187E991E00E9487
:10083000E301688187E991E00E949A0187E991E0EC
:100840000E940002282F30E002C020E030E081E06A
:1008500090E0232B11F080E090E0DF91CF9108959C
:1008600008950895DC01ED91FC910284F385E02D5B
:1008700041E0099581E090E00895FC011382128225
:1008800022E531E0318320830895DC01ED91FC9174
:100890000084F185E02D6FEF0994DC01ED91FC916E
:1008A0000084F185E02D60E00994DC01ED91FC917C
:1008B0000284F385E02D40E0099461E00E94550434
:1008C00080ED97E00C940207CF93DF93CDB7DEB7AE
:1008D00028970FB6F894DEBF0FBECDBF1D8220E46F
:1008E0002E8334E13F8334E5388719822A8320E15F
:1008F0002B8320E52C83FC012781421710F04FEF5A
:10090000420FFC01308550E0FE01E40FF51F30314D
:1009100021F4243011F4218101C02581260F2068A3
:10092000622F28960FB6F894DEBF0FBECDBFDF91C1
:10093000CF910C945504FC016581262F24602583FA
:100940006C600C945504CF93DF93EC01423018F0A7
:100950008C8188608C834F836887222329F0413003
:1009600019F48C8184608C8364E670E080E090E010
:100970000E94C8066C8164FD31C0E881F98102845F
:10098000F385E02D42E063E0CE01099584E991E131
:100990000E940207E881F9810284F385E02D42E09C
:1009A00063E0CE01099586E990E00E940207E881A4
:1009B000F9810284F385E02D42E063E0CE010995E0
:1009C00086E990E00E940207E881F9810284F385BC
:1009D000E02D42E062E0CE01099516C06062CE01D2
:1009E0000E94550484E991E10E9402076C816062D3
:1009F000CE010E94550486E990E00E9402076C81B6
:100A00006062CE010E94550486E990E00E940207D0
:100A10006C816062CE010E9455048CE390E00E94DC
:100A2000020784E08D83CE010E949B04CE010E94C8
:100A30005D0482E08E8366E0CE010E945504CE0103
:100A4000DF91CF910C94450421E001C0220F6A95FB
:100A5000EAF7DC011C962C931C971A965C934E9334
:100A60001997ED91FC910084F185E02D60E00994E7
:100A7000FC012485222399F081859285009719F441
:100A8000611105C006C0019721F4611102C02587DC
:100A900001C015866585CF010E960C940A04089551
:100AA0000F931F93CF93DF93EC018C01025F1F4FD5
:100AB0006B85C8010E94F103019761F461E0C801F0
:100AC0000E94D9031C8260E0C8010E940A0481E0F0
:100AD00090E002C080E090E0DF91CF911F910F91F4
:100AE00008958F92AF92CF92EF920F93CF93DF93AF
:100AF000CDB7DEB7FC016387148615861286118692
:100B000081E0982F01C0990F4A95EAF7928B982FB0
:100B100001C0990F2A95EAF7938B982F01C0990F7E
:100B20000A95EAF7948B982F01C0990FEA94EAF797
:100B3000958B982F01C0990FCA94EAF7968B982F3E
:100B400001C0990FAA94EAF7978B01C0880F8A9485
:100B5000EAF7808FDF91CF910F91EF90CF90AF9018
:100B60008F9008954F925F926F927F928F92AF9283
:100B7000CF92EF920F931F93CF93DF9300D01F92EA
:100B8000CDB7DEB73C011A894B885C882B834A833A
:100B900069830E943D0482E691E0F30191838083A2
:100BA000C3010E960E94D2032B814A816981C30141
:100BB0000E947105A201612FC3010F900F900F9049
:100BC000DF91CF911F910F91EF90CF90AF908F90C9
:100BD0007F906F905F904F900C942405FF920F933D
:100BE0001F93CF93DF93EC01F62E8C01025F1F4F12
:100BF0006A896F29C8010E940A046A8960956F2179
:100C0000C801DF91CF911F910F91FF900C940A04BE
:100C100020E030E050E060FF05C0FC01E20FF31F70
:100C20007589572B66952F5F3F4F2430310599F713
:100C3000413011F4FC014489FC016585652B642B6E
:100C40000C94EE050F931F93CF93DF93EC01142FB9
:100C5000062F0F70423011F440E00AC070E084E0CB
:100C6000759567958A95E1F7CE010E940806412F98
:100C7000602FCE01DF91CF911F910F910C94080648
:100C80000F931F93CF93DF9300D01F92CDB7DEB7A2
:100C90008C012B834A8369830E9450052B814A81F2
:100CA0006981C8010F900F900F90DF91CF911F9134
:100CB0000F910C94A3041F920F920FB60F92112460
:100CC0002F933F938F939F93AF93BF93809158023D
:100CD00090915902A0915A02B0915B023091570253
:100CE00023E0230F2D3720F40196A11DB11D05C06F
:100CF00026E8230F0296A11DB11D20935702809371
:100D0000580290935902A0935A02B0935B028091CB
:100D10005C0290915D02A0915E02B0915F0201962B
:100D2000A11DB11D80935C0290935D02A0935E02B1
:100D3000B0935F02BF91AF919F918F913F912F919F
:100D40000F900FBE0F901F9018953FB7F8948091A9
:100D50005C0290915D02A0915E02B0915F0226B5A7
:100D6000A89B05C02F3F19F00196A11DB11D3FBFE3
:100D70006627782F892F9A2F620F711D811D911D73
:100D800042E0660F771F881F991F4A95D1F7089593
:100D90008F929F92AF92BF92CF92DF92EF92FF928B
:100DA0006B017C010E94A5064B015C01C114D104BA
:100DB000E104F104F1F00E94E3090E94A50668191C
:100DC00079098A099B09683E73408105910570F392
:100DD00021E0C21AD108E108F10888EE880E83E00C
:100DE000981EA11CB11CC114D104E104F10429F71F
:100DF000DDCFFF90EF90DF90CF90BF90AF909F90AE
:100E00008F9008958230910538F0880F991F880FD0
:100E1000991F05970197F1F70895789484B582603A
:100E200084BD84B5816084BD85B5826085BD85B58E
:100E3000816085BDEEE6F0E0808181608083E1E83D
:100E4000F0E0108280818260808380818160808375
:100E5000E0E8F0E0808181608083E1EBF0E0808178
:100E600084608083E0EBF0E0808181608083EAE74A
:100E7000F0E08081846080838081826080838081D3
:100E8000816080838081806880831092C100089592
:100E9000833081F028F4813099F08230A1F00895F8
:100EA0008730A9F08830B9F08430D1F48091800087
:100EB0008F7D03C0809180008F778093800008959C
:100EC00084B58F7702C084B58F7D84BD08958091ED
:100ED000B0008F7703C08091B0008F7D8093B00009
:100EE00008950F931F93CF93DF931F92CDB7DEB773
:100EF000282F30E0F901E859FF4F8491F901E458B7
:100F0000FF4F1491F901E057FF4F04910023C9F0FE
:100F1000882321F069830E9448076981E02FF0E06F
:100F2000EE0FFF1FEC55FF4FA591B4919FB7F894BA
:100F30008C91611103C01095812301C0812B8C938A
:100F40009FBF0F90DF91CF911F910F9108950E9445
:100F50000C0AFC01818D228D90E0805C9F4F821BEA
:100F600091098F7399270895FC01918D828D9817AF
:100F700031F0828DE80FF11D858D90E008958FEF9F
:100F80009FEF0895FC01918D828D981761F0828DFD
:100F9000DF01A80FB11D5D968C91928D9F5F9F73AD
:100FA000928F90E008958FEF9FEF089586E499E087
:100FB000892B49F080E090E0892B29F00E944609B6
:100FC00081110C9400000895FC01848DDF01A80FAD
:100FD000B11DA35ABF4F2C91848D90E001968F7361
:100FE0009927848FA689B7892C93A089B1898C9180
:100FF00080648C93938D848D981306C00288F38946
:10100000E02D80818F7D80830895CF93DF93EC0165
:10101000888D8823C9F0EA89FB89808185FD05C018
:10102000A889B9898C9186FD0FC00FB607FCF5CF52
:10103000808185FFF2CFA889B9898C9185FFEDCF9A
:10104000CE010E94E407E7CFDF91CF910895CF92C0
:10105000DF92FF920F931F93CF93DF931F92CDB731
:10106000DEB76C0181E0D60158968C9358975B9659
:101070009C915B975C968C915C97981307C05096F7
:10108000ED91FC915197808185FD2EC0F601038D75
:1010900010E00F5F1F4F0F731127F02EF601848DA4
:1010A000F81211C00FB607FCF9CFD6015096ED919A
:1010B000FC915197808185FFF1CFC60169830E9421
:1010C000E4076981EBCF838DE80FF11DE35AFF4FF1
:1010D0006083D6015B960C935B975296ED91FC91E1
:1010E0005397808180620CC0D6015696ED91FC9199
:1010F000579760835096ED91FC9151978081806461
:10110000808381E090E00F90DF91CF911F910F914C
:10111000FF90DF90CF900895BF92CF92DF92EF9231
:10112000FF92CF93DF93EC016A017B01B22EE88935
:10113000F98982E08083411581EE580761057105C8
:10114000A1F060E079E08DE390E0A70196010E94B4
:10115000E4092150310941095109569547953795C0
:101160002795211580E1380798F0E889F9891082E0
:1011700060E874E88EE190E0A70196010E94E4091E
:1011800021503109410951095695479537952795C1
:10119000EC85FD853083EE85FF852083188EEC89F4
:1011A000FD89B082EA89FB89808180618083EA8938
:1011B000FB89808188608083EA89FB8980818068DF
:1011C0008083EA89FB8980818F7D8083DF91CF9145
:1011D000FF90EF90DF90CF90BF9008951F920F92F5
:1011E0000FB60F9211242F938F939F93EF93FF933A
:1011F000E0917002F09171028081E0917602F091AD
:10120000770282FD12C09081809179028F5F8F7387
:1012100020917A02821751F0E0917902F0E0E05AD1
:10122000FD4F958F8093790201C08081FF91EF91EE
:101230009F918F912F910F900FBE0F901F90189537
:101240001F920F920FB60F9211242F933F934F933B
:101250005F936F937F938F939F93AF93BF93EF931E
:10126000FF9380E692E00E94E407FF91EF91BF9127
:10127000AF919F918F917F916F915F914F913F912E
:101280002F910F900FBE0F901F90189580E692E05F
:101290000E94A90721E0892B09F420E0822F0895FC
:1012A000109263021092620288EE93E0A0E0B0E038
:1012B0008093640290936502A0936602B0936702E4
:1012C00082E791E0909361028093600285EC90E068
:1012D00090936D0280936C0284EC90E090936F0287
:1012E00080936E0280EC90E0909371028093700284
:1012F00081EC90E0909373028093720282EC90E014
:10130000909375028093740286EC90E0909377023C
:10131000809376021092790210927A0210927B02E8
:1013200010927C02089508950E940D070E9493096F
:101330000E94A600C6EDD7E00E9416012097E1F3B7
:101340000E94D607F9CFCF92DF92EF92FF920F93D0
:101350001F93CF93DF937C016A01EB0100E010E063
:101360000C151D0571F06991D701ED91FC9101906B
:10137000F081E02DC7010995892B19F00F5F1F4FF0
:10138000EFCFC801DF91CF911F910F91FF90EF90A8
:10139000DF90CF9008956115710581F0DB010D900C
:1013A0000020E9F7AD0141505109461B570BDC0104
:1013B000ED91FC910280F381E02D099480E090E0B2
:1013C00008950C94CB090895A1E21A2EAA1BBB1B09
:1013D000FD010DC0AA1FBB1FEE1FFF1FA217B30701
:1013E000E407F50720F0A21BB30BE40BF50B661F17
:1013F000771F881F991F1A9469F7609570958095DB
:1014000090959B01AC01BD01CF010895EE0FFF1F28
:101410000590F491E02D099481E090E0F8940C940B
:06142000110AF894FFCF51
:1014260048656C6C6F2C20776F726C64210048499C
:1014360021596F75724475696E6F2E636F6D005515
:1014460073652053657269616C204D6F6E00547927
:10145600706520746F20646973706C617900000098
:1014660000009A016D0142014A015D016C01000014
:1014760000003204A309A30430043104A7070000C6
:1014860000003204A30940062405380522060000A0
:0E14960000002708A309A907C207B40705082C
:107E0000112484B714BE81FFF0D085E080938100F7
:107E100082E08093C00088E18093C10086E0809377
:107E2000C20080E18093C4008EE0C9D0259A86E02C
:107E300020E33CEF91E0309385002093840096BBD3
:107E4000B09BFECF1D9AA8958150A9F7CC24DD24C4
:107E500088248394B5E0AB2EA1E19A2EF3E0BF2EE7
:107E6000A2D0813461F49FD0082FAFD0023811F036
:107E7000013811F484E001C083E08DD089C08234E0
:107E800011F484E103C0853419F485E0A6D080C0E4
:107E9000853579F488D0E82EFF2485D0082F10E0AE
:107EA000102F00270E291F29000F111F8ED06801E7
:107EB0006FC0863521F484E090D080E0DECF843638
:107EC00009F040C070D06FD0082F6DD080E0C81688
:107ED00080E7D80618F4F601B7BEE895C0E0D1E017
:107EE00062D089930C17E1F7F0E0CF16F0E7DF06D8
:107EF00018F0F601B7BEE89568D007B600FCFDCFD4
:107F0000A601A0E0B1E02C9130E011968C91119780
:107F100090E0982F8827822B932B1296FA010C0160
:107F200087BEE89511244E5F5F4FF1E0A038BF0790
:107F300051F7F601A7BEE89507B600FCFDCF97BE46
:107F4000E89526C08437B1F42ED02DD0F82E2BD052
:107F50003CD0F601EF2C8F010F5F1F4F84911BD097
:107F6000EA94F801C1F70894C11CD11CFA94CF0C13
:107F7000D11C0EC0853739F428D08EE10CD085E9AC
:107F80000AD08FE07ACF813511F488E018D01DD067
:107F900080E101D065CF982F8091C00085FFFCCF94
:107FA0009093C60008958091C00087FFFCCF809118
:107FB000C00084FD01C0A8958091C6000895E0E648
:107FC000F0E098E1908380830895EDDF803219F02E
:107FD00088E0F5DFFFCF84E1DECF1F93182FE3DFCA
:107FE0001150E9F7F2DF1F91089580E0E8DFEE27F6
:047FF000FF270994CA
:027FFE00040479
:0400000300007E007B
:00000001FF