:100000000C9462000C948A000C948A000C94BE003C
:100010000C94BE000C94BE000C948A000C948A00D0
:100020000C948A000C948A000C948A000C948A0028
:100030000C948A000C948A000C948A000C948A0018
:100040000C9438010C948A000C94EA030C941C0460
:100050000C948A000C948A000C948A000C948A00F8
:100060000C948A000C948A00000000080002010031
:100070000003040700000000000000000102040863
:100080001020408001020408102001020408102002
:10009000040404040404040402020202020203032E
:1000A00003030303000000002300260029000000D2
:1000B0000000250028002B0000000000240027007D
:1000C0002A004C0411241FBECFEFD8E0DEBFCDBF05
:1000D00011E0A0E0B1E0ECE3FAE002C005900D927F
:1000E000AC32B107D9F722E0ACE2B1E001C01D9219
:1000F000A831B207E1F710E0C4ECD0E004C02297C9
:10010000FE010E941805C23CD107C9F70E94900465
:100110000C941C050C94000026E040E855E260E0D9
:1001200070E08BE791E00E94880361E0809100011C
:100130000E94430260E089E00C94430289E00E943F
:100140007C0221E0892B09F420E020932D01222359
:1001500081F080912C0181110CC062E071E08BE78D
:1001600091E00E94E10461E070E080E090E00E9494
:10017000A50180912D0180932C0108951F920F926B
:100180000FB60F9211242F933F934F935F936F936A
:100190007F938F939F93AF93BF93EF93FF93E091E0
:1001A0007001F0917101309709F451C0868DA685D8
:1001B000B785958581FF04C08C91892329F447C0B8
:1001C0008C91892309F043C0A389B4899C918589C6
:1001D000809589238C93868997890197F1F7208DE3
:1001E000318DA685B785758558E040E0C901019736
:1001F000F1F7842F90E095958795482F6C916723B0
:1002000009F04068515091F7868D81FD40958091AD
:100210002F0190E001968F73992720912E012817C6
:1002200049F0A0912F01B0E0A05DBE4F4C938093A8
:100230002F0103C0868D8160868F828D938D0197FB
:10024000F1F7A389B4898C919589892B8C93FF91BF
:10025000EF91BF91AF919F918F917F916F915F913E
:100260004F913F912F910F900FBE0F901F901895B7
:100270001F920F920FB60F9211242F933F938F93DB
:100280009F93AF93BF938091730190917401A0915C
:100290007501B09176013091720123E0230F2D3763
:1002A00020F40196A11DB11D05C026E8230F02967A
:1002B000A11DB11D2093720180937301909374016D
:1002C000A0937501B09376018091770190917801A8
:1002D000A0917901B0917A010196A11DB11D809381
:1002E000770190937801A0937901B0937A01BF913F
:1002F000AF919F918F913F912F910F900FBE0F90D3
:100300001F9018953FB7F8948091770190917801EC
:10031000A0917901B0917A0126B5A89B05C02F3F25
:1003200019F00196A11DB11D3FBF6627782F892FB7
:100330009A2F620F711D811D911D42E0660F771F7C
:10034000881F991F4A95D1F708958F929F92AF9277
:10035000BF92CF92DF92EF92FF926B017C010E94DD
:1003600082014B015C01C114D104E104F104F1F0FC
:100370000E94F3040E948201681979098A099B0985
:10038000683E73408105910570F321E0C21AD108DF
:10039000E108F10888EE880E83E0981EA11CB11CCC
:1003A000C114D104E104F10429F7DDCFFF90EF90EF
:1003B000DF90CF90BF90AF909F908F9008957894EA
:1003C00084B5826084BD84B5816084BD85B582605A
:1003D00085BD85B5816085BDEEE6F0E080818160F8
:1003E0008083E1E8F0E010828081826080838081F8
:1003F00081608083E0E8F0E0808181608083E1EBD0
:10040000F0E0808184608083E0EBF0E080818160B7
:100410008083EAE7F0E0808184608083808182606D
:100420008083808181608083808180688083109256
:10043000C1000895833081F028F4813099F0823032
:10044000A1F008958730A9F08830B9F08430D1F454
:10045000809180008F7D03C0809180008F77809392
:100460008000089584B58F7702C084B58F7D84BDE8
:1004700008958091B0008F7703C08091B0008F7D88
:100480008093B0000895CF93DF9390E0FC01E4588F
:10049000FF4F2491FC01E057FF4F8491882349F1DD
:1004A00090E0880F991FFC01E854FF4FA591B4918B
:1004B00082559F4FFC01C591D4919FB7611108C02F
:1004C000F8948C91209582238C93888182230AC092
:1004D000623051F4F8948C91322F309583238C93B1
:1004E0008881822B888304C0F8948C91822B8C9312
:1004F0009FBFDF91CF910895CF93DF93282F30E0F6
:10050000F901E859FF4F8491F901E458FF4FD49164
:10051000F901E057FF4FC491CC2391F081110E9463
:100520001A02EC2FF0E0EE0FFF1FEC55FF4FA591E4
:10053000B4912C912D2381E090E021F480E002C061
:1005400080E090E0DF91CF910895FC01818D228DB4
:1005500090E0805C9F4F821B91098F7399270895CB
:10056000FC01918D828D981731F0828DE80FF11D7D
:10057000858D90E008958FEF9FEF0895FC01918D98
:10058000828D981761F0828DDF01A80FB11D5D96F5
:100590008C91928D9F5F9F73928F90E008958FEF63
:1005A0009FEF089582E494E0892B49F080E090E089
:1005B000892B29F00E94420481110C9400000895B7
:1005C000FC01848DDF01A80FB11DA35ABF4F2C91F0
:1005D000848D90E001968F739927848FA689B789BF
:1005E0002C93A089B1898C9180648C93938D848D98
:1005F000981306C00288F389E02D80818F7D808367
:100600000895CF93DF93EC01888D8823C9F0EA89A0
:10061000FB89808185FD05C0A889B9898C9186FDFB
:100620000FC00FB607FCF5CF808185FFF2CFA889F8
:10063000B9898C9185FFEDCFCE010E94E002E7CF12
:10064000DF91CF910895CF92DF92FF920F931F9386
:10065000CF93DF931F92CDB7DEB76C0181E0D60157
:1006600058968C9358975B969C915B975C968C916F
:100670005C97981307C05096ED91FC91519780813B
:1006800085FD2EC0F601038D10E00F5F1F4F0F7325
:100690001127F02EF601848DF81211C00FB607FC59
:1006A000F9CFD6015096ED91FC915197808185FF4D
:1006B000F1CFC60169830E94E0026981EBCF838D8F
:1006C000E80FF11DE35AFF4F6083D6015B960C9350
:1006D0005B975296ED91FC915397808180620CC09C
:1006E000D6015696ED91FC91579760835096ED9107
:1006F000FC91519780818064808381E090E00F902D
:10070000DF91CF911F910F91FF90DF90CF900895CF
:10071000BF92CF92DF92EF92FF92CF93DF93EC01E3
:100720006A017B01B22EE889F98982E08083411554
:1007300081EE580761057105A1F060E079E08DE375
:1007400090E0A70196010E94F4042150310941096B
:1007500051095695479537952795211580E138071A
:1007600098F0E889F989108260E874E88EE190E0F9
:10077000A70196010E94F404215031094109510951
:100780005695479537952795EC85FD853083EE8501
:10079000FF852083188EEC89FD89B082EA89FB8968
:1007A000808180618083EA89FB8980818860808381
:1007B000EA89FB89808180688083EA89FB8980815E
:1007C0008F7D8083DF91CF91FF90EF90DF90CF906E
:1007D000BF9008951F920F920FB60F9211242F937E
:1007E0008F939F93EF93FF93E0918B01F0918C0196
:1007F0008081E0919101F091920182FD12C090817F
:10080000809194018F5F8F7320919501821751F031
:10081000E0919401F0E0E558FE4F958F80939401AC
:1008200001C08081FF91EF919F918F912F910F9047
:100830000FBE0F901F9018951F920F920FB60F9238
:1008400011242F933F934F935F936F937F938F93D5
:100850009F93AF93BF93EF93FF938BE791E00E9439
:10086000E002FF91EF91BF91AF919F918F917F91A6
:100870006F915F914F913F912F910F900FBE0F900D
:100880001F9018958BE791E00E94A50221E0892B2B
:1008900009F420E0822F089510927E0110927D01CC
:1008A00088EE93E0A0E0B0E080937F019093800118
:1008B000A0938101B09382018EE091E090937C013E
:1008C00080937B0185EC90E0909388018093870171
:1008D00084EC90E090938A018093890180EC90E011
:1008E00090938C0180938B0181EC90E090938E012A
:1008F00080938D0182EC90E09093900180938F0122
:1009000086EC90E090939201809391011092940173
:1009100010929501109296011092970108950895F2
:100920000E94DF010E948F040E948C00C2EDD2E081
:100930000E949E002097E1F30E94D202F9CFCF924D
:10094000DF92EF92FF920F931F93CF93DF937C017F
:100950006A01EB0100E010E00C151D0571F06991D2
:10096000D701ED91FC910190F081E02DC70109952F
:10097000892B19F00F5F1F4FEFCFC801DF91CF9187
:100980001F910F91FF90EF90DF90CF900895611528
:10099000710581F0DB010D900020E9F7AD014150B8
:1009A0005109461B570BDC01ED91FC910280F3814C
:1009B000E02D099480E090E008956AE171E00C94E4
:1009C000C7040F931F93CF93DF93EC010E94C704DA
:1009D0008C01CE010E94DD04800F911FDF91CF9129
:1009E0001F910F9108950895A1E21A2EAA1BBB1B17
:1009F000FD010DC0AA1FBB1FEE1FFF1FA217B307EB
:100A0000E407F50720F0A21BB30BE40BF50B661F00
:100A1000771F881F991F1A9469F7609570958095C4
:100A200090959B01AC01BD01CF010895EE0FFF1F12
:0C0A30000590F491E02D0994F894FFCF9C
:100A3C00020070726573736564000000000023038C
:100A4C009F04A502BE02B00201030D0A006E616E86
:0C0A5C0000696E66006F7666002E0000D8
:107E0000112484B714BE81FFF0D085E080938100F7
:107E100082E08093C00088E18093C10086E0809377
:107E2000C20080E18093C4008EE0C9D0259A86E02C
:107E300020E33CEF91E0309385002093840096BBD3
:107E4000B09BFECF1D9AA8958150A9F7CC24DD24C4
:107E500088248394B5E0AB2EA1E19A2EF3E0BF2EE7
:107E6000A2D0813461F49FD0082FAFD0023811F036
:107E7000013811F484E001C083E08DD089C08234E0
:107E800011F484E103C0853419F485E0A6D080C0E4
:107E9000853579F488D0E82EFF2485D0082F10E0AE
:107EA000102F00270E291F29000F111F8ED06801E7
:107EB0006FC0863521F484E090D080E0DECF843638
:107EC00009F040C070D06FD0082F6DD080E0C81688
:107ED00080E7D80618F4F601B7BEE895C0E0D1E017
:107EE00062D089930C17E1F7F0E0CF16F0E7DF06D8
:107EF00018F0F601B7BEE89568D007B600FCFDCFD4
:107F0000A601A0E0B1E02C9130E011968C91119780
:107F100090E0982F8827822B932B1296FA010C0160
:107F200087BEE89511244E5F5F4FF1E0A038BF0790
:107F300051F7F601A7BEE89507B600FCFDCF97BE46
:107F4000E89526C08437B1F42ED02DD0F82E2BD052
:107F50003CD0F601EF2C8F010F5F1F4F84911BD097
:107F6000EA94F801C1F70894C11CD11CFA94CF0C13
:107F7000D11C0EC0853739F428D08EE10CD085E9AC
:107F80000AD08FE07ACF813511F488E018D01DD067
:107F900080E101D065CF982F8091C00085FFFCCF94
:107FA0009093C60008958091C00087FFFCCF809118
:107FB000C00084FD01C0A8958091C6000895E0E648
:107FC000F0E098E1908380830895EDDF803219F02E
:107FD00088E0F5DFFFCF84E1DECF1F93182FE3DFCA
:107FE0001150E9F7F2DF1F91089580E0E8DFEE27F6
:047FF000FF270994CA
:027FFE00040479
:0400000300007E007B
:00000001FF