:100000000C9417010C943F010C943F010C943F0198
:100010000C943F010C943F010C943F010C943F0160
:100020000C943F010C943F010C943F010C943F0150
:100030000C943F010C943F010C943F010C943F0140
:100040000C94EB070C943F010C94D30A0C94050B11
:100050000C943F010C943F010C943F010C943F0120
:100060000C943F010C943F010A2A2A456E642052E9
:10007000656164696E672A2A0A002A2A43617264EC
:100080002044657465637465643A2A2A0052656188
:100090006420706572736F6E616C2064617461209E
:1000A0006F6E2061204D49464152452050494343DF
:1000B0003A005049434320747970653A200030007B
:1000C000436172642053414B3A20002000203000ED
:1000D00043617264205549443A00556E6B6E6F77E8
:1000E0006E20747970650053414B20696E646963BA
:1000F0006174657320554944206973206E6F7420C4
:10010000636F6D706C6574652E004D4946415245B4
:1001100020544E5033585858004D494641524520BE
:1001200044455346697265004D4946415245205049
:100130006C7573004D494641524520556C7472618F
:100140006C69676874206F7220556C7472616C6999
:100150006768742043004D494641524520344B4264
:10016000004D494641524520314B42004D494641E0
:100170005245204D696E692C2033323020627974EB
:100180006573005049434320636F6D706C69616E05
:100190007420776974682049534F2F4945432031B3
:1001A0003830393220284E464329005049434320F5
:1001B000636F6D706C69616E742077697468204933
:1001C000534F2F4945432031343434332D3400000C
:1001D0000000080002010000030407000000000006
:1001E00000000001020408102040800102040810F1
:1001F000200102040810200404040404040404027E
:1002000002020202020303030303030000000023AF
:10021000002600290000000000250028002B000017
:10022000000000240027002A00008301350B112460
:100230001FBECFEFD8E0DEBFCDBF11E0A0E0B1E040
:10024000E8E4F9E102C005900D92AC36B107D9F7A8
:1002500022E0ACE6B1E001C01D92AB32B207E1F79B
:1002600012E0CEE2D2E004C02297FE010E949E0C72
:10027000CA32D107C9F70E94790B0C94A20C0C94D6
:10028000000026E040E855E260E070E08EE891E092
:100290000E94710A0E9499018CE691E00E949903E4
:1002A0006DE870E08EE891E00C94ED0B8CE691E047
:1002B0000E94D206882331F18CE691E00E94CF01A2
:1002C000882301F16AE770E08EE891E00E94ED0B6F
:1002D0006EE671E08CE691E00E94580768E670E0F7
:1002E0008EE891E00E94ED0B64E670E080E090E023
:1002F0000E9458088CE691E00E9406078CE691E087
:100300000C9449070895ECE6F1E085E491E09183CF
:10031000808385E380937A0185E080937B0184E884
:1003200091E090937D0180937C0183E5828B138A19
:100330000895CF93CFB7F89480918301811127C09E
:10034000E1E0F2E08491EDEEF1E09491E82FF0E04D
:10035000EE0FFF1FE15EFD4FA591B4918C918923B3
:1003600021F461E08AE00E942F0961E08AE00E94A6
:10037000F6088CB580618CBD8CB580648CBD61E065
:100380008DE00E94F60861E08BE00E94F608809103
:1003900083018F5F80938301CFBFCF910895DC01EC
:1003A000ED91FD91BD010190F081E02D40E00995B6
:1003B00091E0811190E0892F0895209182012223FC
:1003C00099F03FB7F89420918201213059F42DB370
:1003D000209380014DB320918101209524232DBBD2
:1003E0003FBF02C0309380018CBD9DBD08958EBD7E
:1003F00000000DB407FEFDCF8EB5089580918201F7
:10040000882361F09FB7F894209182018091800148
:10041000213019F48DBB9FBF08958FBF0895BF92FF
:10042000CF92DF92EF92FF920F931F93CF93DF93C0
:100430006C01162FB42EE9011068FC0182899389A2
:100440000E94DD0160E0F60186850E942F09BA94C2
:10045000812F0E94F701002391F0EE24EA94F12C01
:1004600001C0EE0C0A95EAF7812F0E94F7018E2158
:10047000E0949881E9228E29888301E001C000E0A0
:10048000202F30E00B1550F47E01E20EF31E812F79
:100490000E94F701F70180830F5FF2CFC20FD31FD5
:1004A00080E00E94F701888361E0F60186850E9462
:1004B0002F09DF91CF911F910F91FF90EF90DF9067
:1004C000CF90BF900C94FE01EF92FF921F93CF93B9
:1004D000DF931F92CDB7DEB77C01162FFC01828916
:1004E000938949830E94DD0160E0F70186850E94BF
:1004F0002F09812F0E94F7014981842F0E94F70163
:1005000061E0F70186850E942F090F90DF91CF915E
:100510001F91FF90EF900C94FE01CF92DF92EF922B
:10052000FF920F931F93CF93DF9300D0CDB7DEB729
:100530008C01E62EF42EFC018289938929833A836B
:100540000E94DD0160E0F80186850E942F098E2D52
:100550000E94F7012981E22EC22E3A81D32E8C2DE2
:100560008E198F1530F4F60181916F010E94F70109
:10057000F6CF61E0F80186850E942F090F900F9059
:10058000DF91CF911F910F91FF90EF90DF90CF906F
:100590000C94FE011F93CF93DF93EC01162F8A89F1
:1005A0009B890E94DD0160E08E850E942F09812FCA
:1005B00080680E94F70180E00E94F701182F61E037
:1005C0008E850E942F090E94FE01812FDF91CF911D
:1005D0001F9108950F9341110E940F020F910895EA
:1005E000EF92FF921F93CF93DF931F92CDB7DEB7A9
:1005F0007C01162F49830E94CA024981482B612F32
:10060000C7010F90DF91CF911F91FF90EF900C9455
:100610006402EF92FF921F93CF93DF931F92CDB7A7
:10062000DEB77C01162F49830E94CA02498140959A
:100630004823612FC7010F90DF91CF911F91FF9049
:10064000EF900C946402DF92EF92FF920F931F934E
:10065000CF93DF93EC018B01D42E790140E062E06F
:100660000E94640244E06AE0CE010E94640240E815
:1006700064E1CE010E94640298014D2D62E1CE0139
:100680000E948D0243E062E0CE010E94640208E80D
:1006900013E16AE0CE010E94CA0282FF13C040E06B
:1006A00062E0CE010E94640264E4CE010E94CA02AC
:1006B000F701808362E4CE010E94CA02F7018183C0
:1006C00080E004C00150110921F783E0DF91CF9150
:1006D0001F910F91FF90EF90DF900895CF93DF93DC
:1006E000EC014FE062E00E94640262E370E080E0AF
:1006F00090E00E94580862E0CE010E94CA0284FD88
:10070000FACFDF91CF910895CF93DF93EC0168E2A8
:100710000E94CA02982F9370933041F0482F436093
:1007200068E2CE01DF91CF910C946402DF91CF910A
:100730000895CF93DF93EC0161E08E850E94F60867
:1007400061E08E850E942F098F858F3F09F444C098
:1007500061E00E94F6088F850E946509892BE1F50A
:1007600061E08F850E942F0962E370E080E090E0F5
:100770000E94580840E064E2CE010E94640240E01A
:1007800066E2CE010E94640246E268E4CE010E9465
:10079000640240E864E5CE010E94640249EA66E52D
:1007A000CE010E94640243E068E5CE010E9464022B
:1007B00048EE6AE5CE010E94640240E46AE2CE019E
:1007C0000E9464024DE362E2CE010E946402CE0107
:1007D000DF91CF910C948403CE010E946E03CACFA7
:1007E0004F925F926F927F928F929F92AF92BF9241
:1007F000CF92DF92EF92FF920F931F93CF93DF93ED
:1008000000D000D0CDB7DEB73C01162F942E502E6D
:10081000082DA114B10419F0F501408101C040E098
:10082000442EF0E10F9F400C112440E062E0C30130
:100830002B833C830E9464024FE768E0C3010E945F
:10084000640240E864E1C3010E9464022B813C81A0
:10085000452D62E1C3010E948D02442D6AE1C3016E
:100860000E946402412F62E0C3010E9464021C30B6
:1008700029F440E86AE1C3010E94F00290ED492E9C
:1008800097E0592E68E0C3010E94CA02982F99216F
:1008900041F480FD04C081E0481A510899F783E0D3
:1008A00065C06CE0C3010E94CA02182F837109F071
:1008B0005CC0E114F104F1F0C114D104D9F064E199
:1008C000C3010E94CA02482FF6018081841708F4F0
:1008D00046C04083970162E1C3010E94EA0268E1D9
:1008E000C3010E94CA028770A114B10421F0F5016E
:1008F000808301C080E013FD34C0E114F10499F15C
:10090000C114D10481F19F89992369F1F6014081D5
:10091000413019F4843019F420C0423010F487E0DB
:1009200025C08111FCCF42509E012F5F3F4FB70180
:10093000C3010E942303811119C0F6018081E80ED2
:10094000F11CF7013297908189819813E8CF319695
:1009500090818A819813E3CF06C08FEF07C084E0AF
:1009600005C082E003C080E001C081E00F900F90DD
:100970000F900F90DF91CF911F910F91FF90EF900B
:10098000DF90CF90BF90AF909F908F907F906F90AF
:100990005F904F9008958F92AF92BF92CF92DF9267
:1009A000EF92FF920F931F93AF928C2C5701680127
:1009B0007901042F9B0140E36CE00E94F0030F904B
:1009C0001F910F91FF90EF90DF90CF90BF90AF906D
:1009D0008F9008952F923F924F925F926F927F92E5
:1009E0008F929F92AF92BF92CF92DF92EF92FF923F
:1009F0000F931F93CF93DF93CDB7DEB72D970FB62D
:100A0000F894DEBF0FBECDBF3C012B01342E20E594
:100A1000241708F409C140E86CE10E940903BB24D3
:100A2000B39432E0B31691F043E0B416E1F081E004
:100A3000B812FEC083E989833320D1F041E0D201AE
:100A40008C91853008F440E0D12C17C085E989836A
:100A5000332081F041E0F2018081883008F440E0E9
:100A600073E0D72E0AC087E9898366E0D62E04C0DA
:100A7000D12C02C053E0D52E40E0532DF8EFDF9E7D
:100A8000500D112457FD50E0442321F088E88B835A
:100A900073E001C072E091E0852F877009F490E067
:100AA000852F859585958595890F21F4442311F12E
:100AB000585F20C0442311F063E001C064E0861752
:100AC00008F4682F80E090E092012D0D311DE72F92
:100AD000E80FA1E0B0E0AC0FBD1FAE0FB11DFD01EE
:100AE000D901A80FB91F1196AC91A0830196861762
:100AF00070F3DCCF43E0242E5032FCF0B0E7BA8331
:100B00008C819B8189279D8189279E8189278F835D
:100B10009E01285F3F4F47E0BE016F5F7F4FC301DB
:100B20005D870E9423035D858111CDC01B862A86C7
:100B3000FE0137964F0179E01EC0952F97709B8775
:100B4000252F25952595259582E0820F392FF0E1F7
:100B50008F9F300D11243A8371E0911101C070E034
:100B6000780F88248394912C8C0E9D1E880E911CE6
:100B700087E0821B8A87CB844C2D4295407F4C0DA9
:100B80006AE1C3015D877C870E946402A12C9E01FB
:100B9000255F3F4F79018E01065F1F4F94017C85D1
:100BA000472FBE016F5F7F4FC3010E94CB045D855D
:100BB0008230A1F56CE1C3010E94CA025D8585FD0A
:100BC00035C0482F4F7109F440E2842F90E0252F63
:100BD000332727FD30952817390754F5542F0197EF
:100BE00087709927242F2595259525952F5F31E02E
:100BF000811101C030E0230FE1E0F0E0EC0FFD1FB8
:100C0000E20FF11DA1E0B0E002C0AA0FBB1F8A9560
:100C1000E2F7CD019081982B90836ECF811153C064
:100C2000503244F450E26ACF86E04DC082E04BC0BF
:100C300085E049C08B81883819F052E044E002C059
:100C400053E043E080E090E092012D0D311DF90169
:100C5000E80FF91F652F680FA1E0B0E0AC0FBD1FD2
:100C6000A60FB11D6C9161830196841780F38A856C
:100C7000833031F58B85811123C09E012D5F3F4F5D
:100C800041E0B401C3010E94230381111CC09B8178
:100C9000F4018181981316C09C818281981312C03F
:100CA000808182FF02C0B394BCCED2011B968C938C
:100CB0001B978B2D880F8B0D8F5F8C9380E003C06B
:100CC00081E001C087E02D960FB6F894DEBF0FBE1D
:100CD000CDBFDF91CF911F910F91FF90EF90DF90EB
:100CE000CF90BF90AF909F908F907F906F905F90CC
:100CF0004F903F902F9008954F925F926F927F9206
:100D00008F929F92AF92CF92EF92FF920F931F9389
:100D1000CF93DF9300D0CDB7DEB73C016A832A01C1
:100D200049014115510529F1F9018081823008F10D
:100D300040E86CE1C3010E94090387E08983A12C8C
:100D4000C12CCE0101967C018401920141E0BE01DB
:100D50006E5F7F4FC3010E94CB0481110DC0F4016F
:100D60008081823041F481E09981911105C080E059
:100D700003C084E001C081E00F900F90DF91CF911C
:100D80001F910F91FF90EF90CF90AF909F908F9019
:100D90007F906F905F904F9008959A01AB0166E24B
:100DA0000C947C060F931F93CF93DF9300D01F9278
:100DB000CDB7DEB78C0182E08B8340E064E2C801EE
:100DC0000E94640240E066E2C8010E94640246E2BA
:100DD00068E4C8010E946402AE014D5F5F4FBE012E
:100DE0006F5F7F4FC8010E94CD06882331F091E0EC
:100DF000823009F090E0892F01C081E00F900F90C0
:100E00000F90DF91CF911F910F9108958F929F9234
:100E1000AF92CF92EF92FF920F931F93CF93DF93F6
:100E200000D000D0CDB7DEB74C0180E589831A82AF
:100E30009E012D5F3F4F42E0BE016F5F7F4FC401B7
:100E40000E942303811116C0A12CC12CE12CF12C8E
:100E500000E010E020E030E044E0BE016F5F7F4F33
:100E6000C4010E94CB04833021F0811103C081E0D2
:100E700001C080E00F900F900F900F90DF91CF9105
:100E80001F910F91FF90EF90CF90AF909F908F9018
:100E9000089548E060E10C9409038F77813430F4C1
:100EA000E82FF0E0E050FF4F8081089580E0089542
:100EB000FF920F931F93CF93DF93EB0160ED70E0F0
:100EC0008EE891E00E94C60BF12C8881F816D0F4D0
:100ED0008E010F0D111DF8018181803118F46DEC28
:100EE00070E002C06BEC70E08EE891E00E94C60BEF
:100EF00040E150E0F80161818EE891E00E945B0CD6
:100F0000F394E3CF8EE891E00E94E90B60EC70E08F
:100F10008EE891E00E94C60B8B85803130F46EEB39
:100F200070E08EE891E00E94C60B40E150E06B85D6
:100F30008EE891E00E94620C8B850E944D07C82FBD
:100F400062EB70E08EE891E00E94C60B8C2F0E944D
:100F5000B307BC018EE891E0DF91CF911F910F9113
:100F6000FF900C94ED0B853021F178F4823081F103
:100F700028F4813051F58BEA91E008958330B1F087
:100F8000843019F581E691E008958830C1F038F495
:100F9000863091F08730C9F488E291E00895893075
:100FA00089F08F3F91F487EE90E008958CE691E010
:100FB000089586E591E0089584E391E0089589E13C
:100FC00091E008958AE091E008958AED90E0089517
:100FD00083E891E008951F920F920FB60F921124AB
:100FE0002F933F938F939F93AF93BF9380918601ED
:100FF00090918701A0918801B0918901309185017C
:1010000023E0230F2D3720F40196A11DB11D05C04B
:1010100026E8230F0296A11DB11D20938501809320
:10102000860190938701A0938801B09389018091F4
:101030008A0190918B01A0918C01B0918D01019654
:10104000A11DB11D80938A0190938B01A0938C0107
:10105000B0938D01BF91AF919F918F913F912F914F
:101060000F900FBE0F901F9018953FB7F894809186
:101070008A0190918B01A0918C01B0918D0126B5D0
:10108000A89B05C02F3F19F00196A11DB11D3FBFC0
:101090006627782F892F9A2F620F711D811D911D50
:1010A00042E0660F771F881F991F4A95D1F7089570
:1010B0008F929F92AF92BF92CF92DF92EF92FF9268
:1010C0006B017C010E9435084B015C01C114D10405
:1010D000E104F104F1F00E94790C0E9435086819CE
:1010E00079098A099B09683E73408105910570F36F
:1010F00021E0C21AD108E108F10888EE880E83E0E9
:10110000981EA11CB11CC114D104E104F10429F7FB
:10111000DDCFFF90EF90DF90CF90BF90AF909F908A
:101120008F900895789484B5826084BD84B5816081
:1011300084BD85B5826085BD85B5816085BDEEE6DF
:10114000F0E0808181608083E1E8F0E010828081BE
:1011500082608083808181608083E0E8F0E080812C
:1011600081608083E1EBF0E0808184608083E0EB4C
:10117000F0E0808181608083EAE7F0E08081846034
:101180008083808182608083808181608083808190
:10119000806880831092C1000895833081F028F424
:1011A000813099F08230A1F008958730A9F088301D
:1011B000B9F08430D1F4809180008F7D03C080919C
:1011C00080008F7780938000089584B58F7702C068
:1011D00084B58F7D84BD08958091B0008F7703C062
:1011E0008091B0008F7D8093B0000895CF93DF93FE
:1011F00090E0FC01ED51FE4F2491FC01E950FE4FBF
:101200008491882349F190E0880F991FFC01E15EE9
:10121000FD4FA591B4918B5E9D4FFC01C591D4917A
:101220009FB7611108C0F8948C91209582238C930C
:10123000888182230AC0623051F4F8948C91322F55
:10124000309583238C938881822B888304C0F89403
:101250008C91822B8C939FBFDF91CF9108950F9338
:101260001F93CF93DF931F92CDB7DEB7282F30E0C7
:10127000F901E153FE4F8491F901ED51FE4F1491B4
:10128000F901E950FE4F04910023C9F0882321F0B1
:1012900069830E94CD086981E02FF0E0EE0FFF1F07
:1012A000EB5EFD4FA591B4919FB7F8948C916111BD
:1012B00003C01095812301C0812B8C939FBF0F9099
:1012C000DF91CF911F910F910895CF93DF93282F36
:1012D00030E0F901E153FE4F8491F901ED51FE4FE9
:1012E000D491F901E950FE4FC491CC2391F08111C2
:1012F0000E94CD08EC2FF0E0EE0FFF1FE55FFD4FE1
:10130000A591B4912C912D2381E090E021F480E00F
:1013100002C080E090E0DF91CF910895FC01818DC3
:10132000228D90E0805C9F4F821B91098F739927DB
:101330000895FC01918D828D981731F0828DE80F10
:10134000F11D858D90E008958FEF9FEF0895FC01CA
:10135000918D828D981761F0828DDF01A80FB11DEC
:101360005D968C91928D9F5F9F73928F90E0089510
:101370008FEF9FEF08958BE29BE0892B49F080E08F
:1013800090E0892B29F00E942B0B81110C94000016
:101390000895FC01848DDF01A80FB11DA35ABF4F32
:1013A0002C91848D90E001968F739927848FA68964
:1013B000B7892C93A089B1898C9180648C93938D8B
:1013C000848D981306C00288F389E02D80818F7D7B
:1013D00080830895CF93DF93EC01888D8823C9F033
:1013E000EA89FB89808185FD05C0A889B9898C912E
:1013F00086FD0FC00FB607FCF5CF808185FFF2CFC9
:10140000A889B9898C9185FFEDCFCE010E94C909C9
:10141000E7CFDF91CF910895CF92DF92FF920F93A4
:101420001F93CF93DF931F92CDB7DEB76C0181E09E
:10143000D60158968C9358975B969C915B975C96D7
:101440008C915C97981307C05096ED91FC91519741
:10145000808185FD2EC0F601038D10E00F5F1F4FC8
:101460000F731127F02EF601848DF81211C00FB6FC
:1014700007FCF9CFD6015096ED91FC9151978081F0
:1014800085FFF1CFC60169830E94C9096981EBCF4D
:10149000838DE80FF11DE35AFF4F6083D6015B9601
:1014A0000C935B975296ED91FC91539780818062EB
:1014B0000CC0D6015696ED91FC91579760835096DB
:1014C000ED91FC91519780818064808381E090E070
:1014D0000F90DF91CF911F910F91FF90DF90CF90F0
:1014E0000895BF92CF92DF92EF92FF92CF93DF9356
:1014F000EC016A017B01B22EE889F98982E08083E0
:10150000411581EE580761057105A1F060E079E0B1
:101510008DE390E0A70196010E947A0C21503109D9
:10152000410951095695479537952795211580E131
:10153000380798F0E889F989108260E874E88EE14C
:1015400090E0A70196010E947A0C215031094109CF
:1015500051095695479537952795EC85FD8530833C
:10156000EE85FF852083188EEC89FD89B082EA899B
:10157000FB89808180618083EA89FB898081886022
:101580008083EA89FB89808180688083EA89FB897E
:1015900080818F7D8083DF91CF91FF90EF90DF90EE
:1015A000CF90BF9008951F920F920FB60F92112403
:1015B0002F938F939F93EF93FF93E0919E01F09170
:1015C0009F018081E091A401F091A50182FD12C0EC
:1015D00090818091A7018F5F8F732091A80182175E
:1015E00051F0E091A701F0E0E257FE4F958F809314
:1015F000A70101C08081FF91EF919F918F912F9161
:101600000F900FBE0F901F9018951F920F920FB65C
:101610000F9211242F933F934F935F936F937F9378
:101620008F939F93AF93BF93EF93FF938EE891E0D7
:101630000E94C909FF91EF91BF91AF919F918F9146
:101640007F916F915F914F913F912F910F900FBEBE
:101650000F901F9018958EE891E00E948E0921E06E
:10166000892B09F420E0822F0895109291011092A5
:10167000900188EE93E0A0E0B0E080939201909317
:101680009301A0939401B09395018FE491E090931E
:101690008F0180938E0185EC90E090939B01809365
:1016A0009A0184EC90E090939D0180939C0180ECE2
:1016B00090E090939F0180939E0181EC90E0909345
:1016C000A1018093A00182EC90E09093A30180930C
:1016D000A20186EC90E09093A5018093A401109262
:1016E000A7011092A8011092A9011092AA010895D1
:1016F00008950E9492080E94780B0E944101CBEB52
:10170000D9E00E9456012097E1F30E94BB09F9CF6E
:10171000CF92DF92EF92FF920F931F93CF93DF93BD
:101720007C016A01EB0100E010E00C151D0571F071
:101730006991D701ED91FC910190F081E02DC701F5
:101740000995892B19F00F5F1F4FEFCFC801DF916B
:10175000CF911F910F91FF90EF90DF90CF90089560
:101760006115710581F0DB010D900020E9F7AD01F5
:1017700041505109461B570BDC01ED91FC91028051
:10178000F381E02D099480E090E00895EF92FF92BC
:101790000F931F93CF93DF938C017B01C0E0D0E0C8
:1017A000F701EC0FFD1F6491662359F0F801A08149
:1017B000B181ED91FC91C8010995892B11F0219619
:1017C000EFCFCE01DF91CF911F910F91FF90EF905E
:1017D00008956BE571E00C94B00B0F931F93CF93BA
:1017E000DF93EC010E94C60B8C01CE010E94E90B35
:1017F000800F911FDF91CF911F910F9108958F92CC
:101800009F92AF92BF92DF92EF92FF920F931F933E
:10181000CF93DF93CDB7DEB7A1970FB6F894DEBFB5
:101820000FBECDBF7C01F42FD52ECB0119A22230E3
:1018300008F42AE08E010F5D1F4F822E912CA12CFF
:10184000B12C6F2F7D2DA50194010E947A0CF22FEF
:10185000D32ECA01015011096A3014F4E0E301C02B
:10186000E7E3E60FD801EC93232B242B252B49F734
:10187000B801C7010E94B00BA1960FB6F894DEBF65
:101880000FBECDBFDF91CF911F910F91FF90EF90D1
:10189000DF90BF90AF909F908F90089521153105F4
:1018A00041F4DC01ED91FC910190F081E02D642F79
:1018B00009940C94FF0B9A01462F50E060E070E011
:1018C0000C944E0C0F931F93CF93DF93EC019A016E
:1018D000462F50E060E070E00E944E0C8C01CE017B
:1018E0000E94E90B800F911FDF91CF911F910F9103
:1018F00008950895A1E21A2EAA1BBB1BFD010DC07D
:10190000AA1FBB1FEE1FFF1FA217B307E407F507AF
:1019100020F0A21BB30BE40BF50B661F771F881F8B
:10192000991F1A9469F760957095809590959B0121
:10193000AC01BD01CF010895EE0FFF1F0590F4919A
:08194000E02D0994F894FFCF9B
:1019480006090000FF00000004030000000000007A
:10195800070700000000000005000000000000006C
:10196800010000000000000000000000000000006E
:10197800000000000000000000000000000000005F
:101988000200000000EA04D206CF01000000000CAB
:101998000A880B8E09A7099909EA090D0A006E61E0
:0C19A8006E00696E66006F7666002E000F
:00000001FF
